:08180000341104000000000097
:08188800A80F0400000000009D
:081BF800851F7800861F7800AC
:101C0000871F7800881F7800000020003E08B4007D
:101C100080027800000020003E08B4001003780025
:101C2000600020003E08B4009003780040002000CF
:101C30003E08B40000027800144078000160EF0014
:101C40004100DD0007004000000278001400780029
:101C500000035300060078004008B400800A7800B2
:101C6000200020003E08B400800278000000200020
:101C70003E08B40010037800500020003E08B40075
:101C80000002780014407800060278000160EF003E
:101C9000804178000760EF00110009000382D8003E
:101CA000800A7800000020003E08B400900278000E
:101CB000500020003E08B400000278001440780074
:101CC000050278000160EF00804178000760EF00B6
:101CD000110009000382D800810278005000200022
:101CE0003E08B400104078000160EF000160EF0092
:101CF0004100DE000500E10008003E002000200059
:101D00003E08B40080027800200020003E08B400A5
:101D10001003780061034300860A780015428000B2
:101D2000200020003E08B400900A78000000200047
:101D30003E08B40080027800000020003E08B40095
:101D400010037800044280000403530020002000A8
:101D50003E08B4000002780014007800860A4000B3
:101D6000600020003E08B40090027800400020008F
:101D70003E08B40000027800144078000160EF00D3
:101D80004100DD0005034000200020003E08B400B3
:101D9000100B7800400020003E08B400800278005C
:101DA000954AE800400020003E08B40090427800C8
:101DB000500020003E08B400000278001440780073
:101DC000002CE10004003A00400020003E08B4006E
:101DD00080027800804AEB004F047800CF0378003F
:101DE0004F037800CF02780000000600851F7800BE
:101DF000C500200003000900B51F780080037800AB
:101E00008404780004F0A1000400E00006003A0019
:101E100009F0A70002003700050020000F0037007E
:101E2000050020000D003700E64252000A0039008C
:101E30000003200009F0A600000220002322AF00CA
:101E4000FEFF370024A2B7008502E900FBFF3B003C
:101E50005500200001003700840278006400200053
:101E600005E0A00009F0A70005F0A000087122001D
:101E7000110009008883D800700F020000000000E4
:101E800081037800883E2000110009008883D80073
:101E9000700F020000000000810378004806200057
:101EA000110009008883D800700F020000000000B4
:101EB00081037800A8002000110009008883D80061
:101EC000700F0200000000000003200000C040006E
:101ED0002322AF00FEFF370024A2B700170037000F
:101EE000060320000000E0000E003A0005E0A60016
:101EF0000D0037000402E9000524E1000200320071
:101F00004200AF00000006000000E00005003A00BB
:101F100005E0A6000400370005F0A6000602200038
:101F20000100370005E0A100004043002322AF007C
:101F3000FEFF370024A2B7000000060025012000A4
:101F400003000900CF127800CF02780000000600DD
:101F50004200F8003600F8003200F800801F7800D8
:101F6000200020000C000900B01F78002823EF009B
:101F70002003A9002023A8002003AE00FEFF3700A5
:101F80000003F8002C08F900140020004419880010
:101F90002003A9002023A8002003AE00FEFF370085
:101FA0000003F8002E08F90084802000F441880026
:101FB0002C08F8004008F9008482200014428800B0
:101FC000FC0D02000000000004812000F4418800A4
:101FD0002E08F8004008F900A4822000144288006E
:101FE000FC0D0200000000002322AF00FEFF3700BE
:101FF000C4032000241188002C88BF0004002000A6
:10200000F60E0200000000002322AF00FEFF3700A2
:10201000C4022000241188002322AF00FEFF3700F5
:1020200004022000241188002888BF00040020003A
:10203000F60E0200000000002322AF00FEFF370072
:10204000E4032000241188002322AF00FEFF3700A4
:1020500004022000241188002322AF00FEFF370075
:10206000C4032000241188002E88BF000400200033
:10207000F60E0200000000002322AF00FEFF370032
:10208000C4022000241188002322AF00FEFF370085
:1020900004022000241188002A88BF0004002000C8
:1020A000F60E0200000000002322AF00FEFF370002
:1020B000E4032000241188002322AF00FEFF370034
:1020C000D4002000241188002322AF00FEFF370037
:1020D000A4002000241188008500A900A001200090
:1020E0000C0009004F1078004F0078003200F90012
:1020F0003600F9004200F90000400600851F780014
:102100002CA3EF001420200024198800040E2800BE
:1021100004198800C4FF2F00641988002223EF00EF
:1021200005168000B0FE2F008502600005168800AD
:102130004516800030FF2F0085026000451688009C
:10214000C442A800C482A800CC42A800CC62A80067
:102150008500A9009500A8000A21EF001221EF00D8
:1021600034422F0074088800040328009408880073
:10217000CF02780000000600851F780000002000D4
:102180003008B40080027800804AEB0000C0B30041
:1021900090429800200020003008B40080027800AF
:1021A000804AEB0000C0B30090429800400020003D
:1021B0003008B40080027800804AEB005000200014
:1021C0003008B400800278003488BF008042980054
:1021D000600020003008B400800278009441800044
:1021E000840298003628EF003688BF00A4418000A2
:1021F0000020E100090036003688BF004100DD0004
:102200009441800084024000804AEB0000C0B3008B
:10221000904298003628EC00F3FF3700CF02780098
:102220000000060084802000844188008481200012
:102230009441880044002000A4418800BC100200A2
:1022400000000000048120008441880004822000F6
:102250009441880044002000A4418800BC10020082
:1022600000000000000006000F782200F07F22002E
:1022700020A0B7000000000081E0A800600420005A
:1022800042E7B7007005200042E7B70042C7A90047
:10229000F013200086A6B700C0F02300A4A6B70064
:1022A00020012000C0A6B70000302000CCA6B70057
:1022B0006004200042E7B7007005200042E7B70045
:1022C00042C7A8004427EF0004002800041188003A
:1022D00004402000141188002062A800240220007D
:1022E000441188000028EF000828EF000A28EF00BA
:1022F0000C28EF000E28EF001028EF001228EF0046
:102300001428EF001628EF001828EF001A28EF0015
:102310001C28EF001E28EF002028EF002228EF00E5
:102320002428EF002628EF002828EF002A28EF00B5
:102330002C28EF002E28EF004427EF000028EF00A4
:102340002CA3EF00448420003440880084F3210053
:10235000244288004628EF0081E0A900040E2000F6
:102360001402880081E0A8007E1002000000000036
:10237000121102000000000081E0A9004220EF00DD
:1023800081E0A800FFFF37000020EF000040FE00C2
:020000040001F9
:0807F800C7F900FF7F3F00FF7D
:00000001FF
;PIC24FJ48GA002
;CRC=EF0D  CREATED="07-¡.Â.-17 08:22"
