:08180000AC150400000000001B
:081860006A0F04000000000003
:0818A0009A0F04000000000093
:081BF8003220EF0083E0200021
:101C0000008041001040BA000160EF0000000600B3
:101C10000D0A000054650000737400006572000036
:101C2000205200006561000064790000210D000071
:101C30000A0000003220EF0063E220000080410033
:101C40001040BA000160EF0000000600526500007D
:101C50006365000069760000656400003A200000BA
:101C6000256300000D0A0000000000003220EF0094
:101C700023E42000008041001040BA000160EF0022
:101C800000000600566100006C750000653D000014
:101C900020250000750D00000A000000851F780057
:101CA0000228AE000D0037000E28EC000C88BF00A3
:101CB000744080000020E10008003900644080008A
:101CC000F3FF2F000418E100040032000E28EF009B
:101CD0000228A9001021EF009C21EF00CF0278001C
:101CE00000000600851F78000568EC002440800095
:101CF0004822DE006A24E1005A0036000568EF0041
:101D0000551680004428DE000080EA00800278003A
:101D10006FC06200E2E8B700F0CFB300E3E8B700BD
:101D2000E428EF00244780006420E1000B003D0020
:101D300024478000100020000400DD00E208B60007
:101D40000000E00003003200E4C8BF00E3E8B70091
:101D500002003700E428EC00F2FF370004C8BF009F
:101D60000160EF000080B200070032001080B20076
:101D70000E0032003080B2001D0032001080B20030
:101D80002F00320037003700144780004822DE0061
:101D9000F4CFB20004003200E3C8BF0007E8B70088
:101DA0000668EF000468EC002E003700E3C8BF00AF
:101DB0000748E3000C003A000668EC00344080005D
:101DC0006324E100070039000208A800E3C8BF004F
:101DD00003E8B7000668EF0020C3B30008E8B700C7
:101DE0000468EC00010037000468EF001D003700B4
:101DF000E3C8BF000748E3000C003A000668EC00A7
:101E000008C8BF00344080000024E100060036000E
:101E10000208A800E3C8BF0003E8B7000668EF00A7
:101E200050C0B30008E8B70004003700E3C8BF00A3
:101E300007E8B7000668EF000468EC000900370007
:101E4000E3C8BF000748E300050032000668EC0065
:101E5000344080006324E100010039000468EF0091
:101E600000003700CF02780000000600851F7800D0
:101E7000861F78001C88BF001C28EC0080027800B8
:101E8000050278006220B8004481200084024000EE
:101E90002003A9002023A8002003AE00FEFF370086
:101EA0000618800006007800F03FB200800A780033
:101EB000E44080006320E100010034001C28EF00B2
:101EC0001C08F8002803F9004F037800CF027800BF
:101ED000000006004200F8003600F8003200F8006A
:101EE000801F7800200020000C000900B01F78003F
:101EF0002428EC000268A8004E0E0200000000003A
:101F0000720E020000000000360F02000000000008
:101F10008460A900A00120000C0009004F10780087
:101F20004F0078003200F9003600F9004200F90055
:101F3000004006004200F8003600F8003200F800C9
:101F4000801F7800200020000C000900B01F7800DE
:101F50002202AE00FEFF370030118000E4E8B70037
:101F60000288A8002888BF002828EC00800278009A
:101F7000E482200004834200E488BF00004398000C
:101F800044418000030420000418E10002003E00E8
:101F900000002000010037002888BF0028A8B700F3
:101FA0002C28EC002628EC008560A900A001200068
:101FB0000C0009004F1078004F0078003200F90043
:101FC0003600F9004200F900004006000000E00081
:101FD0004220AF00040037003B1F09000000000052
:101FE0000000E900FCFF3A0000000600851F7800B1
:101FF000444080004822DE004306200084825100D5
:10200000140320000428B800440620000400400007
:1020100010A8B70085408000C12ADE00544080002F
:102020000960EF000428B8008002780005027800FB
:1020300043062000110009000382D80012A8B7004F
:102040000248A800CF02780000000600851F780033
:102050000248AF0002003700F60F02000000000047
:102060000A48E200040032000C08E20002003200DC
:102070000228AE00010037000D0037009C21EF0060
:102080001021EF001008F8000C01F90004012800ED
:10209000840888000621EF0064002000E40C88001A
:1020A0001208F8009801F9000E28EF000228A80095
:1020B000CF02780000000600261002000000000099
:1020C00000000600851F7800C002F800BE08F90075
:1020D000B0FE2F00BE08B60080027800051688000A
:1020E000C202F800C008F900B0FE2F00C008B60018
:1020F0008002780025168800C802F800C208F9009E
:1021000030FF2F00C228B600C208F800C802F9004C
:10211000CA02F800C408F90030FF2F00C428B60036
:10212000C408F800CC02F900C368A900C208F8008E
:10213000C802F900C568A900C408F800CC02F9007B
:10214000401F2000E60F020000000000C088BF0012
:1021500074007000C0A8B700C008F800C402F900FD
:10216000C488BF006C007000C4A8B700C408F800A1
:10217000CC02F90014468000040FB3001446880016
:10218000C208F800C802F90004FF2F006419880093
:102190002223EF0014F0290024198800040E2800DF
:1021A000041988002823EF000421EF00047D20009B
:1021B0001408880004012800240888009460A800FE
:1021C000030009002682BF008560A9009560A80071
:1021D00001002000010078000160EF00FC0D02000A
:1021E000000000008100E8002322AF00FEFF37005E
:1021F00024A2B700000120000008E600F5FF370028
:102200005C10020000000000CF0278000000060011
:10221000F4458000F4CFB20004407800BEE8B70077
:10222000BEC8BF000160EF00610060000000E00078
:1022300002003A00C442A90001003700C442A800CD
:10224000BEC8BF000160EF00620060000000E00057
:1022500002003A00C482A90001003700C482A8002D
:10226000BEC8BF000160EF00640060000000E00035
:1022700002003A00CC42A90001003700CC42A8007D
:10228000BEC8BF000160EF00680060000000E00011
:1022900002003A00CC62A90001003700CC62A8001D
:1022A00000000600851F7800F44580006324E100EB
:1022B0000200360030C0B30001003700BEC8BF00C6
:1022C000BEE8B700BEC8BF000160EF004100DD00FE
:1022D0004481200084024000951F78000000F9002E
:1022E000CF02780000000600851F7800C50020009E
:1022F00003000900B51F780000F0A6000C003700AD
:102300000000EA000480A00004F0A60008003700E6
:10231000801F7800D00220002322AF00FEFF37008C
:1023200024A2B7004F0078000480A1000860ED00EF
:102330008002EB00800378008404780004F0A100A0
:102340000404E00006003A0009F0A700020037008C
:10235000050020000F003700050020000D003700A9
:10236000E64252000A0039000003200009F0A600EE
:10237000000220002322AF00FEFF370024A2B70096
:102380008502E900FBFF3B005500200001003700FB
:1023900084027800640020000580A7000402E800A1
:1023A00005E0A00009F0A70005F0A00008712200D8
:1023B000110009008883D8002012020000000000EC
:1023C00081037800883E2000110009008883D8002E
:1023D000201202000000000081037800480620005F
:1023E000110009008883D8002012020000000000BC
:1023F00081037800A8002000110009008883D8001C
:1024000020120200000000000980A600050037002D
:10241000D00220002322AF00FEFF370024A2B70025
:102420000980A1000003200000C040005001880086
:102430002322AF00FEFF370024A2B70020003700A0
:10244000060320000000E0000E003A0005E0A600B0
:10245000160037000402E9000524E1000200320002
:102460004200AF00000006000000E00005003A0056
:1024700005E0A6000D00370005F0A60006022000CA
:102480000A00370005E0A1000980A6000700370018
:1024900000057800D00220002322AF00FEFF3700A5
:1024A00024A2B7000980A1000A0078000040430080
:1024B0002322AF00FEFF370024A2B7000000060071
:1024C0002501200003000900CF127800CF02780018
:1024D00000000600851F78000208AE0004003700E7
:1024E0000208A90010C0B30000E0B70001003700E7
:1024F0000060EF00CF0278000000060003C8BF00B4
:10250000BEE8B7000208A900F0CFB30003E8B700A7
:10251000BEC8BF0000E0B7000000060014468000FF
:1025200043062000041CE1000200310040C6B30055
:1025300001003700C2C8BF0009E8B7000248A9007F
:1025400000000600851F7800BE68EF002C08E2003E
:1025500002003A000060EF00130037002A88BF0035
:102560002A28EC0080027800E482200004804200E7
:10257000F445800000429000F445880054418000FA
:10258000030420000418E10002003E0000002000C7
:10259000010037002A88BF002AA8B7002C28ED00C8
:1025A000BEC8BF0000E0B700CF0278000000060000
:1025B000851F78008EC8BF000160EF000080B20068
:1025C000050032001080B200090032003080B200F5
:1025D0001900320037003700F4458000A4C3B20070
:1025E00002003A000B68EF008E68EC003100370003
:1025F000F44580006D24E10002003A008E68EC0092
:102600000C003700544080004822DE007024E100B6
:10261000080031000BC8BF000B68EC000080FB0015
:102620000160EF00E486200084024000BE88BF0005
:10263000804298001F003700F44580006A24E100C2
:1026400019003A000BC8BF000B68EC000080FB00CB
:102650000160EF00E486200084024000804AEB0025
:10266000C028EF000BC8BF000160EF0004468000E7
:102670000020E10009003D00E487200003468000BF
:1026800084824100E48620000346800004804100EB
:10269000904A7800C028EC00F2FF370002A8A8009A
:1026A0000B68EF00010037008E68EF008E68EF00C6
:1026B00000003700CF02780000000600851F780078
:1026C000861F7800C628EF00C228EF00A400200073
:1026D00024468800C028EF00BE08E20002003A004D
:1026E0000020EF00C0003700C688BF00C628EC00FD
:1026F0008002780005007800BE08B40044468000DF
:10270000004290004446880044468000D4C2B20093
:102710000B003A001400200014468800C688BF0051
:10272000C628EC008002780005007800BE08B400DE
:102730004446800000429000444688000B00370069
:1027400044468000B4C2B20008003A00C688BF0008
:10275000C628EC008002780005007800BE08B400AE
:102760004446800000429000444688004446800071
:1027700003032000041CE1008F003C00444680005D
:1027800093032000041CE1008B00350044468000C8
:1027900004C3B20015003A00C688BF00BE08B400EA
:1027A0001042780084C7B20005003200C688BF001E
:1027B000BE08B4001042780084C5B2000B003A0095
:1027C0000401200024468800C628EC00C688BF000B
:1027D000C628EC008002780005007800BE08B4002E
:1027E0004446800000429000444688002446800011
:1027F0006A20E1001C003A004446800003032000E8
:10280000041CE10017003C004446800093032000B4
:10281000041CE10013003500044680006A20B80063
:1028200080027800444680000443B10004407800F0
:1028300000E0B7000000FB0005004000C0A8B700A2
:10284000C688BF00C628EC0080027800050078002A
:10285000BE08B40044468000004290004446880010
:10286000E5FF370054003700244680007020E10067
:1028700051003A004446800013062000041CE10089
:1028800007003E0044468000A3072000041CE1002E
:1028900003003900C8C8BF00F04DB2000100370086
:1028A000C8C8BF00C8E8B700444680000303200042
:1028B000041CE10005003C00444680009303200016
:1028C000041CE10001003500080037004446800088
:1028D00013042000041CE10037003C004446800043
:1028E00063042000041CE1003300350044468000EE
:1028F00003032000041CE1000E003C00444680005D
:1029000093032000041CE1000A0035000546800006
:10291000C42ADD00444680000443B100044078002E
:1029200000E0B7000000FB0005004000C0A8B700B1
:102930000B00370005468000C42ADD0044468000B5
:102940001444B1000440780000E0B7000080FB00B0
:102950000160EF006A00400005004000C0A8B70019
:10296000C688BF00C628EC00800278000500780009
:10297000BE08B400444680000042900044468800EF
:102980004446800013062000041CE10007003E00BE
:1029900044468000A3072000041CE1000300390026
:1029A000C8C8BF00F04DB20001003700C8C8BF0062
:1029B000C8E8B700BCFF3700144680006120E10082
:1029C00007003A00244680006A20E10004003A0033
:1029D000040020000346800003005200C0A8B70096
:1029E000C008F8000000F9004F037800CF0278001B
:1029F00000000600851F7800C500200003000900C4
:102A0000B51F7800800378008404780004F0A100EA
:102A10000400E00006003A0009F0A70002003700B9
:102A2000050020000F003700050020000D003700D2
:102A3000E64252000A0039000003200009F0A60017
:102A4000000220002322AF00FEFF370024A2B700BF
:102A50008502E900FBFF3B00550020000100370024
:102A6000840278006400200005E0A00009F0A700BF
:102A700005F0A00008712200110009008883D80029
:102A8000741502000000000081037800883E2000D9
:102A9000110009008883D8007415020000000000AE
:102AA0008103780048062000110009008883D800BF
:102AB000741502000000000081037800A8002000C7
:102AC000110009008883D80074150200000000007E
:102AD0000003200000C040002322AF00FEFF3700AB
:102AE00024A2B70017003700060320000000E00012
:102AF0000E003A0005E0A6000D0037000402E900D0
:102B00000524E100020032004200AF000000060090
:102B10000000E00005003A0005E0A60004003700D0
:102B200005F0A600060220000100370005E0A10024
:102B3000004043002322AF00FEFF370024A2B7006D
:102B4000000006002501200003000900CF127800D4
:102B5000CF027800000006000F782200F07F2200EC
:102B600020A0B70000000000404424002005880099
:102B7000404424004005880081E0A8006004200053
:102B800042E7B7007005200042E7B70042C7A9003E
:102B9000C0F02300A4A6B700E0F02300A6A6B7006B
:102BA00000602100CAA6B70000302000CCA6B70004
:102BB00000502000CEA6B7006004200042E7B70016
:102BC0007005200042E7B70042C7A8000028EF00C8
:102BD000040028008411880004402000941188001B
:102BE0003062A90034032000C411880004002800CA
:102BF0000411880004402000141188002062A900FC
:102C000034032000441188000208A900F0CFB3006B
:102C100003E8B7000468EF000568EF000668EF00FE
:102C2000F0CFB30007E8B70020C3B30008E8B7004F
:102C3000A0C5B30009E8B70020C3B3000AE8B70095
:102C4000E4012000644088000E28EF000228A9005B
:102C50000248A900C45D200084408800C42B2000E5
:102C6000944088001C28EF002428EF002628EF005D
:102C70000268A9000288A8002828EF002A28EF008F
:102C80002C28EF000B68EF0002A8A9008E68EF0067
:102C90002CA3EF001E28EF009028EF009228EF00F1
:102CA0009428EF0081E0A900040E2000140288009F
:102CB00081E0A800621002000000000081E0A9008D
:102CC0004220EF0081E0A8000268AE00DC0037007F
:102CD0000268A9009028EC0084448000430620008C
:102CE000110009000382D800810278000500E0008D
:102CF00005003A0092C8BF00BEE8B7000811020004
:102D0000000000009228EC0084448000830C200026
:102D1000110009000382D800810278000500E0005C
:102D200044003A009028EF009460A9002408F800BD
:102D30009608F9009460A800BE68EF0052110200E6
:102D4000000000009AA8B70010C0B300BEE8B700AA
:102D500052110200000000009CA8B70020C0B30080
:102D6000BEE8B70052110200000000009EA8B700A4
:102D700030C0B300BEE8B7005211020000000000EE
:102D8000A0A8B7002322AF00FEFF3700A403200055
:102D9000241188009A88BF004400200074110200AA
:102DA000000000002322AF00FEFF3700C402200015
:102DB000241188009C88BF00440020007411020088
:102DC000000000002322AF00FEFF3700C4022000F5
:102DD000241188009E88BF00440020007411020066
:102DE000000000002322AF00FEFF3700C4022000D5
:102DF00024118800A088BF00440020007411020044
:102E0000000000002322AF00FEFF3700D4002000A6
:102E1000241188002322AF00FEFF3700A400200009
:102E2000241188009460A9002408F8009808F9008B
:102E30009460A8006A120200000000000004E00094
:102E4000330032000405200014458800540520009A
:102E500024458800A405200034458800F40520009E
:102E6000444588007E12020000000000AAE8B70076
:102E7000AB68EF0054458000F48FB20024003200AC
:102E8000544580006220B800248A200004004000DD
:102E900090027800C208F800E5FF9F00C208F90020
:102EA0008E120200000000005C1002000000000012
:102EB0002322AF00FEFF37003405200024118800D4
:102EC0002322AF00FEFF3700740520002411880084
:102ED0002322AF00FEFF3700A40320002411880046
:102EE000AA88BF0004002000741102000000000046
:102EF0002322AF00FEFF3700D400200024118800F9
:102F00002322AF00FEFF3700A40020002411880018
:102F10009560A9002C08F8009408F9009560A800B5
:102F20009408E20026003200A21202000000000015
:102F3000ACE8B70001002000010078000160EF005C
:102F40001A0E0200000000008100E8002322AF00FA
:102F5000FEFF370024A2B700900020000008E60022
:102F6000F5FF37002322AF00FEFF3700ACC8BF00DB
:102F700024E2B7002562EF002322AF00FEFF3700F6
:102F8000D4002000241188002322AF00FEFF370068
:102F9000A400200024118800A0C5B300C2E8B70037
:102FA0008E120200000000005C1002000000000011
:102FB000ACC8BF00BEE8B700D81202000000000095
:102FC00002A8AE001E00370002A8A900E487200076
:102FD000F44588005E13020000000000AEA8B700B0
:102FE00001002000010078000160EF00360E0200B1
:102FF000000000008100E8002322AF00FEFF370040
:1030000024A2B700600020000008E600F5FF3700AA
:10301000AE88BF0004002000FA1402000000000087
:103020002322AF00FEFF3700D400200024118800C7
:103030002322AF00FEFF3700A400200024118800E7
:0830400021FF37000040FE00F3
:020000040001F9
:0807F800C7F900FF7F3F00FF7D
:00000001FF
;PIC24FJ48GA002
;CRC=5C48  CREATED="01-Nov-16 06:37"
