:081800008C1804000000000038
:081858005A100400000000001A
:081860001E100400000000004E
:08187800A210040000000000B2
:08188800E20F04000000000063
:081BF8003220EF00430220003F
:101C0000830150000500310083E120000080410085
:101C10001040BA000160EF000000060080E12000E3
:101C200083814100808141001380BA0000000600DA
:101C3000456E2000636F280064654F0072204300EA
:101C4000707532006C7329006573200020477000A6
:101C5000656E6900206F6E006E20730041582E0083
:101C600032200D00284F0A0043310D00292C0A00B4
:101C700020410000583300003220EF008302200092
:101C8000830150000500310083E520000080410001
:101C90001040BA000160EF000000060080E520005F
:101CA00083814100808141001380BA00000006005A
:101CB0005357650020306C00203A650020536300C4
:101CC000746174007274200020774C0069746F0096
:101CD00068207700434320005720660028417200A7
:101CE00058336500206C710065612E0064730D002F
:101CF00020410A0058320000292C00002053000027
:101D00003220EF00C3E82000008041001040BA00FC
:101D10000160EF0000000600535700002031000072
:101D2000203A000020530000656C0000656300004D
:101D30007420000048690000676800002066000009
:101D400072650000712E00000D0A00000000000006
:101D50003220EF0043EB2000008041001040BA0029
:101D60000160EF0000000600535700002032000021
:101D7000203A000020430000686100006E67000008
:101D80006520000064690000726500006374000053
:101D9000696F00006E2000005B43000057200000C8
:101DA0003C2D00003E20000043430000575D000032
:101DB0002E0D00000A0000003220EF0083EE20000C
:101DC000008041001040BA000160EF0000000600F2
:101DD0005357000020330000203A00002053000039
:101DE000746F0000702E00000D0A00000D0A000044
:101DF000000000003220EF0063F02000008041006E
:101E00001040BA000160EF00000006004C450000E1
:101E100044200000302000003A200000434300002E
:101E2000572E00000D0A0000000000003220EF00D5
:101E300023F22000008041001040BA000160EF0052
:101E4000000006004C450000442000003120000046
:101E50003A200000435700002E0D00000A00000049
:101E60003220EF00C3F32000008041001040BA0090
:101E70000160EF00000006004C4500004420000017
:101E8000322000003A200000486900006768000026
:101E90002066000072650000712E00000D0A00002F
:101EA000000000003220EF00E3F520000080410038
:101EB0001040BA000160EF00000006004C45000031
:101EC00044200000332000003A2000004C6F000046
:101ED0007720000066720000657100002E0D000082
:101EE0000A0D00000A0D00000A000000851F78009E
:101EF000861F7800100020001009B400904278007E
:101F0000000020001009B40000027800144078009E
:101F1000002CE10004003A00B548800010C0B30076
:101F2000804A780024003700100020001009B40017
:101F300080027800954AE800400020001009B400B3
:101F400090027800200020001009B4000002780000
:101F5000144078000160EF004200DD0005034000FE
:101F600024912000341B7800341B780020002000CE
:101F70001009B40080027800954AE8002000200093
:101F80001009B40090427800000020001009B4004D
:101F90000002780014407800002CE10004003A00B0
:101FA000200020001009B40080027800804AEB0075
:101FB000B5488000804AEB004F037800CF027800DC
:101FC000000006004200F8003600F8003200F80079
:101FD000801F7800200020000C000900B01F78004E
:101FE000A4852000844888008608F8001209F900BA
:101FF0008808F8001409F900E4902000B44888002B
:10200000760F020000000000744880006124E100A7
:1020100001003A000828EC008500A900A00120007A
:102020000C0009004F1078004F0078003200F900D2
:102030003600F9004200F900004006004200F800B6
:102040003600F8003200F800801F780020002000E1
:102050000C000900B01F7800A48520008448880087
:102060008208F8001209F9008408F8001409F90040
:10207000E4902000B4488800760F020000000000C1
:10208000744880006124E10001003A000828EC0057
:102090008460A900A00120000C0009004F10780006
:1020A0004F0078003200F9003600F9004200F900D4
:1020B000004006004200F8003600F8003200F80048
:1020C000801F7800200020000C000900B01F78005D
:1020D0008E88BF009208B4008EA8B7008E08F80062
:1020E0008201F900A44480006120E1000C003A0064
:1020F0009428EF00350880009288BF004100DE0080
:102100000500400090A8B7009008F8008801F90089
:1021100034002000540C880084C0A90094C0A8009A
:102120008440A900A00120000C0009004F10780095
:102130004F0078003200F9003600F9004200F90043
:10214000004006004200F8003600F8003200F800B7
:10215000801F7800200020000C000900B01F7800CC
:102160009088BF009208B40090A8B7009008F800CB
:102170008801F900A44480006120E1000C003A00CD
:102180009428EF00350880009288BF004100DE00EF
:10219000050040008EA8B7008E08F8008201F90003
:1021A00034002000240C88008440A9009440A8003A
:1021B00084C0A900A00120000C0009004F10780085
:1021C0004F0078003200F9003600F9004200F900B3
:1021D0000040060081E0A900040E200014028800DF
:1021E00081E0A800000006008008A9008168EF00D7
:1021F0008028A80004E82300944488000828EF0001
:102200009428EF0000000600851F78002CA3EF0043
:102210000516800080FE2F008502600005168800EC
:102220004516800030FF2F008502600045168800AB
:10223000C442A800C482A800CC42A800CC62A80076
:10224000C422A900C402A900CC02A900CC22A90082
:102250008500A9009500A8000A21EF001221EF00D7
:1022600094862100740888000403280094088800DC
:102270008460A9009460A8000021EF000421EF0011
:1022800044C32000140888000403280024088800A0
:102290000621EF001021EF000CA1EF000400280040
:1022A00084088800CF02780000000600851F7800AF
:1022B00000002000A208B40080027800A688BF00B9
:1022C0008042980010002000A208B400800278002C
:1022D000804AEB0020002000A208B40080027800B1
:1022E000804AEB0030002000A208B4008002780091
:1022F000804AEB0040002000A208B4008002780071
:102300002445800084029800CF0278000000060077
:1023100080C0B300A6E8B700A4852000144588005B
:1023200004862000244588005611020000000000A9
:1023300000000600851F780000002000C008B400DF
:1023400080027800C288BF008042980020002000F0
:10235000C008B400800278002446800084029800FF
:10236000CF0278000000060010C0B300C2E8B7003A
:102370002488200004468800C428EF009A11020037
:102380000000000030C0B300C2E8B700648820003D
:1023900004468800C428EF009A11020000000000E3
:1023A00090C0B300C2E8B700A480200004468800B3
:1023B000C428EF009A11020000000000A0C0B30082
:1023C000C2E8B700E480200004468800C428EF007B
:1023D0009A11020000000000B0C0B300C2E8B700CC
:1023E0002481200004468800C428EF009A110200CE
:1023F00000000000C0C0B300C2E8B7006481200044
:1024000004468800C428EF009A1102000000000072
:1024100000C1B300C2E8B700A488200004468800C9
:10242000C428EF009A11020000000000000006001E
:10243000851F7800861F7800A568EF00A5C8BF003B
:10244000244580000024E10013003600A5C8BF0029
:102450000160EF00C402DD0005007800A208B400AE
:1024600000037800004BEB00A5C8BF000160EF003F
:10247000C402DD00EA8242000500780014458000B5
:1024800084024000804AEB0000C0B30090429800F4
:10249000A568EC00E9FF37004F037800CF02780011
:1024A00000000600851F7800861F7800A4C8BF00C2
:1024B0000160EF00C402DD0005007800A208B4004E
:1024C00000037800004BEB00A4C8BF000160EF00E0
:1024D000C402DD00E182420005007800144580005E
:1024E00084024000A5C8BF00804A7800A4C8BF008D
:1024F0000160EF00C402DD00E282420005007800C6
:102500001445800084024000648A2000B41A7800D8
:10251000B41A7800A4C8BF000160EF00C402DD0057
:10252000E6824200050078001445800084024000E5
:10253000648A2000B41A7800B41A7800A4C8BF00D6
:102540000160EF00C402DD00EA824200050078006D
:102550001445800084024000744580008402980085
:10256000A4C8BF000160EF00C402DD00EC8242009D
:10257000050078001445800084024000801F780028
:10258000AAC8BF00C2E8B7004F007800054688001F
:10259000AC08F800C408F9009A110200000000001D
:1025A0004F037800CF0278000000060030C0B3006F
:1025B000A4E8B700A4822000144588001812020085
:1025C00000000000A468EF0010C0B300A5E8B70049
:1025D00040C0B300AAE8B700A482200014458800D8
:1025E0004401200034458800A828EF00AC28EF0003
:1025F000A4852000744588005212020000000000EB
:1026000010C0B300A4E8B700A568EF0050C0B30045
:10261000AAE8B700A48220001445880044062000E0
:1026200034458800A828EF00AC28EF00A4852000DE
:1026300074458800521202000000000000000600ED
:1026400081E0A9004220EF0081E0A8000000060020
:10265000851F7800861F780010002000A208B400B3
:102660001004E00004003A003545800020C0B300AB
:10267000804A78002B00370010002000A208B40028
:1026800080027800954AE90040002000A208B400CA
:102690009002780030002000A208B4000002780008
:1026A000144078000160EF004200DD0005004000AA
:1026B0000002780003002000B4197800B4197800F3
:1026C000A8A8B7005145880025458000848A2000CD
:1026D000B41A7800B41A780030002000A208B400C0
:1026E00080027800954AE80030002000A208B4007B
:1026F0009042780000002000A208B4000002780098
:1027000014407800002CE10004003A003000200062
:10271000A208B40080027800804AEB0035458000B2
:10272000804AEB004F037800CF02780000000600DB
:10273000851F78005516800005007800000FB20054
:10274000004278000960EF000960EF004422DE00DB
:10275000A408F800E4FF9F00A408F900A4C8BF0083
:1027600000E0B700CF02780000000600851F780067
:102770009668EF0010C0B300ABE8B70000CFB3001D
:10278000ADE8B700AAC8BF00AD48B70000C0EA0076
:10279000ACE8B700AC48E2000E003200AE68EF00D3
:1027A000744580006424E1000A003100ACC8BF0019
:1027B000AB48B6000004E000030032009668EC006D
:1027C000AEC8BF0098E8B700AB68D400AE68EC00B4
:1027D000F3FF3700CF0278000000060099C8BF0061
:1027E0000160EF000080B2000F0032001080B200E4
:1027F000230032003080B200370032001080B20077
:102800004B0032007080B2005F0032001080B200D6
:10281000730032003080B200870032001080B200B6
:102820009B003200B00037004200F80081E0A900B0
:1028300042E0EF0081E0A800AA08F8001009F900C2
:102840000A08F8001209F9000C08F8001409F90048
:10285000C48A2000B4488800760F020000000000FF
:1028600081E0A9004200F90081E0A80064458000F1
:102870006124E10001003A000828EC009B003700C9
:102880004200F80081E0A90042E0EF0081E0A800EA
:10289000AA08F8001009F9000E08F8001209F9005A
:1028A0001008F8001409F900C48A2000B448880010
:1028B000760F02000000000081E0A9004200F9004C
:1028C00081E0A800644580006124E10001003A0035
:1028D0000828EC00850037004200F80081E0A900DC
:1028E00042E0EF0081E0A800AA08F8001009F90012
:1028F0001208F8001209F9001408F8001409F90088
:10290000C48A2000B4488800760F0200000000004E
:1029100081E0A9004200F90081E0A8006445800040
:102920006124E10001003A000828EC006F00370044
:102930004200F80081E0A90042E0EF0081E0A80039
:10294000AA08F8001009F9001608F8001209F900A1
:102950001808F8001409F900C48A2000B448880057
:10296000760F02000000000081E0A9004200F9009B
:1029700081E0A800644580006124E10001003A0084
:102980000828EC00590037004200F80081E0A90057
:1029900042E0EF0081E0A800AA08F8001009F90061
:1029A0001A08F8001209F9001C08F8001409F900C7
:1029B000C48A2000B4488800760F0200000000009E
:1029C00081E0A9004200F90081E0A8006445800090
:1029D0006124E10001003A000828EC0043003700C0
:1029E0004200F80081E0A90042E0EF0081E0A80089
:1029F000AA08F8001009F9001E08F8001209F900E9
:102A00002008F8001409F900C48A2000B44888009E
:102A1000760F02000000000081E0A9004200F900EA
:102A200081E0A800644580006124E10001003A00D3
:102A30000828EC002D0037004200F80081E0A900D2
:102A400042E0EF0081E0A800AA08F8001009F900B0
:102A50002208F8001209F9002408F8001409F90006
:102A6000C48A2000B4488800760F020000000000ED
:102A700081E0A9004200F90081E0A80064458000DF
:102A80006124E10001003A000828EC00170037003B
:102A90004200F80081E0A90042E0EF0081E0A800D8
:102AA000AA08F8001009F9002608F8001209F90030
:102AB0002808F8001409F900C48A2000B4488800E6
:102AC000760F02000000000081E0A9004200F9003A
:102AD00081E0A800644580006124E10001003A0023
:102AE0000828EC0001003700000037000000060055
:102AF000A4C8BF00AAE8B700B61302000000000097
:102B00009AC8BF000160EF000080B20005003200EB
:102B10001080B2000B0032003080B2001A00320088
:102B20001D003700B44480006124E10004003A0035
:102B300098C8BF0097E8B70010C0B3009AE8B70084
:102B400016003700B44480006124E1000C003A0014
:102B500098C8BF009748E30009003A0097C8BF0033
:102B600099E8B700A608F800AA08F900EE130200D9
:102B70000000000020C0B3009AE8B7000100370051
:102B80009A68EF00050037009648E20001003A001D
:102B90009A68EF00010037000000370000000600CF
:102BA0009813020000000000A2E8B700EA1002003B
:102BB00000000000A2C8BF00A4E8B700A485200060
:102BC0003445880078150200000000002013020040
:102BD0000000000000000600851F7800861F7800B6
:102BE000871F7800A568EF00A5C8BF0024458000B6
:102BF0000024E10066003600A5C8BF000160EF00B8
:102C0000C402DD0005007800A208B400104278007C
:102C10006124E1005C003A00A5C8BF000160EF003C
:102C2000C402DD00E6824200050078001445800001
:102C300084024000951AE9004200AE00951AE900AE
:102C4000A5C8BF000160EF00C402DD00E6824200BB
:102C5000050078001445800004004000A400200016
:102C6000301A7800301A78000500E00046003A007B
:102C70000600E00044003A00A5C8BF000160EF0074
:102C8000C402DD00EA82420005007800144580009D
:102C90000400400090027800A5C8BF000160EF006A
:102CA0004403DD006C0343000600780014458000F7
:102CB00004004000C4002000301A7800301A780068
:102CC0004200F80081E0A90042E0EF0081E0A800A6
:102CD0008548880096488800A7488800648A2000B4
:102CE000B4488800760F02000000000081E0A900CF
:102CF0004200F90081E0A800344580006124E10031
:102D000001003A000828EC00A5C8BF000160EF00F0
:102D1000C402DD00E6824200050078001445800010
:102D200084024000A5C8BF000160EF004403DD003D
:102D30006203430006007800144580000400400050
:102D4000B01A7800B01A7800A5C8BF000160EF0083
:102D5000C402DD00E18242000500780014458000D5
:102D6000040040001004E00007003A00A5C8BF00BE
:102D70000160EF00C402DD0005007800A208B40085
:102D800000037800004BEB00A568EC0096FF3700CD
:102D9000CF0378004F037800CF02780000000600D0
:102DA000EA1002000000000030C0B300A4E8B70041
:102DB000A482200014458800EC15020000000000E9
:102DC000201302000000000000000600851F7800AC
:102DD00014002000A44488008028A800C442A90050
:102DE000CC62A900C482A800CC42A80004E8230059
:102DF0009444880035088000050078009208B400EB
:102E000090A8B7009008F8008801F900340020006D
:102E1000540C880084C0A90094C0A800CF02780098
:102E200000000600851F780004E823009444880011
:102E30008A21EF0094C0A900CC22A9008421EF00D0
:102E40009440A900CC02A90014002000A4448800EA
:102E5000CC62A900CC42A8008028AE000B0037004D
:102E600035088000050078009208B40090A8B700EB
:102E70009008F8008801F90034002000540C880004
:102E800084C0A90094C0A8000A003700350880005B
:102E9000050078009208B4008EA8B7008E08F800EC
:102EA0008201F90034002000240C88008440A9002D
:102EB0009440A800CF027800000006000000EB005C
:102EC0008008AF000000E8000160EF000080B20061
:102ED000030032001080B200050032000800370005
:102EE000E6160200000000008008A8000500370078
:102EF00012170200000000008008A800010037003F
:102F00000000370000000600851F780004F421004F
:102F1000944488008A21EF0094C0A900CC22A90023
:102F20008421EF009440A900CC02A90014002000E5
:102F3000A4448800CC42A900CC62A8008028AE003E
:102F40000B00370035088000050078009208B400B7
:102F500090A8B7009008F8008801F900340020001C
:102F6000540C880084C0A90094C0A8000A0037004F
:102F700035088000050078009208B4008EA8B700DC
:102F80008E08F8008201F90034002000240C88002B
:102F90008440A9009440A800CF02780000000600F9
:102FA0000000EB008008AF000000E8000160EF00C7
:102FB0001080B200010032000400370084170200C4
:102FC000000000008008A800010037000000370062
:102FD00000000600851F78008A21EF0094C0A90038
:102FE000CC22A9008421EF009440A900CC02A900C2
:102FF00014002000A44488008028AF000E00370091
:10300000C442A900C482A8008028A8003508800016
:10301000050078009208B40090A8B7009008F80066
:103020008801F90034002000540C880084C0A900F5
:1030300094C0A8000D003700C482A900C442A800B3
:103040008028A90035088000050078009208B400A7
:103050008EA8B7008E08F8008201F9003400200025
:10306000240C88008440A9009440A800CF02780076
:10307000000006000000EB008008AF000000E80040
:103080000160EF001080B200010032000400370040
:10309000EA170200000000008008A80001003700C5
:1030A00000003700000006008A21EF0094C0A9004C
:1030B000CC22A9008421EF009440A900CC02A900F1
:1030C000C442A800C482A800CC42A800CC62A800D8
:1030D000000006000000EB008008AF000000E800E0
:1030E0000160EF001080B2000100320004003700E0
:1030F00054180200000000008008A90001003700F9
:103100000000370000000600000006000000060076
:1031100000000600000006000F782200F07F220069
:1031200020A0B700000000004044240020058800D3
:1031300081E0A8006004200042E7B700700520008D
:1031400042E7B70042C7A900C0F02300A4A6B70019
:1031500020312100C0A6B70000302000CCA6B70067
:103160006004200042E7B7007005200042E7B70086
:1031700042C7A8004427EF0004002800041188007B
:1031800004402000141188002062A80024022000BE
:10319000441188000828EF000028EF004427EF00C2
:1031A0000028EF008008A9008168EF008228EF0066
:1031B0008428EF008628EF008828EF008A28EF0097
:1031C0008C28EF008E28EF009028EF009228EF0067
:1031D0008028A9009428EF004427EF009A68EF00A8
:1031E0000028EF009668EF009768EF009868EF00FE
:1031F0009968EF002CA3EF008491200034408800F0
:1032000044E62100C44888001A29EF00010020008C
:10321000010078000160EF00FC0D020000000000DA
:103220008100E8002322AF00FEFF370024A2B70090
:10323000300320000008E600F5FF37000100200001
:10324000010078000160EF003C0E02000000000069
:103250008100E8002322AF00FEFF370024A2B70060
:10326000800320000008E600F5FF37000100200081
:10327000010078000160EF00800E020000000000F5
:103280008100E8002322AF00FEFF370024A2B70030
:10329000900120000008E600F5FF37000100200043
:1032A000010078000160EF00A80E0200000000009D
:1032B0008100E8002322AF00FEFF370024A2B70000
:1032C000600220000008E600F5FF37000100200042
:1032D000010078000160EF00DC0E02000000000039
:1032E0008100E8002322AF00FEFF370024A2B700D0
:1032F000F00020000008E600F5FF37000100200084
:10330000010078000160EF00FA0E020000000000EA
:103310008100E8002322AF00FEFF370024A2B7009F
:10332000D00020000008E600F5FF37000100200073
:10333000010078000160EF00160F0200000000009D
:103340008100E8002322AF00FEFF370024A2B7006F
:10335000C00020000008E600F5FF37000100200053
:10336000010078000160EF00300F02000000000053
:103370008100E8002322AF00FEFF370024A2B7003F
:10338000300120000008E600F5FF370001002000B2
:10339000010078000160EF00520F02000000000001
:1033A0008100E8002322AF00FEFF370024A2B7000F
:1033B000600120000008E600F5FF3700EA10020077
:1033C00000000000F41002000000000004110200E0
:1033D000000000008811020000000000B41102008B
:1033E00000000000D61202000000000020130200BE
:1033F00000000000EA10020000000000A485200088
:1034000014458800C489200024458800048A2000CF
:103410003445880028130200000000002013020039
:1034200000000000A048E20033003A00E4448000BD
:103430006124E10003003A00D01502000000000002
:103440002C003700E44480006324E10003003A00CC
:10345000D01602000000000026003700E44480007F
:103460006924E10003003A005E170200000000003A
:1034700020003700E44480006A24E10003003A00A1
:10348000D0170200000000001A003700E44480005A
:103490006B24E10003003A003A180200000000002B
:1034A00014003700E44480006C24E10003003A007B
:1034B0006A180200000000000E003700E44480009B
:1034C0006424E10003003A008418020000000000B8
:1034D00008003700E44480006524E10003003A005E
:1034E0008618020000000000020037008818020061
:1034F00000000000020037008A18020000000000EF
:08350000BCFF37000040FE0093
:020000040001F9
:0807F800C7F900FF7F3F00FF7D
:00000001FF
;PIC24FJ48GA002
;CRC=BDDC  CREATED="29-¡.Â.-17 23:27"
