:08180000F210040000000000DA
:08185000D20E040000000000AC
:08187000300F0400000000002D
:08192800900F04000000000014
:081BF8003220EF00630220001F
:101C0000830150000500310083E120000080410085
:101C10001040BA000160EF000000060080E12000E3
:101C200083814100808141001380BA0000000600DA
:101C3000456E5800636F33006465200072202800F1
:101C4000507549006C73430065733200204D2900C4
:101C5000656120007375700072656900206F6E0009
:101C60006E20730041582E0032200D0028490A00D2
:101C700043310D00292C0A00204100003220EF00E2
:101C8000A3E42000008041001040BA000160EF0092
:101C9000000006004C4500004420000030200000F9
:101CA0003A20000043430000572000005B41000041
:101CB00058330000206C0000656100006473000070
:101CC00020410000583200005D2E00000D0A000087
:101CD000000000003220EF0063E720000080410098
:101CE0001040BA000160EF00000006004C45000003
:101CF00044200000312000003A200000435700003B
:101D0000205B000041580000322000006C6500009C
:101D1000616400007320000041580000335D000042
:101D20002E0D00000A0D00000A0000003220EF0016
:101D300023EA2000008041001040BA000160EF005B
:101D40000000060025750000204800007A2C0000E5
:101D50002025000075200000200000003220EF0048
:101D6000A3EB2000008041001040BA000160EF00AA
:101D700000000600435700000D0A000000000000AC
:101D80003220EF00C3EC2000008041001040BA0078
:101D90000160EF000000060043430000570D000003
:101DA0000A0000004200F8003600F8003200F80097
:101DB000801F7800200020000C000900B01F780070
:101DC0001A28EC004001F8001E08F900F4408000D9
:101DD000E34080000300520020A8B7001E08F8006E
:101DE0001C08F9001400200094408800551680005B
:101DF0006380620008A8B7000888BF006100600027
:101E00000AA8B7000A88BF000C88B60080027800D4
:101E10000500E00005003A0010C0B3000EE8B7006E
:101E2000C442A900C482A8000400370020C0B30047
:101E30000EE8B700C482A900C442A8008420A9000B
:101E4000A00120000C0009004F1078004F0078001E
:101E50003200F9003600F9004200F90000400600A7
:101E60004200F8003600F8003200F800801F7800C9
:101E7000200020000C000900B01F78001A28EC0098
:101E80004401F8001E08F900F4408000E34080009F
:101E90000300520020A8B7001E08F8001C08F90033
:101EA0001400200094408800551680006380620072
:101EB00008A8B7000888BF00E202600065408800FB
:101EC0000C28D5000A88BF000C88B6008002780074
:101ED0000500E00005003A0020C0B3000EE8B7009E
:101EE000C482A900C442A8000400370010C0B30097
:101EF0000EE8B700C442A900C482A80084A0A900CB
:101F0000A00120000C0009004F1078004F0078005D
:101F10003200F9003600F9004200F90000400600E6
:101F20004200F8003600F8003200F800801F780008
:101F3000200020000C000900B01F78001028EC00E1
:101F40001A08F8001608F900B4408000A340800089
:101F50000300520018A8B7001608F8001408F9008A
:101F60008780A900A00120000C0009004F10780014
:101F70004F0078003200F9003600F9004200F90005
:101F80000040060081E0A900040E20001402880031
:101F900081E0A800000006000E68EF001028EF00A6
:101FA0001228EF001A28EF001428EF001C28EF0079
:101FB00000000600851F78002CA3EF0005168000A6
:101FC00080FE2F00850260000516880045168000FF
:101FD00030FF2F008502600045168800C442A8002B
:101FE000C482A800CC42A800CC62A800551680008C
:101FF0006380620008A8B7000888BF006100600025
:102000000AA8B7000888BF00E202600065408800A7
:102010000C28D50014082000140A88008420A90088
:102020009420A80014082000340A880084A0A90085
:1020300094A0A8000621EF001021EF000CA1EF00F2
:1020400004002800840888001821EF002021EF00F8
:1020500034422F00E40888000403280004098800A3
:102060008780A9009780A800CF02780000000600B2
:1020700081E0A9004220EF0081E0A80000000600F6
:10208000851F7800C500200003000900B51F7800F7
:10209000800378008404780004F0A1000400E000CC
:1020A00006003A0009F0A7000200370005002000F2
:1020B0000F003700050020000D003700E6425200F7
:1020C0000A0039000003200009F0A60000022000E9
:1020D0002322AF00FEFF370024A2B7008502E900EB
:1020E000FBFF3B0055002000010037008402780010
:1020F0006400200005E0A00009F0A70005F0A000A2
:1021000008712200110009008883D800BA1002006B
:102110000000000081037800883E200011000900C3
:102120008883D800BA100200000000008103780004
:1021300048062000110009008883D800BA10020068
:102140000000000081037800A800200011000900B1
:102150008883D800BA1002000000000000032000AD
:1021600000C040002322AF00FEFF370024A2B700CA
:1021700017003700060320000000E0000E003A00C0
:1021800005E0A6000D0037000402E9000524E10087
:10219000020032004200AF00000006000000E00034
:1021A00005003A0005E0A6000400370005F0A6008F
:1021B000060220000100370005E0A10000404300B6
:1021C0002322AF00FEFF370024A2B7000000060064
:1021D0002501200003000900CF127800CF0278000B
:1021E000000006000F782200F07F220020A0B70038
:1021F0000000000081E0A8006004200042E7B70072
:102200007005200042E7B70042C7A9000010200077
:102210008EA6B700C0F02300A4A6B70000302000AF
:10222000CCA6B7006004200042E7B700700520008C
:1022300042E7B70042C7A8004427EF000400280087
:102240000411880004402000141188002062A800B6
:1022500024022000441188002CA3EF0024822000D7
:1022600034408800A4F52100144188002428EF00A0
:102270000028EF000828EF000A28EF000C28EF00E4
:102280000E68EF001028EF001228EF001428EF006E
:102290001628EF001828EF001A28EF001C28EF007E
:1022A0001E28EF002028EF00010020000100780028
:1022B0000160EF00FC0D0200000000008100E8005A
:1022C0002322AF00FEFF370024A2B70070032000D6
:1022D0000008E600F5FF370001002000010078004B
:1022E0000160EF003E0E0200000000008100E800E7
:1022F0002322AF00FEFF370024A2B700D001200048
:102300000008E600F5FF370001002000010078001A
:102310000160EF006A0E0200000000008100E8008A
:102320002322AF00FEFF370024A2B700E001200007
:102330000008E600F5FF3700C20F020000000000B1
:10234000CC0F020000000000DA0F020000000000C5
:1023500038100200000000001008E2003F003200C8
:102360001028ED00944080006120E10039003A001F
:102370001228EF001888BF0004002000401002005F
:102380000000000021002000010078000160EF0043
:10239000960E0200000000008100E8002322AF003A
:1023A000FEFF370024A2B700600020000008E6000E
:1023B000F5FF37002088BF00040020004010020015
:1023C000000000002322AF00FEFF370004022000BF
:1023D000241188002322AF00FEFF370004022000F2
:1023E00024118800744080006224E1000D003A004E
:1023F00001002000010078000160EF00AE0E020035
:10240000000000008100E8002322AF00FEFF37003B
:1024100024A2B700300020000008E600F5FF3700D6
:102420000C00370001002000010078000160EF007F
:10243000C00E0200000000008100E8002322AF006F
:10244000FEFF370024A2B700400020000008E6008D
:10245000F5FF3700C442A800C482A800BEFF3700C1
:042460000040FE003A
:020000040001F9
:0807F800C7F900FF7F3F00FF7D
:00000001FF
;PIC24FJ48GA002
;CRC=711F  CREATED="29-¡.Â.-17 23:32"
