:08180000921C0400000000002E
:08188800EE1104000000000055
:10192000220E0400000000005C0F04000000000014
:081BF8003220EF0083E0200021
:101C0000008041001040BA000160EF0000000600B3
:101C1000653A000020250000642C000020750000BB
:101C20003A20000025640000202C000050750000C0
:101C30006C730000653A000020250000640D000070
:101C40000A0000004200F8003600F8003200F800F8
:101C5000801F7800200020000C000900B01F7800D1
:101C6000151680007480620018A8B70014002000C8
:101C70000960EF000888BF00514080000402E800BE
:101C80000402E900030032000000D0008180D2008D
:101C9000FBFF3700C4822000840240001888BF0088
:101CA000640360004230DE00800A78002C88BF00A8
:101CB0002E08E30028003A002E88BF003008E30019
:101CC00025003A00140020000960EF000888BF00DA
:101CD000514080000402E8000402E90003003200E1
:101CE0000000D0008180D200FBFF3700C4822000BA
:101CF00004004000901F78002408F9002488BF00E9
:101D00001C08E300140032002408F8001C08F90045
:101D100014002000544288001C88BF001E88B600B2
:101D2000800278000500E00006003A005828EC0028
:101D30004220AF005A28EC0020C0B30045E8B700AD
:101D4000050037005828ED004200AE005A28ED008B
:101D500010C0B30045E8B7000828EC004220AF00EF
:101D60000A28EC00444080006320E10004003A00AF
:101D70000A08E20002003A000828EF000A28EF00F3
:101D8000140020000960EF000C88BF007140800043
:101D90000402E8000402E900030032000000D00061
:101DA0008180D200FBFF37002483200084024000A2
:101DB0001888BF00700360004430DE00800A78009D
:101DC0003288BF003408E30028003A003488BF009E
:101DD0003608E30025003A00140020000960EF00F7
:101DE0000C88BF00714080000402E8000402E90092
:101DF000030032000000D0008180D200FBFF3700DA
:101E00002483200004004000901F78002608F90079
:101E10002688BF001E08E300140032002608F800E0
:101E20001E08F90014002000544288001C88BF00DE
:101E30001E88B600800278000500E00006003A0027
:101E40005828ED004200AE005A28ED0010C0B30043
:101E500045E8B700050037005828EC004220AF00E5
:101E60005A28EC0020C0B30045E8B7000C28EC006D
:101E70004220AF000E28EC00644080006320E100A7
:101E800004003A000E08E20002003A000C28EF00BD
:101E90000E28EF008760A900A00120000C000900B7
:101EA0004F1078004F0078003200F9003600F9003A
:101EB0004200F900004006004200F8003600F80039
:101EC0003200F800801F7800200020000C0009007C
:101ED000B01F7800551680006C8062001AA8B70009
:101EE000140020000960EF001088BF0091408000BE
:101EF0000402E8000402E900030032000000D00000
:101F00008180D200FBFF37008483200084024000E0
:101F10001A88BF00640360004230DE00800A780047
:101F20003888BF003A08E30028003A003A88BF002A
:101F30003C08E30025003A00140020000960EF008F
:101F40000888BF00514080000402E8000402E90054
:101F5000030032000000D0008180D200FBFF370078
:101F60008483200004004000901F78002808F900B6
:101F70002888BF002008E300140032002808F80079
:101F80002008F90014002000544288002088BF0077
:101F90002288B600800278000500E00006003A00C2
:101FA0006828EC004220AF006A28EC0020C0B30093
:101FB00046E8B700050037006828ED004200AE0093
:101FC0006A28ED0010C0B30046E8B7001028EC0006
:101FD0004220AF001228EC00844080006320E10022
:101FE00004003A001208E20002003A001028EF0054
:101FF0001228EF00140020000960EF001488BF00D1
:10200000B14080000402E8000402E900030032004D
:102010000000D0008180D200FBFF3700E483200065
:10202000840240001A88BF00680360004330DE006D
:10203000800A78003E88BF004008E30028003A008C
:102040004088BF004208E30025003A001400200049
:102050000960EF001488BF00B14080000402E8006E
:102060000402E900030032000000D0008180D200A9
:10207000FBFF3700E483200004004000901F78003D
:102080002A08F9002A88BF002208E3001400320061
:102090002A08F8002208F9001400200054428800A1
:1020A0002088BF002288B600800278000500E0008A
:1020B00006003A006828ED004200AE006A28ED00F4
:1020C00010C0B30046E8B700050037006828EC00F0
:1020D0004220AF006A28EC0020C0B30046E8B700F9
:1020E0001428EC004220AF001628EC00A440800029
:1020F0006320E10004003A001608E20002003A0002
:102100001428EF001628EF008780A900A001200006
:102110000C0009004F1078004F0078003200F900E1
:102120003600F9004200F90000400600861F7800E2
:10213000871F7800881F7800891F78000002EB0055
:102140008002EB000003EB008003EB000304690056
:1021500011003200080220004200A9000080D200D5
:102160008180D2000482D2008582D2000328E1005F
:1021700001003A0002A0E10003003900020252000F
:1021800083825A004200A8000683D2008783D200CF
:102190000804E900F0FF3A008700780006007800A4
:1021A000CF0478004F047800CF0378004F03780005
:1021B00000000600851F7800C50020000700090008
:1021C000B51F780001F0A600070037000000EA0004
:1021D0000100320002003A008100EA0001003700ED
:1021E0008180EA000480A0008002EB0000037800F8
:1021F000810378000406780004F0A1000404E000E4
:1022000001003A0018003700EB4252001600390076
:10221000054252000CF0A6000B0037000480A60017
:1022200007003700D00220002322AF00FEFF370056
:1022300024A2B7000480A1008502E9000A0033004F
:102240000003200001003700000220002322AF001D
:10225000FEFF370024A2B7008502E900FBFF3B0028
:102260000480A7000442E900E800200009002000E3
:102270001000FA000C377C000884E900FDFF3B00E9
:1022800084027800A40020000580A7000402E80072
:1022900005E0A0000CF0A70005F0A0000504E00098
:1022A000010032008542E900040F7800150798000C
:1022B000060078008700780002A02C00A3B9230054
:1022C000087122000DF0A1004300A9009610020041
:1022D000000000000DF0A2000DF0A700070037007D
:1022E00040079800510798000001780081017800AC
:1022F0002E009000BE009000F3FF370042079800C8
:102300005307980024079800350798001E027800AC
:102310009E029000060320000000E00011003A0039
:1023200005E0A600110037000402E900040F780060
:102330000400E0000D0032000524E100020032003C
:102340004200AF001800370005F0A6000300370078
:102350000580A600100037000700370006022000A5
:102360000D00370005E0A100150798009E029000BF
:102370000580A600080037000580A1001507980019
:1023800000057800D00220002322AF00FEFF3700B6
:1023900024A2B7000A007800004043002322AF00C7
:1023A000FEFF370024A2B7004E009000DE00900030
:1023B000A20020008001EB006100E100010032007A
:1023C000C1FF37000080FA00A501200007000900C6
:1023D000CF127800CF027800000006004200F8001B
:1023E0003600F8003200F800801F7800200020003E
:1023F0000C000900B01F78004828EC005808F800CD
:102400005008F9005A08F8005208F9008442800088
:10241000634280000300520054A8B7009442800039
:102420007342800003005A0056A8B7005008F80015
:102430004C08F9005208F8004E08F9006808F80046
:102440006008F9006A08F8006208F9000443800097
:10245000E34280000300520064A8B70014438000E8
:10246000F342800003005A0066A8B7006008F80035
:102470005C08F9006208F8005E08F9002322AF004A
:10248000FEFF370054062000241188002322AF00ED
:10249000FEFF3700A4032000241188002322AF0090
:1024A000FEFF370004022000241188007088BF005E
:1024B0009143800004002000DA10020000000000B8
:1024C00051002000010078000160EF00FC0D0200C7
:1024D000000000008100E8002322AF00FEFF37006B
:1024E00024A2B700900020000008E600F5FF3700A6
:1024F0006C88BF007143800004002000DA100200E5
:1025000000000000C1002000010078000160EF0021
:10251000FC0D0200000000008100E8002322AF0053
:10252000FEFF370024A2B700400120000008E600AB
:10253000F5FF37005888BF00D1428000040020001A
:10254000DA100200000000002322AF00FEFF370077
:10255000D4002000241188002322AF00FEFF3700A2
:10256000A4002000241188008500A900A0012000FB
:102570000C0009004F1078004F0078003200F9007D
:102580003600F9004200F9000040060081E0A90091
:10259000040E20001402880081E0A800000006005C
:1025A0004A28EF004828EF000828EF000A28EF002B
:1025B0000C28EF000E28EF001028EF001228EF0083
:1025C0001428EF001628EF004568EF004668EF007A
:1025D0005828EF005A28EF004C28EF004E28EF0053
:1025E0006828EF006A28EF005C28EF005E28EF0003
:1025F0004768EF007828EF007A28EF008028EF0086
:102600008228EF007C28EF007E28EF009028EF0062
:102610009228EF009828EF009A28EF009428EF0006
:102620009628EF00A028EF00A228EF000000060087
:10263000851F78002CA3EF000516800070F12F0095
:10264000850260000516880045168000F0F02F0016
:1026500085026000451688001516800074806200AF
:1026600018A8B700551680006C8062001AA8B70041
:102670001888BF00E4026000E54088001C28D500EF
:102680001C28D5001888BF00F00260004428DE0036
:102690001EA8B7001A88BF00E40260000541880048
:1026A0002028D5002028D5001A88BF00E802600045
:1026B000154188002228D5002228D5002228D500DF
:1026C0001421EF001E21EF00341F2000D4088800E1
:1026D00004002800F40888008760A9009760A8001B
:1026E0001821EF002021EF00341F2000E4088800AB
:1026F00004002800040988008780A9009780A800AA
:102700000A21EF001221EF0014A1270074088800AD
:1027100004032800940888008500A9009500A800FB
:10272000A008F8008201F900A008F8008001F90073
:1027300064002000240C8800A208F8008801F90039
:10274000A208F8008601F90064002000540C8800FB
:102750000621EF001021EF00743E2000640888007D
:102760000400280084088800CF02780000000600DA
:1027700081E0A9004220EF0081E0A80000000600EF
:10278000851F7800C500200003000900B51F7800F0
:102790000202B8000303B8004200A900850243000A
:1027A00060844B00020BB80085024B0008844B008C
:1027B000030BB800080443000780B00087017800CD
:1027C00008017800850078000400780025012000C9
:1027D00003000900CF127800CF0278000000060045
:1027E000851F7800C500200003000900B51F780090
:1027F00000027800810278000203780083037800E9
:102800000000EB008000EB000001EB008001EB001A
:102810000800A10007F0A600050037000800A0008E
:102820000402EA008582EA000683EA008783EA0060
:102830008504720002003A0087047300150032001C
:10284000394720000340A7000B0037004200A900D1
:102850000482D2008582D2000683D2008783D20010
:102860000080D2008180D2000281D2008381D20018
:102870008904E900F3FF3A00C44CDD004200A900DE
:1028800009F0A1000340A10083816C000800A700AB
:1028900003F0A0002501200003000900CF127800FA
:1028A000CF02780000000600881F78002801200071
:1028B00004000900B81F78008786690003047800C7
:1028C00087047800FA7F20004200A9004220A90076
:1028D00044C4DE00080465000800E0006C0032001B
:1028E0004200A9004220A900C4CCDE008904650092
:1028F0000900E000660032000005EB000906540004
:1029000003003900FC3FB0006100310004003700D3
:102910001B4020000B0656005D0039005C003200B1
:102920000004EB008004EB000005EB008005EB00E9
:10293000F301B2000340A000F701B2000740A0007D
:102940008C1F78006C032000040050008580580024
:10295000060159008781590002003300060031004A
:1029600006003A0004004000858048000601490046
:1029700087814900010037000800A0000C06E9002B
:102980000B0032004200A9000080D2008180D200FA
:102990000281D2008381D2004200A9000884D200C3
:1029A0008984D2000A85D2008B85D200E6FF3700E9
:1029B0004F0678000B50A7000100370006003700D3
:1029C0004200A9008B85D3000A85D3008984D300F7
:1029D0000884D300030037000C06E9004200A90078
:1029E0002B0032004200AF00090037000080D20007
:1029F0008180D2000281D2008381D2000402500083
:102A00008582580006035900878359001500390054
:102A10000804E80013003A008904E80011003A00B5
:102A20000A05E8000F003A008B05E8000D003A00A7
:102A30000C06E800160032000A0037000C06E90018
:102A4000130032000B40A700060037004200A90027
:102A50000884D2008984D2000A85D2008B85D200F6
:102A6000F8FF37004466DD004200A9000CF0A10029
:102A70000DF0A7000CF0A0000B40A1008B016E0030
:102A80000A01780089007800080078000500370006
:102A900000002000010020000200200003002000B0
:102AA00000003700A8012000040009004F1478003E
:102AB0004F04780000000600851F7800C500200044
:102AC00005000900B51F7800030478008203780030
:102AD0000103780080027800830478003B472000DF
:102AE000C499DE00FA7F20008301650083855500CC
:102AF000F801B2000840A0000000EB008000EB00ED
:102B00000001EB008001EB004200A9000884D30023
:102B10008783D3000683D3008582D3008381D300CB
:102B20000281D3008180D3000080D3008B05E900AF
:102B3000F5FF3A0009F0A600050037000000EA00A2
:102B40008180EA000281EA008381EA000000370008
:102B50006501200005000900CF127800CF0278003F
:102B600000000600851F7800C50020000300090052
:102B7000B51F78008004EB00080028004300AF0078
:102B800083016C000000E00003003A00FAFF270018
:102B90000A8560004220AE00010578008A85690040
:102BA0000103780083037800030678004220A9001F
:102BB0004200A9000683D2000680FD00F60FB20095
:102BC0000600E000A10032004220A9004200A90056
:102BD0008783D2000780FD00F70FB2000700E000F6
:102BE0009F0032004220A9004200A9000638E100FF
:102BF0009C003200A30033000900A1000910A000CE
:102C00000684530007037800F10FB2000170A000A2
:102C1000F30FB2000370A000870220000838E10023
:102C2000110033004220A9004200A9008180D30096
:102C30000080D3000804E900FAFF3A000D003700D5
:102C4000870220000838E100090033004220A90073
:102C50004200A9008381D3000281D3000804E90067
:102C6000FAFF3A000F003700020078008300780076
:102C7000430037000BF0A600110037000940A70001
:102C80008C0578000000EA000200320081C0EA00F2
:102C9000010037008100EA000940A7002B0037003F
:102CA000070037000BF0A600050037000201EA001C
:102CB0000200320083C1EA00010037008301EA000C
:102CC000F50FB2004220A9004200A9000200400016
:102CD00083C048004200AF000930A0000900A700EF
:102CE000090037000910A700010037000B0037006A
:102CF0000BF0A700150037000930A70029003700A6
:102D00000960A0001E0037000BF0A7000F0037007D
:102D10000930A70023003700190037000920A1005F
:102D20000BF0A700040037008A0578000930A700DF
:102D30001C003700360037000940A00001C8B2006F
:102D40000170A700CDFF37008A057800F10FB200AF
:102D5000810370000A0032000170A70008003700EC
:102D60004220A9004200A9000080D2008180D20048
:102D70000603E9004220AF0031003700F6FF3700BC
:102D80000900A7008A0578000910A7008C057800C3
:102D90000950A6001A0037000AF0A7000080A00022
:102DA0001B0037004200A80081C0D3000080D30080
:102DB0004200AF000950A0000603E80020003200E6
:102DC0000950A600080037000000E80006003A009D
:102DD0008140E80004003A0081C0D3000080D300A5
:102DE0000603E800160032000900A7008A057800F3
:102DF0000910A7008C0578004220AF0010003700B2
:102E00000960A7008A0578000970A7008C05780082
:102E100001017000230032000170A1000680FD0056
:102E20004220A9004200A9000683D30081006B0064
:102E300001F0A0000BF0A60001F0A100190037007E
:102E40000000200001002000160037000AF0A70053
:102E500083016C00020078008300780011003700C5
:102E600010003700F30FB2000370A000F10FB200A2
:102E70000170A0000BF0A7000370A1000920A000C2
:102E800088FF370007045300F10FB2000170A00063
:102E9000F30FB2000370A0000910A1000900A00008
:102EA00067FF37002501200003000900CF127800DA
:102EB000CF02780000000600851F7800861F78008A
:102EC00000027800810278000000EB008000EB0037
:102ED0000600A10005F0A600060037000600A000CD
:102EE0000402EA00020032008582EA000100370095
:102EF0008502EA0085017200130032000001EB0038
:102F0000610B20000270A700070037004200A900F3
:102F10000482D2008582D2000080D2000281D200D9
:102F20008100E900F7FF3A000180FD004200A9009E
:102F30008180D30001F0A1000270A10081406900EE
:102F40000600A70001F0A0004F037800CF02780030
:102F500000000600851F7800C5002000040009005D
:102F6000B51F7800000278008102780083037800A2
:102F7000020378004200A9004220A9008180D2000B
:102F80000180FD00F10FB2000100E0004B003200B3
:102F90004200A9004220A9008381D2000380FD00E5
:102FA000F30FB2000300E000440032000080FB0099
:102FB00001C0410004003100F007B1003F003200C1
:102FC0003E003900020037001048B0003B003100DD
:102FD00007856A004200A9004220A900F50FB2004F
:102FE0000570A0004200A900F70FB2000770A00012
:102FF0000621B800062CB80083014C008900780037
:103000004200AF008100E8004200A900043CB80083
:1030100083014C0081804C00072CB80081004C00DB
:103020000000E8000100E0004220AF00010037008E
:10303000030037000300E0004220AF000500370026
:1030400001F0A700030037008381D2008180D20005
:103050000000E900010178004200A9000370A60009
:103060000900370007F02F00878161000310B000CE
:10307000600149000200E00003003A000300E000A4
:1030800001003A000000E8000080FD004200A900B5
:103090004220A9008080D3000AF0A70001F0A00020
:1030A00002F0A1000280FD00814069000380FD0064
:1030B0000341780002007800030037000000200080
:1030C0000100200000003700450120000400090035
:1030D000CF127800CF02780000000600851F78002C
:1030E0008102780000017800640B20008180D2000A
:1030F0000180FD00F10FB2000142520085417800CD
:103100000370A000F30FB2000000EB008000EB00A2
:103110007F20E1000F0033004200A9008381D3002B
:103120000281D3008180D3000080D3000402E90033
:10313000F9FF3A0005F0A600060037000000EA009B
:10314000020032008180EA00020037008100EA00BC
:1031500000003700CF02780000000600A44780007E
:103160006020E10006003C00030035009447800029
:103170006020E10002003100F228EF00F428EF00A7
:10318000A44780006020E1000800350004003C00F6
:1031900094478000833E20000418E10003003100C2
:1031A000843E200094478800F428EF00F0C8BF0058
:1031B0000160EF001080B200050032003080B200E4
:1031C000190032001080B2002D00320036003700A6
:1031D000F208F800A008F900F1C8BF000160EF0094
:1031E0001080B200050032003080B20006003200CC
:1031F0002080B2000700320008003700CC82A8000F
:10320000CCA2A90005003700CC82A900CCA2A8005E
:1032100002003700A028EF0000003700A008F800E7
:103220008001F90020003700F208F800A208F90038
:10323000F1C8BF000160EF001080B200050032004D
:103240003080B200060032002080B2000700320059
:1032500008003700CCC2A800CCE2A9000500370066
:10326000CCC2A900CCE2A80002003700A228EF00DF
:1032700000003700A208F8008601F9000A003700B4
:10328000F1C8BF000160EF001080B20003003200FF
:103290003080B20002003200020037000100370027
:1032A000000037000000370000000600851F78008E
:1032B000861F7800871F7800881F7800C0C8BF006D
:1032C0000160EF001080B200030032003080B200D5
:1032D0009C003200360137003446800013468000DF
:1032E0000300520070A8B7004446800023468000C7
:1032F00003005A0072A8B7004300A900CA88BF00A3
:10330000614680007246800083468000B21502004C
:103310000000000080027800010378004300A9004B
:10332000050078008600780092468000A346800061
:10333000B21502000000000080027800010378004E
:103340007088BF00914380005C17020000000000FD
:10335000000178008101780005007800860078007F
:10336000AA17020000000000800278000103780024
:10337000000020000100240092468000A346800047
:10338000AA170200000000004300A9000001780015
:1033900081017800CA88BF0061468000B215020032
:1033A0000000000080037800010478008088BF00DE
:1033B000114480005C17020000000000000178004A
:1033C000810178000700780088007800AA170200C1
:1033D000000000004300A80000017800810178008F
:1033E0000500780086007800B21502000000000099
:1033F00080027800010378007C88BF00F1438000E0
:103400005C170200000000000001780081017800D4
:10341000D288BF00A1468000AA1702000000000069
:103420004300A900000178008101780005007800C0
:1034300086007800B2150200000000006E1802003D
:103440000000000074A8B700B14388007888BF006E
:103450007408B4006CA8B700B4438000D343800064
:10346000048049006EA8B700744380006020E1002A
:103470000F00350003003C00644380006020E10041
:103480000B003900C0C8BF00F0E8B70020C0B3008F
:10349000F1E8B7006C08F800F208F9006E08F800CF
:1034A000F408F900AE180200000000001800370010
:1034B0006C88BF007143800001F0A6000600370051
:1034C0000400200063438000030052000400200039
:1034D0007343800083005A00800278000103780063
:1034E000801F7800C0C8BF00F0E8B7004F00780028
:1034F000801F780010C0B300F1E8B7004F007800DB
:1035000095478800A6478800AE180200000000001A
:103510006C08F8007808F9006E08F8007A08F900DD
:103520008008F8007C08F9008208F8007E08F9009D
:103530007008F8008008F9007208F8008208F900A5
:103540009B00370034468000134680000300520081
:1035500088A8B700444680002346800003005A0034
:103560008AA8B7004300A900CA88BF00614680004E
:103570007246800083468000B21502000000000001
:1035800080027800010378004300A900050078005C
:103590008600780092468000A3468000B2150200A3
:1035A0000000000080027800010378008888BF00D6
:1035B000514480005C170200000000000001780008
:1035C000810178000500780086007800AA170200C3
:1035D0000000000080027800010378000000200055
:1035E0000100240092468000A3468000AA17020032
:1035F000000000004300A90000017800810178006C
:10360000CA88BF0061468000B215020000000000B9
:1036100080037800010478009888BF00D1448000BE
:103620005C170200000000000001780081017800B2
:103630000700780088007800AA1702000000000048
:103640004300A8000001780081017800050078009F
:1036500086007800B21502000000000080027800A9
:10366000010378009488BF00B14480005C17020019
:10367000000000000001780081017800D288BF00BE
:10368000A1468000AA170200000000004300A90024
:10369000000178008101780005007800860078003C
:1036A000B2150200000000006E18020000000000C9
:1036B0008CA8B700714488009088BF008C08B400C3
:1036C00084A8B700744480009344800004804900BB
:1036D00086A8B700344480006020E1000F00350068
:1036E00003003C00244480006020E1000B0039000E
:1036F000C0C8BF00F0E8B70020C0B300F1E8B700D1
:103700008408F800F208F9008608F800F408F900C7
:10371000AE18020000000000180037008488BF00C7
:103720003144800001F0A6000600370004002000AC
:103730002344800003005200040020003344800032
:1037400083005A008002780001037800801F78000F
:10375000C0C8BF00F0E8B7004F007800801F7800B5
:1037600010C0B300F1E8B7004F007800954788001B
:10377000A6478800AE180200000000008408F80088
:103780007808F9008608F8007A08F9009808F80027
:103790007C08F9009A08F8007E08F9008808F8000B
:1037A0008008F9008A08F8008208F9000000370054
:1037B0004F047800CF0378004F037800CF027800E1
:1037C00000000600851F7800861F7800871F78009C
:1037D000B288BF00A1458000C20020000300200085
:1037E000C01302000000000080027800010378008E
:1037F000240020000960EF000402E8000402E90050
:10380000030032008502D0000683D200FBFF3700A0
:10381000640020000960EF000402E8000402E900EF
:10382000030032008502D0000683D200FBFF370080
:1038300005007800860078000200200003002000C8
:10384000F013020000000000851F7800861F78003A
:10385000040020000500200006002A00370524008F
:1038600054140200000000004F037800CF027800DB
:103870005C150200000000009CA8B700F14488001D
:10388000B0C8BF000160EF001080B200030032003A
:103890003080B200060032000A0037005808F800F5
:1038A000B608F9005A08F800B808F9000500370012
:1038B0006808F800B608F9006A08F800B808F900C6
:1038C00000003700B0C8BF00C0E8B700B608F80075
:1038D000C208F900B808F800C408F9009C08F8000C
:1038E000C608F9009E08F800C808F900CA28EF00C9
:1038F000841C240064468800CE28EF00D028EF0006
:10390000D228EF00D428EF00561902000000000072
:103910000020EF00CF0378004F037800CF0278003B
:10392000000006000F782200F07F220020A0B700E0
:1039300000000000404424008005880081E0A800C9
:103940006004200042E7B7007005200042E7B7009E
:1039500042C7A900C0F02300A4A6B700203121006F
:10396000C0A6B70000302000CCA6B700600420003D
:1039700042E7B7007005200042E7B70042C7A80041
:103980004427EF00040028000411880004402000B0
:10399000141188002062A80024022000441188002D
:1039A0004828EF00A468EF002CA3EF0064902000EB
:1039B0003440880064E72100344888000829EF007B
:1039C000140037008002080000000000C04008001A
:1039D0000800C0005A084A00000000000201E80088
:1039E0006110E10004003A009101BA003182BA008E
:1039F00006C0BF00000006006210E10002003A00AD
:103A000007C0BF000000060008C0BF000001EB00B7
:103A10000000060006002000000020009001880041
:103A200020CE2100800078000001EB00EE1C020097
:103A3000000000000BE0B700EE1C020000000000D8
:103A40000AE0B7000500E0001900320005F0A6000A
:103A500007003700EE1C0200000000000DE0B70078
:103A6000EE1C0200000000000CE0B70005F0A10011
:103A700005E0A6000800370005E0A1008502E90086
:103A8000EE1C020000000000804378000580090061
:103A9000075B7800E5FF3700EE1C02000000000025
:103AA000005B78008502E900FBFF3A00DFFF37008A
:103AB000C612020000000000D01202000000000048
:103AC0001813020000000000B813020000000000FC
:103AD0001400200034458800A828EF0014002000BE
:103AE00054458800AC28EF00A4C8BF000160EF0077
:103AF0000080B200030032001080B20009003200E2
:103B00000F00370010C0B300B0E8B7004406200033
:103B100094458800B428EF00E21B0200000000007A
:103B20000700370010C0B300B0E8B700B228EF00BC
:103B3000B428EF00E21B0200000000000000370084
:103B40007088BF009143800001F0A6000600370096
:103B50000400200083438000030052000400200082
:103B60009343800083005A008002780001037800AC
:103B70006030E10018003C00020035006528E100DB
:103B8000150031008888BF005144800001F0A60074
:103B90000600370004002000434480000300520068
:103BA000040020005344800083005A008002780003
:103BB000010378006030E10007003C00020035009E
:103BC0006528E10004003100A468EC00A4C8BF002F
:103BD00061406000A4E8B700C3FF37000040FE006A
:020000040001F9
:0807F800C7F900FF7F3F00FF7D
:00000001FF
;PIC24FJ48GA002
;CRC=7AF5  CREATED="03-Nov-17 22:07"
