:08000000D0050400000000001F
:04000C00080C0000DC
:100010000C0C0000100C0000140C0000180C000068
:100020001C0C0000200C0000240C0000280C000018
:100030002C0C0000300C0000340C0000380C0000C8
:100040003C0C0000400C0000440C0000480C000078
:100050004C0C0000500C0000540C0000580C000028
:100060005C0C0000600C0000640C0000680C0000D8
:100070006C0C0000700C0000740C0000780C000088
:100080007C0C0000800C0000840C0000880C000038
:100090008C0C0000900C0000940C0000980C0000E8
:1000A0009C0C0000A00C0000A40C0000A80C000098
:1000B000AC0C0000B00C0000B40C0000B80C000048
:1000C000BC0C0000C00C0000C40C0000C80C0000F8
:1000D000CC0C0000D00C0000D40C0000D80C0000A8
:1000E000DC0C0000E00C0000E40C0000E80C000058
:1000F000EC0C0000F00C0000F40C0000F80C000008
:10010000FC0C0000000D0000040D0000080D0000B4
:100110000C0D0000100D0000140D0000180D000063
:100120001C0D0000200D0000240D0000280D000013
:100130002C0D0000300D0000340D0000380D0000C3
:100140003C0D0000400D0000440D0000480D000073
:100150004C0D0000500D0000540D0000580D000023
:100160005C0D0000600D0000640D0000680D0000D3
:100170006C0D0000700D0000740D0000780D000083
:100180007C0D0000800D0000840D0000880D000033
:100190008C0D0000900D0000940D0000980D0000E3
:1001A0009C0D0000A00D0000A40D0000A80D000093
:1001B000AC0D0000B00D0000B40D0000B80D000043
:1001C000BC0D0000C00D0000C40D0000C80D0000F3
:1001D000CC0D0000D00D0000D40D0000D80D0000A3
:1001E000DC0D0000E00D0000E40D0000E80D000053
:1001F000EC0D0000F00D0000F40D0000F80D000003
:100400003220EF00C3202000008041001040BA00DD
:100410000160EF00000006000D0A000052650000B8
:100420007365000074740000696E000067200000AE
:100430004D430000552E00002E2E00002E2E0000F1
:10044000000000003220EF00E32220000080410085
:100450001040BA000160EF00000006000D0A000025
:10046000426F00006F7400006C6F00006164000058
:10047000657200002056000065720000736900007C
:100480006F6E0000203100002E320000202D000091
:100490002052000065610000647900000D0A000030
:1004A000000000003220EF00E32520000080410022
:1004B0001040BA000160EF00000006000D0A0000C5
:1004C000557300006572000020410000707000004C
:1004D0006C69000063610000746900006F6E0000C9
:1004E0002069000073200000727500006E6E00002D
:1004F000696E0000672E00002E2E00000D0A00001D
:100500000D0A0000000000004200F8003600F8006C
:100510003200F800801F7800200020000C00090045
:10052000B01F7800A00120000C0009004F107800D7
:100530004F0078003200F9003600F9004200F9005F
:1005400000400600C9A2A900CDA2A9008300200096
:1005500086000900000000008CE8D7004200AF00D0
:10056000CDA2A8004200AE00CDA2A90081000900E2
:10057000000000008301E900F7FF3A00CDA2A800C7
:10058000880009000000000000000600C982A800E1
:10059000CB82AF00FEFF3700830020000001EB009C
:1005A0002C0009000000000082000900000000008B
:1005B0004200A900CB82AF004200A80002C1D300D4
:1005C0008301E900F8FF3A008900090000000000FB
:1005D0000200780000000600851F78009468EF0094
:1005E0009568EF00A44480004822DE006224E10008
:1005F000200031009288BF00140420001024E10084
:100600000D003C0094C8BF000160EF00C402DD0093
:100610009288BF0000027800144078000000FB00C0
:10062000850240001504B100EA824200050078000E
:1006300094E8B7000B00370094C8BF000160EF00DA
:10064000C402DD009288BF000002780014407800E8
:100650000000FB00850240000403200004805200DB
:1006600094E8B70095C8BF009568EC009228EC00AC
:10067000DCFF370094C8BF0000E0B700CF0278006D
:10068000000006004200F800801F780081E0A90009
:1006900014028000040EB3001402880081E0A80058
:1006A000013B880054052000343B8800A40A200048
:1006B000343B880061E7A800000000000000000053
:1006C0004F00780081E0A9004200F90081E0A80015
:1006D00000000600851F7800C50020000300090007
:1006E000B51F78000300A1000310A1000300E00083
:1006F000340032000000A1000200A1009101880036
:1007000080007800F4FF2F00F00720000100600057
:1007100008003200811F7800C708DE00C708DD002E
:100720008408BB008498BB0062005000FCFF3A00C4
:10073000CF007800F03F20000100600006003A0082
:100740008008BB00811F78002104240042030200BE
:1007500000000000CF007800B208BB00B298BB00D8
:100760000100E0004220AF003220EC00F007200042
:100770000080600005003A00811F7800110024000D
:100780004203020000000000CF007800E481510025
:10079000E8FF3A00F0072000008060000900320006
:1007A000F4FF2F008408BB008498BB00F0072000F2
:1007B00000806000FBFF3A001100240042030200A9
:1007C000000000002501200003000900CF1278007E
:1007D000CF02780000000600851F7800861F780091
:1007E0000228A9000828EF001028EF000228AF0017
:1007F000CE0037003228EF00448320009341800070
:1008000084824100C602020000000000804A780095
:100810003288BF003228EC00800278004483200038
:1008200004804200104278006D24E100050032008F
:1008300094418000030420000418E1000100390005
:10084000EDFF370030C1B3008CE8B700A202020010
:10085000000000000208A800A4418000A4C3B20068
:10086000A9003A005483200094448800EC0202005E
:100870000000000010E8B7001168EF00748320004A
:1008800094448800EC0202000000000080427800DE
:100890009483200094448800EC02020000000000D1
:1008A000004378000608F800E6FF9F000608F900FC
:1008B0000540780007E8B700B4832000944488001E
:1008C000EC0202000000000004E8B700464080008F
:1008D0003540800055408800664088000C28D500CF
:1008E0000AA8D7000368EF0010C0B3000EE8B700F5
:1008F0009441800063005200744080000960EF0062
:100900000020E1000F003100744080000960EF001A
:10091000438320008302420095448800EC020200D9
:100920000000000080427800054078000368B400B1
:100930007440800062424200044078000EE8B70034
:10094000EBFF3700144080004822DE00F30F200048
:1009500084825100E1C242000540780003E8B700FC
:1009600094418000E302520044832000048342004B
:1009700096448800EC020200000000000348E300F7
:10098000020032000208A900540037002440800011
:100990006124E10002003A000228A8004F0037005D
:1009A000244080006424E10010003A00D483200039
:1009B00094448800EC0202000000000080427800AD
:1009C000F483200094448800EC0202000000000040
:1009D000004378000808F800E6FF9F000808F900C7
:1009E0000540780009E8B7003C0037000448E20001
:1009F0003A003A00644080006020E1000D003500BC
:100A000004003C005440800003C020000418E100B2
:100A100008003E00644080006020E1002F003900A3
:100A200004003E0054408000F3BF20000418E100A1
:100A30002A003100644080006020E10027003E0071
:100A40000400390054408000C33F28000418E1002E
:100A50002200360090C0B3000EE8B7000568EF0032
:100A60009441800063005200744080000960EF00F0
:100A70000020E1001300310005C8BF000568EC004C
:100A80000080FB000160EF00248120008402400010
:100A9000744080000960EF0043832000030342009C
:100AA00096448800EC02020000000000804A7800B2
:100AB0007440800062424200044078000EE8B700B3
:100AC000E7FF37000A88BF006140800022812000D4
:100AD000834080006A030200000000000208AE00AC
:100AE0000400370060C0B3008CE8B700A202020027
:100AF0000000000010C1B3008CE8B700A2020200A1
:100B0000000000000800370060C0B3008CE8B700A8
:100B1000A20202000000000010C1B3008CE8B70080
:100B2000A20202000000000030FF370060C0B300E6
:100B30008CE8B700A20202000000000010C1B30060
:100B40008CE8B700A20202000000000001002000B3
:100B5000010078000160EF000002020000000000C8
:100B60008100E800811F78008CE8B700A202020033
:100B700000000000CF007800300120000008E600EF
:100B8000F3FF37000000FE004F037800CF0278002B
:100B900000000600EC030200000000000000060058
:100BA0000F782200F07F220020A0B7000000000094
:100BB00081E0A800C9A2A900CDA2A8002CA3EF0043
:100BC000C062A800C262AF00100037000100200020
:100BD000010078000160EF00220202000000000026
:100BE0008100E800811F78008CE8B700A2020200B3
:100BF00000000000CF007800100220000008E6008E
:100C0000F3FF3700CA0502000000000001002000C9
:100C1000010078000160EF005202020000000000B5
:100C20008100E800811F78008CE8B700A202020072
:100C300000000000CF007800300220000008E6002D
:100C4000F3FF3700000C0200000000000040FE002F
:08180000FFFF370000000600A5
:020000040001F9
:0807F800C7F900FF7F3F00FF7D
:00000001FF
;PIC24FJ48GA002
;CRC=467C  CREATED="24-Oct-16 11:09"
