:081800007E140400000000004A
:1018A0007210040000000000BA11040000000000E3
:081BF800851F7800861F7800AC
:101C0000871F7800200020000A09B40090027800A5
:101C1000000020000A09B4000002780014007800D7
:101C20000028E10004003A007548800010C0B300AD
:101C3000804A780023003700200020000A09B40001
:101C400080027800950AE800800020000A09B400AC
:101C500090027800400020000A09B40010037800C8
:101C60004133DD008683420064488000840398008D
:101C7000400020000A09B40080027800950AE800BC
:101C8000400020000A09B400900278000000200003
:101C90000A09B40000027800140078000028E1006E
:101CA00006003A00400020000A09B40080027800D3
:101CB000804AEB0000C0B300904298007548800055
:101CC000804AEB00CF0378004F037800CF02780002
:101CD00000000600851F7800000020003609B400CF
:101CE00080027800C449800084029800CF02780006
:101CF00000000600851F78000608F8003609F90084
:101D0000200020003609B40090027800A449800029
:101D10000520E10005003200200020003609B40053
:101D2000901F78003609F900F5FF370020002000E9
:101D30003609B40080027800200020003409B40085
:101D4000900A78003429EF00CF02780000000600E6
:101D5000851F7800861F78000608F8001C09F90026
:101D60001C09E20036003200000020001C09B4000B
:101D70009002780005F0A7002C003700000020003A
:101D80001C09B400901F78002009F90020002000F1
:101D90001C09B400901F78001E09F9000000200003
:101DA0001E09B4009002780005F0A7001A00370061
:101DB0001C89BF002009B4000003780064034300BD
:101DC000060078001E09E30013003A00000020001E
:101DD0001E09B400901F78002209F9001449800000
:101DE00064024200040078002029B4001E09F800B3
:101DF0003409F9007A0E0200000000001C09F80006
:101E00003609F9002009F8003809F9006A0E0200C5
:101E10000000000004003700200020001C09B4006E
:101E2000901F78001C09F9000400370020002000F2
:101E30001C09B400901F78001C09F900C8FF370086
:101E40004F037800CF02780000000600851F78005D
:101E50000809E20002003A001B00370018003700B2
:101E600044488000640052000AA9B7000000200026
:101E70000A09B4009002780005F0A6000E003700B1
:101E8000000020000A09B400900278000400280035
:101E9000048052000CA9B7000A09F8003609F900BD
:101EA0000C09F8003809F9006A0E02000000000071
:101EB0000829EF00020037000829EF000200370070
:101EC000A80E020000000000CF027800000006000B
:101ED000851F78002E09F8003009F9000000200065
:101EE0003009B400800278006449800084029800C0
:101EF000200020003009B40080027800804AEB0006
:101F000000C0B300904298003009F8000000F900CA
:101F1000CF02780000000600851F78002000200016
:101F20002209B400900278000500E00007003A00A2
:101F3000200020002409B40080027800804AEB00D1
:101F400000C0B30090429800060037002000200037
:101F50002409B40080027800200020002209B40087
:101F6000900A7800200020002209B4008002780046
:101F70002449800084029800CF0278000000060007
:101F8000851F7800861F78001089BF0061006000FF
:101F90000000E000010032001029EC000608F80003
:101FA0001209F9001209E20041003200000020008D
:101FB0001209B4009002780005F0A700370037003E
:101FC000000020001209B40010037800844880004B
:101FD0000620E10031003E00000020001209B4009C
:101FE000901F78001609F9008448800064024200BE
:101FF00004007800B44880000020E1001E00360094
:10200000B44880008348800083025200E48252007A
:1020100094488000640242000403780006007800BF
:102020001009B400000378006549880076498800EB
:10203000680F02000000000014A9B7001209F800A0
:102040002209F9001409F8002409F9008C0F020094
:1020500000000000040028008348800084824100C2
:102060001209F8003609F900C54988006A0E020015
:10207000000000000800370004002800B34880007A
:10208000848241001209F8003609F900C549880028
:102090006A0E02000000000005003700200020004A
:1020A0001209B400901F78001209F900BDFF370033
:1020B0001209E20003003A000020EF00060037009A
:1020C0000500370094488000640242000400780054
:1020D00000A0B700000037004F037800CF0278005F
:1020E000000006004200F8003600F8003200F80058
:1020F000801F7800200020000C000900B01F78002D
:102100002202AE00FEFF370030118000FEE8B7006B
:10211000A028EC000000EB009828AF000000E800C9
:102120000160EF000080B200030032001080B200B6
:102130000C00320053003700F4478000C4C3B200E3
:1021400007003A00C888BF00A608B40080027800E3
:10215000FE88BF0080429800C828EC009828A8009C
:1021600049003700F4478000C4C3B20008003A00B9
:10217000C828EF00C888BF00A608B4008002780015
:10218000FE88BF0080429800C828EC003C00370061
:10219000444680006E20E10006003A00F4478000CB
:1021A000E4C3B20003003200C828EF009828A90059
:1021B00033003700F4478000E4C3B2002A003A003D
:1021C000C888BF00A608B40080027800FE88BF005F
:1021D00080429800C828EC00C888BF00A608B40058
:1021E00080027800804AEB00C828EF009E28EC00AF
:1021F000848A200054488800A608F8000C09F900D9
:102200000490200074488800FC0D020000000000CB
:10221000044880006120E10006003A00A608F800AA
:102220000809F900260F020000000000C628ED0092
:10223000A428EC009828A900040120008448880004
:10224000C00F020000000000A6A8B700A608E20028
:1022500003003A009560A900C428EC000100370093
:10226000C628EC0006003700C888BF00A608B400E6
:1022700080027800FE88BF0080429800C828EC00E9
:1022800001003700000037008560A900A001200090
:102290000C0009004F1078004F0078003200F90060
:1022A0003600F9004200F90000400600851F780062
:1022B000861F7800871F7800200020000009B400E6
:1022C000900278000500E00004003A0025488000F4
:1022D00020C0B300804A7800220037002000200090
:1022E0000009B40080027800950AE90015488000D2
:1022F000800020000009B400100378006000200076
:102300000009B4009003780007004300904A780069
:10231000600020000009B40080027800950AE800FF
:10232000600020000009B400900278000000200046
:102330000009B40000027800140078000028E100D1
:1023400006003A00600020000009B4008002780016
:10235000804AEB0000C0B3009042980025488000FE
:10236000804AEB00CF0378004F037800CF0278005B
:10237000000006008580A9004200F8003600F80041
:102380003200F800801F7800200020000C000900B7
:10239000B01F7800A480200004488800E48F20004B
:1023A00014488800F48F2000244888005611020049
:1023B00000000000FF48E20006003A00FEC8BF002F
:1023C0002322AF00FEFF370024E2B7002562EF00B2
:1023D000020037009580A9009808A800A0012000FD
:1023E0000C0009004F1078004F0078003200F9000F
:1023F0003600F9004200F9000040060081E0A90023
:10240000040E20001402880081E0A80000000600ED
:10241000851F78002CA3EF0005168000B0FE2F006A
:1024200085026000051688004516800030FF2F00E9
:102430008502600045168800C442A800C482A80036
:10244000CC42A800CC62A800CF02780000000600B1
:102450009808A8009628EF009A28EF009C28EF0023
:10246000A228EF009E28EF00A028EF00A428EF008C
:10247000C428EF00C628EF00000006004200F80064
:1024800081E0A90042E0EF0081E0A8000401200003
:1024900084488800C00F02000000000081E0A9000D
:1024A0004200F90081E0A800A6A8B700A608E20053
:1024B00006003200C628EC00030009002682BF0097
:1024C0008560A9009560A80001003700C428EC00D1
:1024D00000000600851F780000002000CC08B40032
:1024E000800278008446800084029800200020004A
:1024F000CC08B40080027800804AEB0000C0B30032
:102500009042980040002000CC08B400800278007F
:10251000804AEB0000C0B3009042980060002000A9
:10252000CC08B40080027800804AEB0000C0B30001
:102530009042980080002000CC08B400800278000F
:102540007446800084029800CF02780000000600E4
:10255000851F780000002000CC08B40080027800BD
:10256000844680008402980020002000CC08B4003B
:1025700080027800804AEB0000C0B30090429800CF
:1025800040002000CC08B40080027800804AEB00B4
:1025900000C0B3009042980060002000CC08B40056
:1025A00080027800804AEB0000C0B300904298009F
:1025B00080002000CC08B4008002780074468000BF
:1025C00084029800CF02780000000600848A200070
:1025D00064468800248B2000744688008400200014
:1025E000844688006A12020000000000A4802000D7
:1025F0006446880044812000744688000408200056
:1026000084468800A81202000000000000000600B6
:1026100081E0A9004220EF0081E0A8000000060050
:10262000851F7800861F7800871F78002000200013
:10263000CC08B400900278000500E00004003A00E5
:102640008546800020C0B300804A7800250037000E
:1026500020002000CC08B40080027800950AE90030
:1026600000002000CE08B400800278008000200026
:10267000CC08B4001003780060002000CC08B4003F
:1026800090037800C13BDD0007004300900A78000A
:1026900060002000CC08B40080027800950AE800B1
:1026A00060002000CC08B4009002780000002000F8
:1026B000CC08B40000027800140078000028E10083
:1026C00006003A0060002000CC08B40080027800C8
:1026D000804AEB0000C0B30090429800854680001D
:1026E000804AEB00CF0378004F037800CF027800D8
:1026F00000000600851F7800861F7800D608F800C5
:10270000D808F900D888BF00904278008502FB0005
:102710000500E00002003200D828EC00F9FF370085
:10272000C4468000B3468000030052004F03780087
:10273000CF02780000000600851F780020002000EE
:10274000D608B40080027800951F78000000F900D8
:10275000CF02780000000600851F7800861F7800F1
:10276000871F780020002000D808B400900278006D
:1027700000002000D808B40000027800140078009F
:102780000028E10004003A00E546800010C0B300D4
:10279000804A78002200370020002000D808B400CA
:1027A00080027800950AE80080002000D808B40074
:1027B0009002780040002000D808B4001003780090
:1027C00086834200DA88BF008043980040002000E2
:1027D000D808B40080027800950AE8004000200084
:1027E000D808B4009002780000002000D808B40097
:1027F00000027800140078000028E10006003A008A
:1028000040002000D808B40080027800804AEB0025
:1028100000C0B30090429800E5468000804AEB007B
:10282000CF0378004F037800CF0278000000060045
:10283000851F7800D368EF00CC08F800D608F900AF
:102840007A13020000000000CEE8B700CE48E20094
:1028500027003200A4802000B44688009C130200A8
:10286000000000000408200000005200D0A8B700BB
:10287000CEC8BF000160EF00844680000020E10068
:102880001B003900CF68EF00CFC8BF00744680003E
:102890000024E10011003600744680004822DE006A
:1028A00004007800CC08B40090427800DA08F80000
:1028B000E5FF9F00DA08F900A4802000C4468800E4
:1028C000248D2000E4468800AC13020000000000C4
:1028D000D368EC00CF68EC00EBFF37009808AE003F
:1028E000030037009808A9008580A8009580A800FB
:1028F000D3C8BF00CF027800000006000F78220086
:10290000F07F220020A0B700000000004044240017
:102910004005880081E0A8006004200042E7B7007D
:102920007005200042E7B70042C7A900C0F02300AD
:10293000A4A6B70000302000CCA6B7006004200099
:1029400042E7B7007005200042E7B70042C7A80081
:102950004427EF00040028000411880004402000F0
:10296000141188002062A80024022000441188006D
:102970009828A900C828EF001A0037008002030039
:102980002CFFFF00800207004400000080020800C6
:10299000000000008002080000000000C091080054
:1029A0000800C0002E089A00000000000201E800A4
:1029B0006110E10004003A009101BA003182BA00CE
:1029C00006C0BF00000006006210E10002003A00ED
:1029D00007C0BF000000060008C0BF000001EB00F8
:1029E0000000060006002000000020009001880082
:1029F000E04B2100800078000001EB00D6140200BB
:102A0000000000000BE0B700D61402000000000038
:102A10000AE0B7000500E0001900320005F0A6004A
:102A200007003700D6140200000000000DE0B700D8
:102A3000D6140200000000000CE0B70005F0A10071
:102A400005E0A6000800370005E0A1008502E900C6
:102A5000D6140200000000008043780005800900C1
:102A6000075B7800E5FF3700D61402000000000085
:102A7000005B78008502E900FBFF3A00DFFF3700CA
:102A8000A49320003440880024E42100D449880025
:102A90003C29EF00FE1102000000000008120200B5
:102AA0000000000028120200000000003E12020098
:102AB00000000000E61202000000000008130200FF
:102AC00000000000FE11020000000000848A2000C7
:102AD00064468800248C200074468800A48C200062
:102AE000844688001013020000000000CA48E2007B
:102AF00017003A00C208F800CC08F90018140200C8
:102B000000000000CBE8B7004200F80081E0A90017
:102B100042E0EF0081E0A800C208F8000809F900CF
:102B2000260F02000000000081E0A9004200F90029
:102B300081E0A800C628ED00081302000000000094
:102B4000CB48E20001003A00CC62A9000200370045
:102B50000813020000000000DAFF37000040FE000A
:020000040001F9
:0807F800C7F900FF7F3F00FF7D
:00000001FF
;PIC24FJ48GA002
;CRC=BDFB  CREATED="27-µ.¤.-17 15:27"
