:081800007E110400000000004D
:1018A000680E0400000000001E0F0400000000008D
:081BF800851F7800861F7800AC
:101C0000871F7800200020000209B40090027800AD
:101C1000000020000209B4000002780014007800DF
:101C20000028E10004003A003548800010C0B300ED
:101C3000804A780022003700200020000209B4000A
:101C400080027800950AE800800020000209B400B4
:101C500090027800400020000209B40010037800D0
:101C6000868342000489BF00804398004000200022
:101C70000209B40080027800950AE80040002000C4
:101C80000209B40090027800000020000209B400AC
:101C900000027800140078000028E10006003A00F5
:101CA000400020000209B40080027800804AEB0066
:101CB00000C0B3009042980035488000804AEB0095
:101CC000CF0378004F037800CF02780000000600B1
:101CD0004200F8003600F8003200F800801F78005B
:101CE000200020000C000900B01F78002202AE0086
:101CF000FEFF370030118000F8E8B700C4478000CD
:101D000003032000041CE10011003E00C4478000D2
:101D100093032000041CE1000D003900F8C8BF0047
:101D200004E9B700A480200014488800A48F200094
:101D300034488800FC0D020000000000D4478000F9
:101D40006120E10002003A00C442A900D628EC005C
:101D50008560A900A00120000C0009004F10780048
:101D60004F0078003200F9003600F9004200F90017
:101D700000400600851F7800861F7800871F7800C6
:101D800020002000FA08B400900278000500E0006E
:101D900004003A00F547800020C0B300804A780074
:101DA0002200370020002000FA08B40080027800EA
:101DB000950AE900E547800080002000FA08B40099
:101DC0001003780060002000FA08B4009003780047
:101DD00007004300904A780060002000FA08B40031
:101DE00080027800950AE80060002000FA08B4003C
:101DF0009002780000002000FA08B4000002780089
:101E0000140078000028E10006003A00600020007D
:101E1000FA08B40080027800804AEB0000C0B300EA
:101E200090429800F5478000804AEB00CF0378008D
:101E30004F037800CF027800000006008580A900DB
:101E40004200F8003600F8003200F800801F7800E9
:101E5000200020000C000900B01F78004481200001
:101E6000D4478800848F2000E4478800948F2000A6
:101E7000F4478800BA0E020000000000F948E200B2
:101E800006003A00F8C8BF002322AF00FEFF37006B
:101E900024E2B7002562EF00020037009580A90018
:101EA000CF08A800A00120000C0009004F10780006
:101EB0004F0078003200F9003600F9004200F900C6
:101EC0000040060081E0A900040E200014028800F2
:101ED00081E0A80000000600CF08A800D428EF0089
:101EE000D628EF0000000600851F780000002000C3
:101EF000DC08B40080027800044780008402980067
:101F000020002000DC08B40080027800804AEB004A
:101F100000C0B3009042980040002000DC08B400EC
:101F200080027800804AEB0000C0B3009042980025
:101F300060002000DC08B40080027800804AEB00DA
:101F400000C0B3009042980080002000DC08B4007C
:101F500080027800F446800084029800CF02780066
:101F600000000600A4802000E4468800E4812000F0
:101F7000F44688000401200004478800740F020022
:101F80000000000044812000E4468800E482200034
:101F9000F44688000408200004478800740F0200FB
:101FA0000000000000000600851F78002CA3EF0051
:101FB00005168000B0FE2F0085026000051688001F
:101FC0004516800030FF2F0085026000451688000E
:101FD000C442A800C482A800CC42A800CC62A800D9
:101FE0009560A800CF0278000000060081E0A900FB
:101FF0004220EF0081E0A80000000600811F780069
:10200000C1468000805878008048EB00CF007800FF
:10201000D828EC0000000600851F7800C5002000CD
:1020200003000900B51F780080037800840478005D
:1020300004F0A1000400E00006003A0009F0A70047
:1020400002003700050020001400370005002000C2
:1020500012003700E64252000F0039000003200052
:1020600009F0A60000022000811F7800829FBE00B8
:10207000801F78004F007800FE0F02000000000073
:102080004F01BE00CF0078008502E900F6FF3B005B
:102090005500200001003700840278006400200011
:1020A00005E0A00009F0A70005F0A00008712200DB
:1020B000110009008883D8009A1002000000000077
:1020C00081037800883E2000110009008883D80031
:1020D0009A100200000000008103780048062000EA
:1020E000110009008883D8009A1002000000000047
:1020F00081037800A8002000110009008883D8001F
:102100009A100200000000000003200000C0400000
:10211000811F7800829FBE00801F78004F007800EA
:10212000FE0F0200000000004F01BE00CF0078004B
:102130001A003700060320000000E0000E003A00FD
:1021400005E0A6000D0037000402E9000524E100C7
:10215000020032004200AF00000006000000E00074
:1021600005003A0005E0A6000400370005F0A600CF
:10217000060220000100370005E0A10000404300F6
:10218000811F7800801F78004F007800FE0F02004A
:1021900000000000CF0078000000060025012000AC
:1021A00003000900CF127800CF027800000006007B
:1021B000851F7800861F7800E608F800E808F90017
:1021C000E888BF00904278008502FB000500E0002F
:1021D00002003200E828EC00F9FF37004447800095
:1021E00033478000030052004F037800CF0278008D
:1021F00000000600851F780020002000E608B400DB
:1022000080027800951F78000000F900CF02780066
:1022100000000600851F7800E368EF00DC08F80086
:10222000E608F900D810020000000000DEE8B70060
:10223000DE48E2002E00320044812000344788004E
:10224000FA10020000000000040820000000520004
:10225000E0A8B700DEC8BF000160EF0004478000BF
:102260000020E10022003900DF68EF00DFC8BF0076
:10227000F44680000024E10018003600F446800097
:102280004822DE0004007800DC08B40090427800A8
:102290004200F80081E0A90042E0EF0081E0A800E0
:1022A0000409F800E5FF9F000409F90044812000BB
:1022B00014488800248E200034488800FC0D020059
:1022C0000000000081E0A9004200F90081E0A800C0
:1022D000E368EC00DF68EC00E4FF3700CF08AE00F5
:1022E00003003700CF08A9008580A8009580A800CA
:1022F000E3C8BF00CF027800000006000F7822007C
:10230000F07F220020A0B70000000000404424001D
:102310004005880081E0A8006004200042E7B70083
:102320007005200042E7B70042C7A900C0F02300B3
:10233000A4A6B70000302000CCA6B700600420009F
:1023400042E7B7007005200042E7B70042C7A80087
:102350004427EF00040028000411880004402000F6
:10236000141188002062A800240220004411880073
:102370000828EF0019003700800203002CFFFF003F
:1023800080020700440000008002080000000000F6
:102390008002080000000000C0CE08000A00000013
:1023A000000000000201E8006110E10004003A00B2
:1023B0009101BA003182BA0006C0BF0000000600D9
:1023C0006210E10002003A0007C0BF0000000600F2
:1023D00008C0BF000001EB0000000600060020005E
:1023E0000000200090018800C01B210080007800C0
:1023F0000001EB00D2110200000000000BE0B7006A
:10240000D2110200000000000AE0B7000500E00061
:102410001900320005F0A60007003700D2110200B3
:10242000000000000DE0B700D21102000000000023
:102430000CE0B70005F0A10005E0A6000800370099
:1024400005E0A1008502E900D211020000000000B1
:102450008043780005800900075B7800E5FF3700BE
:10246000D211020000000000005B78008502E90044
:10247000FBFF3A00DFFF37008490200034408800E3
:1024800044E72100444888000A29EF00620F020057
:10249000000000006C0F020000000000B20F0200FC
:1024A00000000000D40F020000000000F60F020040
:1024B00000000000620F0200000000004200F8006F
:1024C00081E0A90042E0EF0081E0A800A4802000A4
:1024D000D4478800E48C2000E4478800A48D2000C5
:1024E000F4478800BA0E02000000000081E0A90055
:1024F0004200F90081E0A800DA48E2003F003A001B
:10250000F60F020000000000744680000443B10092
:1025100004407800D2E8B700D368EF00944680000A
:10252000934680000320B800D0A8B700E48A2000BA
:10253000C4468800D288BF00040020000C100200AE
:102540000000000000C2B300FE0F02000000000007
:10255000A0C2B300FE0F02000000000000C2B300E2
:10256000FE0F020000000000D288BF00040020001F
:102570000C1002000000000000C2B300FE0F0200B9
:1025800000000000D0C3B300FE0F020000000000F6
:1025900000C2B300FE0F020000000000D088BF00A0
:1025A000040020000C10020000000000D0C0B300A6
:1025B000FE0F020000000000A0C0B300FE0F0200EA
:1025C00000000000620F020000000000E48A20000A
:1025D000E44688000A11020000000000DBE8B700B2
:1025E000F60F020000000000DB48E20002003A00A3
:1025F000CC62A900D428EC0002003700F60F0200DC
:0C26000000000000ABFF37000040FE00AF
:020000040001F9
:0807F800C7F900FF7F3F00FF7D
:00000001FF
;PIC24FJ48GA002
;CRC=7E19  CREATED="27-µ.¤.-17 15:28"
