:081800001824040000000000A0
:08186000660F04000000000007
:081888002A0F0400000000001B
:1018A000C411040000000000261304000000000022
:081BF8003220EF0083E0200021
:101C0000008041001040BA000160EF0000000600B3
:101C1000546900006D6500003A2000002575000041
:101C20003A200000257500003A20000025750000CC
:101C30000D0A0000000000003220EF0083E22000C7
:101C4000008041001040BA000160EF000000060073
:101C5000530000003220EF0063E3200000804100C9
:101C60001040BA000160EF000000060030000000E4
:101C70003220EF0043E42000008041001040BA0011
:101C80000160EF0000000600310000003220EF008C
:101C900023E52000008041001040BA000160EF0001
:101CA00000000600320000003220EF0003E62000B2
:101CB000008041001040BA000160EF000000060003
:101CC000330000003220EF00E3E6200000804100F6
:101CD0001040BA000160EF00000006003C53000015
:101CE0003A3000003E0000003220EF0003E8200000
:101CF000008041001040BA000160EF0000000600C3
:101D00003C5300003A3100003E0000003220EF005A
:101D100023E92000008041001040BA000160EF007C
:101D2000000006003C5300003A3200003E00000074
:101D30003220EF0043EA2000008041001040BA004A
:101D40000160EF00000006003C5300003A33000041
:101D50003E0000003220EF0063EB200000804100D5
:101D60001040BA000160EF00000006003C45000092
:101D7000525200004F5200003E000000851F7800C4
:101D8000861F780010002000EE09B4009042780011
:101D900000002000EE09B400000278001440780032
:101DA000002CE10004003A00A54F800010C0B300F1
:101DB000804A78002400370010002000EE09B400AB
:101DC00080027800954AE80040002000EE09B40047
:101DD0009002780020002000EE09B4000002780094
:101DE000144078000160EF004200DD000503400070
:101DF000049F2000341B7800341B78002000200052
:101E0000EE09B40080027800954AE8002000200026
:101E1000EE09B4009042780000002000EE09B40002
:101E20000002780014407800002CE10004003A0021
:101E300020002000EE09B40080027800804AEB0008
:101E4000A54F8000804AEB004F037800CF02780056
:101E5000000006004200F8003600F8003200F800EA
:101E6000801F7800200020000C000900B01F7800BF
:101E7000648F2000744F88003808F800F009F900DA
:101E80003A08F800F209F900849D2000A44F880068
:101E9000BE0E020000000000C44E80006124E1007C
:101EA00001003A000828EC008500A900A0012000EC
:101EB0000C0009004F1078004F0078003200F90044
:101EC0003600F9004200F900004006004200F80028
:101ED0003600F8003200F800801F78002000200053
:101EE0000C000900B01F7800648F2000744F880038
:101EF0003408F800F009F9003608F800F209F90092
:101F0000849D2000A44F8800BE0E02000000000047
:101F1000C44E80006124E10001003A000828EC0072
:101F20008460A900A00120000C0009004F10780077
:101F30004F0078003200F9003600F9004200F90045
:101F400000400600851F780000002000E409B4006E
:101F500080027800E689BF008042980020002000BF
:101F6000E409B40080027800444F800084029800A5
:101F7000CF02780000000600851F780000002000D6
:101F8000160AB40080027800C450800084029800D1
:101F9000CF02780000000600851F78000608F800D0
:101FA0001C0AF900200020001C0AB40090027800EE
:101FB000D45080000520E100050032002000200000
:101FC0001C0AB400901F78001C0AF900F5FF3700C6
:101FD000200020001C0AB4008002780020002000AD
:101FE0001A0AB400900A78001A2AEF00CF0278008B
:101FF00000000600851F7800861F78000608F8009C
:10200000FE09F900FE09E20036003200000020005F
:10201000FE09B4009002780005F0A7002C003700FC
:1020200000002000FE09B400901F7800020AF900A9
:1020300020002000FE09B400901F7800000AF9007B
:1020400000002000000AB4009002780005F0A7000C
:102050001A003700FE89BF00020AB40000037800AE
:102060006403430006007800000AE30013003A000E
:1020700000002000000AB400901F7800040AF90054
:10208000245080006402420004007800022AB40058
:10209000000AF8001A0AF900CC0F02000000000044
:1020A000FE09F800160AF900020AF800180AF900F9
:1020B000BC0F0200000000000400370020002000D8
:1020C000FE09B400901F7800FE09F90004003700F3
:1020D00020002000FE09B400901F7800FE09F900DE
:1020E000C8FF37004F037800CF02780000000600D9
:1020F000851F7800E209E20002003A001B00370069
:1021000018003700144F800064005200E4A9B700A3
:1021100000002000E409B4009002780005F0A60059
:102120000E00370000002000E409B400900278009F
:102130000400280004805200E6A9B700E409F80072
:10214000160AF900E609F800180AF900BC0F0200A7
:1021500000000000E229EF0002003700E229EF0052
:1021600002003700FA0F020000000000CF027800E2
:1021700000000600851F7800100AF800120AF90016
:1021800000002000120AB400800278007450800021
:102190008402980020002000120AB4008002780017
:1021A000804AEB0000C0B30090429800120AF80089
:1021B0000000F900CF02780000000600851F7800BB
:1021C00020002000040AB400900278000500E0001E
:1021D00007003A0020002000060AB40080027800C0
:1021E000804AEB0000C0B300904298000600370020
:1021F00020002000060AB4008002780020002000A1
:10220000040AB400900A780020002000040AB400F8
:10221000800278003450800084029800CF02780059
:1022200000000600851F7800861F7800EA89BF003D
:10223000610060000000E00001003200EA29EC00CB
:102240000608F800EC09F900EC09E2004100320050
:1022500000002000EC09B4009002780005F0A7000F
:102260003700370000002000EC09B40010037800AC
:10227000544F80000620E10031003E0000002000A5
:10228000EC09B400901F7800F009F900544F800069
:102290006402420004007800844F80000020E100C6
:1022A0001E003600844F8000534F8000830252008E
:1022B000E4825200644F800064024200040378000C
:1022C00006007800EA09B400000378007550880021
:1022D00086508800BA10020000000000EEA9B70086
:1022E000EC09F800040AF900EE09F800060AF90002
:1022F000DE1002000000000004002800534F8000A0
:1023000084824100EC09F800160AF900C5508800E3
:10231000BC0F020000000000080037000400280085
:10232000834F800084824100EC09F800160AF9000E
:10233000C5508800BC0F02000000000005003700F7
:1023400020002000EC09B400901F7800EC09F9008F
:10235000BDFF3700EC09E20003003A000020EF0067
:102360000600370005003700644F80006402420019
:102370000400780000A0B700000037004F03780089
:10238000CF027800000006004200F8003600F80096
:102390003200F800801F7800200020000C000900A7
:1023A000B01F78002202AE00FEFF3700301180001F
:1023B000D8E9B700AC28EC000000EB005328AF00D0
:1023C0000000E8000160EF000080B200030032006E
:1023D0001080B2000C00320060003700C44E800054
:1023E000C4C3B20007003A002489BF004808B40003
:1023F00080027800D889BF00804298002429EC0030
:102400005328A80056003700C44E8000C4C3B20051
:1024100008003A002429EF002489BF004808B400CE
:1024200080027800D889BF00804298002429EC00FF
:1024300049003700244980006E20E10006003A0080
:10244000C44E8000E4C3B200030032002429EF0030
:102450005328A90040003700C44E8000E4C3B200F6
:1024600037003A002489BF004808B4008002780091
:10247000D889BF00804298002429EC002489BF003D
:102480004808B40080027800804AEB002429EF005D
:10249000AA28EC00E0C0B300E6E9B70004842000FD
:1024A000244F88004808F800E809F900A20F02004C
:1024B00000000000648F2000744F88004008F8007E
:1024C000F009F9004208F800F209F900A49D200083
:1024D000A44F8800BE0E020000000000D44E800011
:1024E0006120E10007003A004808F800E209F9001D
:1024F0007810020000000000B228ED000828EC006F
:10250000B428EC005328A90004012000544F88008F
:10251000121102000000000048A8B7004808E200BD
:1025200004003A009560A900B028EC00B428EC0043
:1025300002003700B228EC00B428EC000600370097
:102540002489BF004808B40080027800D889BF0001
:10255000804298002429EC00010037000000370079
:102560008560A900A00120000C0009004F10780030
:102570004F0078003200F9003600F9004200F900FF
:1025800000400600851F7800861F7800871F7800AE
:1025900020002000DA09B400900278000500E00075
:1025A00004003A00F54E800020C0B300804A780055
:1025B0002200370020002000DA09B40080027800F1
:1025C000950AE900E54E800080002000DA09B40099
:1025D0001003780060002000DA09B400900378004E
:1025E00007004300904A780060002000DA09B40038
:1025F00080027800950AE80060002000DA09B40043
:102600009002780000002000DA09B400000278008F
:10261000140078000028E10006003A006000200065
:10262000DA09B40080027800804AEB0000C0B300F1
:1026300090429800F54E8000804AEB00CF0378006E
:102640004F037800CF027800000006008580A900C3
:102650004200F8003600F8003200F800801F7800D1
:10266000200020000C000900B01F7800B428EC0006
:1026700084852000D44E8800849D2000E44E88008C
:10268000949D2000F44E8800C21202000000000059
:10269000D949E20006003A00D8C9BF002322AF00A2
:1026A000FEFF370024E2B7002562EF00020037008A
:1026B0009580A9005308A800A00120000C00090083
:1026C0004F1078004F0078003200F9003600F90012
:1026D0004200F9000040060081E0A900040E20003D
:1026E0001402880081E0A800000006002F68EF00B7
:1026F0003068EF003168EF003268EF003368EF00B8
:102700000828EF005308A800A428EF00A628EF002F
:10271000A828EF00AA28EF00AE28EF00B028EF00AD
:10272000B228EF00B428EF0000000600851F7800F3
:10273000000020002C09B400800278007449800059
:1027400084029800200020002C09B4008002780048
:102750008449800084029800400020002C09B400C5
:10276000800278009449800084029800CF027800AB
:10277000000006004200F80081E0A90042E0EF00FE
:1027800081E0A80004012000544F880012110200CB
:102790000000000081E0A9004200F90081E0A800EB
:1027A00048A8B7004808E20007003200B228EC0051
:1027B000B428EC00030009002682BF008560A90050
:1027C0009560A80001003700B028EC00000006006A
:1027D000851F78002CA3EF0005168000B0FE2F00A7
:1027E00085026000051688004516800030FF2F0026
:1027F0008502600045168800C442A800C482A80073
:10280000CC42A800CC62A8008500A9009500A800D1
:102810000A21EF001221EF0094862100740888003D
:1028200004032800940888008460A9009460A8002C
:102830000021EF000421EF0044C3200014088800A9
:102840000403280024088800CF0278000000060056
:10285000851F7800000020002C09B4008002780059
:102860003089BF0080429800100020002C09B4007D
:1028700080027800804AEB00200020002C09B40080
:1028800080027800804AEB00300020002C09B40060
:1028900080027800804AEB00400020002C09B40040
:1028A000800278007449800084029800CF0278008A
:1028B00000000600851F7800000020002C09B400ED
:1028C0008002780084498000840298002000200063
:1028D0002C09B40080027800804AEB0000C0B300ED
:1028E00090429800400020002C09B400800278003B
:1028F000804AEB0000C0B3009042980060002000C6
:102900002C09B40080027800804AEB0000C0B300BC
:1029100090429800800020002C09B40080027800CA
:102920007449800084029800CF02780000000600FD
:1029300080C0B30030E9B700648F2000644988008C
:10294000C48F200074498800281402000000000091
:10295000848520006449880024862000744988000A
:1029600004042000844988005A140200000000007A
:10297000000006004200F80081E0A90042E0EF00FC
:1029800081E0A80010C0B300E6E9B700448320004E
:10299000244F8800E829EF00A20F02000000000089
:1029A00081E0A9004200F90081E0A8004200F8009F
:1029B00081E0A90042E0EF0081E0A80030C0B30050
:1029C000E6E9B70084832000244F8800E829EF005F
:1029D000A20F02000000000081E0A9004200F900FF
:1029E00081E0A8004200F80081E0A90042E0EF0089
:1029F00081E0A80090C0B300E6E9B700A480200001
:102A0000244F8800E829EF00A20F02000000000018
:102A100081E0A9004200F90081E0A8004200F8002E
:102A200081E0A90042E0EF0081E0A800A0C0B3006F
:102A3000E6E9B700E4802000244F8800E829EF0091
:102A4000A20F02000000000081E0A9004200F9008E
:102A500081E0A8004200F80081E0A90042E0EF0018
:102A600081E0A800B0C0B300E6E9B70024812000EF
:102A7000244F8800E829EF00A20F020000000000A8
:102A800081E0A9004200F90081E0A8004200F800BE
:102A900081E0A90042E0EF0081E0A800C0C0B300DF
:102AA000E6E9B70064812000244F8800E829EF00A0
:102AB000A20F02000000000081E0A9004200F9001E
:102AC00081E0A8004200F80081E0A90042E0EF00A8
:102AD00081E0A80000C1B300E6E9B700C48320008C
:102AE000244F8800E829EF00A20F02000000000038
:102AF00081E0A9004200F90081E0A8000000060082
:102B0000851F7800861F78002F69EF002FC9BF004E
:102B1000744980000024E100130036002FC9BF0073
:102B20000160EF00C402DD00050078002C09B4004C
:102B300000037800004BEB002FC9BF000160EF00DD
:102B4000C402DD00EA82420005007800644980008A
:102B500084024000804AEB0000C0B300904298001D
:102B60002F69EC00E9FF37004F037800CF027800AF
:102B700000000600851F7800861F78002EC9BF0060
:102B80000160EF00C402DD00050078002C09B400EC
:102B900000037800004BEB002EC9BF000160EF007E
:102BA000C402DD00E1824200050078006449800033
:102BB000840240002FC9BF00804A78002EC9BF00A0
:102BC0000160EF00C402DD00E282420005007800EF
:102BD000644980008402400004932000B41A780005
:102BE000B41A78002EC9BF000160EF00C402DD00F6
:102BF000E6824200050078006449800084024000BB
:102C000004932000B41A7800B41A78002EC9BF00CB
:102C10000160EF00C402DD00EA8242000500780096
:102C20006449800084024000C44980008402980006
:102C30002EC9BF000160EF00C402DD00EC8242003B
:102C40000500780064498000840240004200F800DA
:102C500081E0A90042E0EF0081E0A800801F780039
:102C600034C9BF00E6E9B7004F007800254F88005F
:102C70003609F800E809F900A20F02000000000080
:102C800081E0A9004200F90081E0A8004F0378002C
:102C9000CF02780000000600851F7800861F7800AC
:102CA000871F78002EC9BF000160EF00C402DD005D
:102CB000050078002C09B4001004E0003C003A0044
:102CC0002EC9BF000160EF00C402DD00E6824200B1
:102CD000050078006449800004004000A400200042
:102CE000301A7800301A78000500E00002003A003F
:102CF0000600E000090032002EC9BF000160EF00AD
:102D0000C402DD00050078002C09B400000378003F
:102D100010C0B300004B7800250037002EC9BF005B
:102D20000160EF00C402DD00EA8242000500780085
:102D30006449800004004000900278002EC9BF0062
:102D40000160EF004403DD006C03430006007800DF
:102D50006449800004004000C4002000301A78005C
:102D6000301A78004200F80081E0A90042E0EF004C
:102D700081E0A800754F8800864F8800974F880033
:102D8000F4922000A44F8800BE0E02000000000054
:102D900081E0A9004200F90081E0A80074498000A8
:102DA0004822DE006124E10001003A000828EC001E
:102DB000CF0378004F037800CF02780000000600B0
:102DC00040C0B3002EE9B700648B2000644988003E
:102DD00080150200000000002E69EF0010C0B30053
:102DE0002FE9B70040C0B30034E9B700648B20007E
:102DF00064498800A4002000844988003229EF003B
:102E00003629EF00648F2000C4498800BA150200FB
:102E10000000000010C0B3002EE9B7002F69EF00DA
:102E200050C0B30034E9B700648B200064498800C7
:102E3000840C2000844988003229EF003629EF00F5
:102E4000648F2000C4498800BA1502000000000009
:102E500020C0B3002EE9B7002F69EF0060C0B300B7
:102E600034E9B700648B200064498800840C20009A
:102E7000844988003229EF003629EF00648F200052
:102E8000C4498800BA1502000000000030C0B30039
:102E90002EE9B7002F69EF0070C0B30034E9B70026
:102EA000648B200064498800840C200084498800D9
:102EB0003229EF003629EF00648F2000C4498800D2
:102EC000BA150200000000002E69EF00648B20009C
:102ED000644988004C160200000000000000060053
:102EE00081E0A9004220EF0081E0A8000000060078
:102EF000851F7800861F7800100020002C09B40080
:102F00001004E00004003A008549800020C0B300AE
:102F1000804A78002B003700100020002C09B400F4
:102F200080027800954AE900400020002C09B40096
:102F300090027800300020002C09B40000027800D4
:102F4000144078000160EF004200DD000500400001
:102F50000002780003002000B4197800B41978004A
:102F600032A9B700A1498800754980002493200048
:102F7000B41A7800B41A7800300020002C09B4008C
:102F800080027800954AE800300020002C09B40047
:102F900090427800000020002C09B4000002780064
:102FA00014407800002CE10004003A0030002000BA
:102FB0002C09B40080027800804AEB00854980002B
:102FC000804AEB004F037800CF0278000000060033
:102FD000851F78005516800005007800000FB200AC
:102FE000004278000960EF000960EF004422DE0033
:102FF0002E09F800E4FF9F002E09F9002EC9BF003A
:1030000000E0B700CF02780000000600851F7800BE
:103010002A68EF0010C0B30035E9B70000CFB30055
:1030200037E9B70034C9BF003749B70000C0EA002C
:1030300036E9B7003649E2000E0032003869EF0089
:10304000C44980006424E1000A00310036C9BF0091
:103050003549B6000004E000030032002A68EC00A5
:1030600038C9BF002CE8B7003569D4003869EC00D6
:10307000F3FF3700CF027800000006002DC8BF0024
:103080000160EF000080B2000F0032001080B2003B
:10309000230032003080B200370032001080B200CE
:1030A0004B0032007080B2005F0032001080B2002E
:1030B000730032003080B200870032001080B2000E
:1030C0009B003200B00037004200F80081E0A90008
:1030D00042E0EF0081E0A8003409F800EE09F900B1
:1030E0000A08F800F009F9000C08F800F209F900E4
:1030F00064932000A44F8800BE0E02000000000070
:1031000081E0A9004200F90081E0A800B4498000F4
:103110006124E10001003A000828EC009B00370020
:103120004200F80081E0A90042E0EF0081E0A80041
:103130003409F800EE09F9000E08F800F009F9006A
:103140001008F800F209F90064932000A44F8800E9
:10315000BE0E02000000000081E0A9004200F9005C
:1031600081E0A800B44980006124E10001003A0038
:103170000828EC00850037004200F80081E0A90033
:1031800042E0EF0081E0A8003409F800EE09F90000
:103190001208F800F009F9001408F800F209F90023
:1031A00064932000A44F8800BE0E020000000000BF
:1031B00081E0A9004200F90081E0A800B449800044
:1031C0006124E10001003A000828EC006F0037009C
:1031D0004200F80081E0A90042E0EF0081E0A80091
:1031E0003409F800EE09F9001608F800F009F900B2
:1031F0001808F800F209F90064932000A44F880031
:10320000BE0E02000000000081E0A9004200F900AB
:1032100081E0A800B44980006124E10001003A0087
:103220000828EC00590037004200F80081E0A900AE
:1032300042E0EF0081E0A8003409F800EE09F9004F
:103240001A08F800F009F9001C08F800F209F90062
:1032500064932000A44F8800BE0E0200000000000E
:1032600081E0A9004200F90081E0A800B449800093
:103270006124E10001003A000828EC004300370017
:103280004200F80081E0A90042E0EF0081E0A800E0
:103290003409F800EE09F9001E08F800F009F900F9
:1032A0002008F800F209F90064932000A44F880078
:1032B000BE0E02000000000081E0A9004200F900FB
:1032C00081E0A800B44980006124E10001003A00D7
:1032D0000828EC002D0037004200F80081E0A9002A
:1032E00042E0EF0081E0A8003409F800EE09F9009F
:1032F0002208F800F009F9002408F800F209F900A2
:1033000064932000A44F8800BE0E0200000000005D
:1033100081E0A9004200F90081E0A800B4498000E2
:103320006124E10001003A000828EC001700370092
:103330004200F80081E0A90042E0EF0081E0A8002F
:103340003409F800EE09F9002608F800F009F90040
:103350002808F800F209F90064932000A44F8800BF
:10336000BE0E02000000000081E0A9004200F9004A
:1033700081E0A800B44980006124E10001003A0026
:103380000828EC00010037000000370000000600AC
:103390002EC9BF0034E9B700061802000000000083
:1033A0002EC8BF000160EF000080B20005003200AF
:1033B0001080B2000B0032003080B2001A003200E0
:1033C0001D003700544180006124E10004003A00F0
:1033D0002CC8BF002BE8B70010C0B3002EE8B70020
:1033E00016003700544180006124E1000C003A00CF
:1033F0002CC8BF002B48E30009003A002BC8BF00CF
:103400002DE8B7003009F8003409F9003E18020031
:103410000000000020C0B3002EE8B7000100370014
:103420002E68EF00050037002A48E20001003A004C
:103430002E68EF0001003700000037000000060092
:10344000E8170200000000002CE9B7006C1302002E
:10345000000000002CC9BF002EE9B700648F2000D7
:1034600084498800C819020000000000701702009B
:103470000000000000000600851F7800861F78000D
:10348000871F78002F69EF002FC9BF0074498000A3
:103490000024E100660036002FC9BF000160EF0084
:1034A000C402DD00050078002C09B4001042780049
:1034B0006124E1005C003A002FC9BF000160EF0009
:1034C000C402DD00E6824200050078006449800005
:1034D00084024000951AE9004200AE00951AE90006
:1034E0002FC9BF000160EF00C402DD00E682420088
:1034F000050078006449800004004000A40020001A
:10350000301A7800301A78000500E00046003A00D2
:103510000600E00044003A002FC9BF000160EF0040
:10352000C402DD00EA8242000500780064498000A0
:1035300004004000900278002FC9BF000160EF0036
:103540004403DD006C0343000600780064498000FA
:1035500004004000C4002000301A7800301A7800BF
:103560004200F80081E0A90042E0EF0081E0A800FD
:10357000754F8800864F8800974F8800049320007D
:10358000A44F8800BE0E02000000000081E0A900E8
:103590004200F90081E0A800844980006124E10034
:1035A00001003A000828EC002FC9BF000160EF00BD
:1035B000C402DD00E6824200050078006449800014
:1035C000840240002FC9BF000160EF004403DD000A
:1035D0006203430006007800644980000400400054
:1035E000B01A7800B01A78002FC9BF000160EF0050
:1035F000C402DD00E18242000500780064498000D9
:10360000040040001004E00007003A002FC9BF008A
:103610000160EF00C402DD00050078002C09B40051
:1036200000037800004BEB002F69EC0096FF370099
:10363000CF0378004F037800CF0278000000060027
:103640006C1302000000000040C0B3002EE9B70078
:10365000648B2000644988003C1A020000000000CE
:10366000701702000000000000000600851F7800AF
:10367000861F78002EC9BF000160EF00C402DD0084
:10368000050078002C09B40000037800004BEB0023
:103690002EC9BF000160EF00C402DD00E6824200D7
:1036A0000500780064498000840240002EC9BF00F4
:1036B0000160EF004403DD00620343000600780070
:1036C0006449800004004000B01A7800B01A780005
:1036D0004F037800CF0278000000060030C8BF001A
:1036E0000160EF000080B200030032002080B200D1
:1036F000020032000A0037000A003700C482A80026
:1037000010C0B3002EE9B700648B20006449880024
:10371000361B0200000000003068EF000100370097
:103720000000370031C8BF000160EF000080B20028
:10373000030032002080B200020032000A0037008D
:103740000A003700CC42A80020C0B3002EE9B70021
:10375000648B200064498800361B020000000000D2
:103760003168EF00010037000000370032C8BF00A9
:103770000160EF000080B200030032002080B20040
:10378000020032000A0037000A003700CC62A800AD
:1037900030C0B3002EE9B700648B20006449880074
:1037A000361B0200000000003268EF000100370005
:1037B000000037000000060030C8BF000160EF00C5
:1037C0000080B200030032002080B2000B00320003
:1037D00013003700C482A90010C0B3002EE9B7005F
:1037E000648B2000644988004C1602000000000031
:1037F00020C0B30030E8B7000A003700C482A80038
:1038000010C0B3002EE9B700648B20006449880023
:10381000361B0200000000003068EF000100370096
:10382000000037000000060031C8BF000160EF0053
:103830000080B200030032002080B2000B00320092
:1038400013003700CC42A90020C0B3002EE9B70016
:10385000648B2000644988004C16020000000000C0
:1038600020C0B30031E8B7000A003700CC42A800FE
:1038700020C0B3002EE9B700648B200064498800A3
:10388000361B0200000000003168EF000100370025
:10389000000037000000060032C8BF000160EF00E2
:1038A0000080B200030032002080B2000B00320022
:1038B00013003700CC62A90030C0B3002EE9B70076
:1038C000648B2000644988004C1602000000000050
:1038D00020C0B30032E8B7000A003700CC62A8006D
:1038E00030C0B3002EE9B700648B20006449880023
:1038F000361B0200000000003268EF0001003700B4
:103900000000370000000600851F780040002000FE
:103910004E09B40080027800950AE80040002000BB
:103920004E09B40090027800C40320000520E10095
:1039300025003A00400020004E09B40080027800C3
:10394000804AEB0000C0B3009042980020002000A5
:103950004E09B40080027800950AE800200020009B
:103960004E09B40090027800C40320000520E10055
:1039700015003A00200020004E09B40080027800B3
:10398000804AEB0000C0B300904298000000200085
:103990004E09B40080027800950AE800000020007B
:1039A0004E09B400900278007828E10006003A0041
:1039B000000020004E09B40080027800804AEB002D
:1039C00000C0B30090429800CF02780000000600CB
:1039D000811F780011498000805878008048EB00F2
:1039E000CF0078002229EC0000000600851F780037
:1039F000C500200003000900B51F7800800378008F
:103A00008404780004F0A1000400E00006003A00FD
:103A100009F0A7000200370005002000140037005D
:103A20000500200012003700E64252000F00390066
:103A30000003200009F0A60000022000811F78008A
:103A4000829FBE00801F78004F007800E81C0200B3
:103A5000000000004F01BE00CF0078008502E900A1
:103A6000F6FF3B005500200001003700840278007B
:103A70006400200005E0A00009F0A70005F0A00008
:103A800008712200110009008883D800841D0200FB
:103A90000000000081037800883E2000110009002A
:103AA0008883D800841D0200000000008103780094
:103AB00048062000110009008883D800841D0200F8
:103AC0000000000081037800A80020001100090018
:103AD0008883D800841D020000000000000320003D
:103AE00000C04000811F7800829FBE00801F7800C8
:103AF0004F007800E81C0200000000004F01BE00EB
:103B0000CF0078001A003700060320000000E00014
:103B10000E003A0005E0A6000D0037000402E9009F
:103B20000524E100020032004200AF000000060060
:103B30000000E00005003A0005E0A60004003700A0
:103B400005F0A600060220000100370005E0A100F4
:103B500000404300811F7800801F78004F007800EC
:103B6000E81C020000000000CF0078000000060002
:103B70002501200003000900CF127800CF02780051
:103B800000000600851F7800861F78005C09F80099
:103B90005E09F9005E89BF00904278008502FB0053
:103BA0000500E000020032005E29EC00F9FF37005A
:103BB000F44A8000E34A8000030052004F0378007B
:103BC000CF02780000000600851F7800200020004A
:103BD0005C09B40080027800951F78000000F900AD
:103BE000CF02780000000600851F7800861F78004D
:103BF000871F7800200020005E09B4009002780042
:103C0000000020005E09B400000278001400780073
:103C10000028E10004003A00154B800010C0B300FA
:103C2000804A780022003700200020005E09B4009E
:103C300080027800950AE800800020005E09B40048
:103C400090027800400020005E09B4001003780064
:103C5000868342006089BF008043980040002000B6
:103C60005E09B40080027800950AE8004000200058
:103C70005E09B40090027800000020005E09B400E4
:103C800000027800140078000028E10006003A00E5
:103C9000400020005E09B40080027800804AEB00FA
:103CA00000C0B30090429800154B8000804AEB00A2
:103CB000CF0378004F037800CF02780000000600A1
:103CC000851F78005969EF005209F8005C09F90076
:103CD000C21D02000000000054E9B7005449E20090
:103CE0002700320084852000E44A8800E41D020099
:103CF00000000000040420000000520056A9B70094
:103D000054C9BF000160EF00B44A80000020E10008
:103D10001B0039005569EF0055C9BF00A44A800057
:103D20000024E10011003600A44A80004822DE0091
:103D3000040078005209B400904278006009F8004D
:103D4000E5FF9F006009F90084852000F44A88009F
:103D500084952000144B8800F41D02000000000030
:103D60005969EC005569EC00EBFF37005308AE00D1
:103D7000030037005308A9008580A8009580A8009B
:103D800059C9BF00CF02780000000600C442AA0053
:103D9000C4912000744A8800841C020000000000C6
:103DA000C49220001449880001002000010078001E
:103DB0000160EF00FC0D0200000000008100E8003F
:103DC000811F7800801F78004F007800E81C0200F7
:103DD00000000000CF007800500020000008E6003E
:103DE000F2FF37001C89BF0004002000F61C02000F
:103DF00000000000A0C3B300E81C020000000000A7
:103E000000C2B300E81C0200000000001E89BF00D1
:103E100004002000F61C020000000000A0C3B30054
:103E2000E81C02000000000000C2B300E81C020011
:103E3000000000002089BF0004002000F61C0200E2
:103E400000000000D0C0B300E81C02000000000029
:103E5000A0C0B300E81C0200000000006C130200C8
:103E600000000000C4922000944A8800601E0200F6
:103E7000000000004CE9B7007017020000000000CD
:103E80004C49E20000003A000000060030C8BF00C4
:103E90000160EF000080B200030032002080B20019
:103EA000020032000A0037000A003700C482A8006E
:103EB00010C0B3002EE9B700648B2000644988006D
:103EC000361B0200000000003068EF0001003700E0
:103ED000000037000000060031C8BF000160EF009D
:103EE0000080B200030032002080B20002003200E5
:103EF0000A0037000A003700CC42A80020C0B300F7
:103F00002EE9B700648B200064498800361B02004C
:103F1000000000003168EF000100370000003700AA
:103F20000000060032C8BF000160EF000080B20050
:103F3000030032002080B200020032000A00370085
:103F40000A003700CC62A80030C0B3002EE9B700E9
:103F5000648B200064498800361B020000000000CA
:103F60003268EF0001003700000037000000060053
:103F7000851F7800861F78005E09F8006209F90045
:103F80006289BF00904278008502FB000500E000D6
:103F9000160032006009F8006409F9006489BF0066
:103FA0001004E00005003A00144B8000F34A800042
:103FB0000300520010003700080037006289BF007C
:103FC000904278006489BF000002780014407800B5
:103FD000002CE10001003A00020037006429EC00E7
:103FE000EEFF37006229EC00E5FF3700144B80003C
:103FF000F34A8000030052004F037800CF0278009C
:1040000000000600851F7800861F78005E09F80012
:104010006209F9006289BF00904278008502FB00C6
:104020000500E000150032006009F8006409F9009D
:104030006489BF00904278008502FB000500E00023
:104040000C0032006289BF00904278006489BF0092
:104050000002780014407800002CE10003003A00D0
:104060006209F8000000F900050037006429EC003F
:10407000EFFF37006229EC00E6FF37000020EF0079
:104080004F037800CF02780000000600851F7800FB
:104090005209E200020032005289BF0001003700DD
:1040A0000088BF0056A9B7005609F8005E09F9005C
:1040B0005409F8006009F900B81F02000000000070
:1040C000804278008582FB000B60EF00054078009D
:1040D0005629B4005689BF001004E00005003A00DC
:1040E0000540800000C2B300804A78000020EF0045
:1040F000110037005609F8005E09F9005409F8006C
:104100006009F900022002000000000058A9B70071
:104110005889BF001004E00003003200C54A800047
:10412000804AEB005829EC005809F8000008F90013
:104130005609F8000000F900CF02780000000600E0
:10414000851F78005289BF00904278005489BF00D3
:104150000002780014407800002CE10009003A00C9
:104160005289BF001004E00002003A000060EF0036
:104170000E0037005289BF005229EC005429EC0090
:10418000F0FF37005289BF00904278005489BF0089
:104190000002780014407800002CE10002003D008D
:1041A00000C0EB000100370010C0B300CF02780060
:1041B00000000600851F7800861F78004069EF0028
:1041C0002C09F8005209F9004A08F8005409F900CE
:1041D00046200200000000002EA9B7002E09E200D0
:1041E000BA003200044A80006324E100B7003200C4
:1041F00040C9BF000160EF000080B200050032003E
:104200001080B200250032003080B200AA003200D7
:10421000AC00370023002000020020004194200061
:10422000831F7800020078001C0E020000000000CE
:10423000CF017800805878000201E8008301E9008E
:104240004220AE00F6FF37002E09F8005209F900AF
:1042500044942000A44A8800A0200200000000002E
:104260008002FB000500E00009003A005229EF003F
:104270004C08F8005409F900462002000000000034
:104280002EA9B70010C0B30040E9B7000200370004
:1042900030C0B30040E9B7008B0037002300200096
:1042A0000200200041942000831F78000200780063
:1042B0002A0E020000000000CF017800805878002C
:1042C0000201E8008301E9004220AE00F6FF37005A
:1042D0002E09F8005209F90044942000A44A8800ED
:1042E000A0200200000000008002FB000500E000AA
:1042F0000B003A0090C0B30041E9B7005229EF002B
:104300004E08F8005409F9004620020000000000A1
:104310002EA9B70020C0B30040E9B7006500370000
:10432000230020000200200041942000831F780019
:1043300002007800380E020000000000CF01780073
:10434000805878000201E8008301E9004220AE00B5
:10435000F6FF37002E09F8005209F90044942000B6
:10436000A44A8800A0200200000000008002FB0098
:104370000500E0000B003A00A0C0B30041E9B7001F
:104380005229EF004E08F8005409F90046200200B7
:10439000000000002EA9B70020C0B30040E9B7001C
:1043A0004400370023002000020020004194200038
:1043B000831F780002007800460E02000000000013
:1043C000CF017800805878000201E8008301E900FD
:1043D0004220AE00F6FF37002E09F8005209F9001E
:1043E00044942000A44A8800A0200200000000009D
:1043F0008002FB000500E0000B003A00B0C0B300F3
:1044000041E9B7005229EF004E08F8005409F900BD
:1044100046200200000000002EA9B70020C0B30013
:1044200040E9B700230037002300200002002000ED
:1044300041942000831F780002007800540E02008F
:1044400000000000CF017800805878000201E800E9
:104450008301E9004220AE00F6FF37002E09F80084
:104460005209F90044942000A44A8800A0200200C8
:10447000000000008002FB000500E0000B003A0095
:10448000C0C0B30041E9B7005229EF004E08F80060
:104490005409F90046200200000000002EA9B700D0
:1044A00020C0B30040E9B7000200370030C0B300BD
:1044B00040E9B7000400370030C0B30040E9B7005E
:1044C000010037000000370044FF37006C13020082
:1044D000000000004200F80081E0A90042E0EF0087
:1044E00081E0A8002C09F800E209F9007810020028
:1044F0000000000081E0A9004200F90081E0A8006E
:10450000044A80006224E100A9003A0041C9BF00CA
:104510000160EF009080B200070032003080B200EE
:104520002C0032001080B200510032007080B200C6
:10453000760032009C0037004200F80081E0A900BC
:1045400042E0EF0081E0A800648F2000744F8800F3
:104550000A08F800F009F9000C08F800F209F9005F
:1045600024942000A44F8800BE0E0200000000002A
:1045700081E0A9004200F90081E0A800144A80000F
:104580006124E10001003A000828EC0004932000B7
:104590001449880001002000010078000160EF004C
:1045A000620E0200000000008100E800811F780018
:1045B000801F78004F007800E81C02000000000017
:1045C000CF007800400020000008E600F2FF37002E
:1045D000760037004200F80081E0A90042E0EF00D9
:1045E00081E0A800648F2000744F88000E08F80056
:1045F000F009F9001008F800F209F90024942000ED
:10460000A44F8800BE0E02000000000081E0A90057
:104610004200F90081E0A800144A80006124E10012
:1046200001003A000828EC00049320001449880097
:1046300001002000010078000160EF00740E02000C
:10464000000000008100E800811F7800801F7800D2
:104650004F007800E81C020000000000CF00780046
:10466000400020000008E600F2FF37004F0037004E
:104670004200F80081E0A90042E0EF0081E0A800DC
:10468000648F2000744F88001208F800F009F900C8
:104690001408F800F209F90024942000A44F8800BF
:1046A000BE0E02000000000081E0A9004200F900F7
:1046B00081E0A800144A80006124E10001003A0072
:1046C0000828EC0004932000144988000100200011
:1046D000010078000160EF00860E0200000000007B
:1046E0008100E800811F7800801F78004F0078006B
:1046F000E81C020000000000CF007800400020000D
:104700000008E600F2FF3700280037004200F800FA
:1047100081E0A90042E0EF0081E0A800648F200062
:10472000744F88001608F800F009F9001808F8001E
:10473000F209F90024942000A44F8800BE0E020064
:104740000000000081E0A9004200F90081E0A8001B
:10475000144A80006124E10001003A000828EC00BE
:104760000493200014498800010020000100780013
:104770000160EF00980E0200000000008100E800D8
:10478000811F7800801F78004F007800E81C02002D
:1047900000000000CF007800400020000008E60084
:1047A000F2FF37000100370000003700110037002A
:1047B00004932000144988000100200001007800C3
:1047C0000160EF00AA0E0200000000008100E80076
:1047D000811F7800801F78004F007800E81C0200DD
:1047E00000000000CF007800600020000008E60014
:1047F000F2FF370004932000944A8800601E0200F4
:104800000000000043E9B70070170200000000003C
:104810004349E20000003A004F037800CF027800DD
:104820000000060000000600000006000000060070
:104830000F782200F07F220020A0B70000000000C7
:10484000404424002005880040442400400588009E
:1048500081E0A8006004200042E7B7007005200056
:1048600042E7B70042C7A900C0F02300A4A6B700E2
:1048700000302000CCA6B7006004200042E7B7005B
:104880007005200042E7B70042C7A8004427EF00A8
:10489000040028000411880004402000141188003E
:1048A0002062A80024022000441188000828EF009C
:1048B00026003700800203002CFFFF008002070063
:1048C000440000008002070044000000800208004D
:1048D00000000000800208000000000080020800C4
:1048E00000000000C02008002A0000000A50080054
:1048F00054085600083C3A000000800004085300A9
:10490000003E00003E40CB00008002000924000071
:10491000000000000201E8006110E10004003A001C
:104920009101BA003182BA0006C0BF000000060043
:104930006210E10002003A0007C0BF00000006005C
:1049400008C0BF000001EB000000060006002000C8
:104950000000200090018800A0452200800078001F
:104960000001EB008A240200000000000BE0B70009
:104970008A240200000000000AE0B7000500E00001
:104980001900320005F0A600070037008A24020053
:10499000000000000DE0B7008A24020000000000C3
:1049A0000CE0B70005F0A10005E0A6000800370004
:1049B00005E0A1008502E9008A2402000000000051
:1049C0008043780005800900075B7800E5FF370029
:1049D0008A24020000000000005B78008502E900E4
:1049E000FBFF3A00DFFF3700E4A1200034408800DD
:1049F000E4D52100F4508800202AEF006C13020057
:104A0000000000007613020000000000C4912000A6
:104A1000644988002E29EF003029EF003229EF0089
:104A20009613020000000000BA130200000000000C
:104A3000E8130200000000009814020000000000CB
:104A4000BA14020000000000E0160200000000009E
:104A500070170200000000006C130200000000004C
:104A6000648F2000644988006492200074498800A3
:104A7000A4922000844988007817020000000000FA
:104A800070170200000000002A49E2004F003A00BF
:104A9000344980006124E10003003A00201A02003A
:104AA0000000000048003700344980006324E10022
:104AB00003003A00201B0200000000004200370003
:104AC000344980006924E10003003A006E1B0200B3
:104AD000000000003C003700344980006A24E100F7
:104AE00003003A00DC1B0200000000003600370023
:104AF000344980006B24E10003003A00141C0200DA
:104B00000000000030003700344980006C24E100D0
:104B100003003A004C1C0200000000002A0037008D
:104B2000344980006424E10003003A00C61E0200FC
:104B30000000000024003700344980006524E100B3
:104B400003003A00461F0200000000001E0037006C
:104B5000344980006624E10003003A006C1F020023
:104B60000000000018003700344980006724E1008D
:104B700003003A00921F02000000000012003700FC
:104B8000344980006E24E10005003A002809F8004D
:104B90002C09F900DA200200000000000A003700AA
:104BA000344980006D24E10005003A002809F8002E
:104BB0002C09F90012240200000000000200370056
:104BC0001424020000000000020037001624020036
:104BD000000000000808E20000003200B008E20017
:0C4BE000000032009CFF37000040FE0087
:020000040001F9
:0807F800C7F900FF7F3F00FF7D
:00000001FF
;PIC24FJ48GA002
;CRC=9BE1  CREATED="27-µ.¤.-17 14:01"
