:08180000342504000000000083
:08186000660F04000000000007
:081888002A0F0400000000001B
:1018A000C411040000000000261304000000000022
:081BF8003220EF0083E0200021
:101C0000008041001040BA000160EF0000000600B3
:101C1000546900006D6500003A2000002575000041
:101C20003A200000257500003A20000025750000CC
:101C30000D0A0000000000003220EF0083E22000C7
:101C4000008041001040BA000160EF000000060073
:101C5000530000003220EF0063E3200000804100C9
:101C60001040BA000160EF000000060030000000E4
:101C70003220EF0043E42000008041001040BA0011
:101C80000160EF0000000600310000003220EF008C
:101C900023E52000008041001040BA000160EF0001
:101CA00000000600320000003220EF0003E62000B2
:101CB000008041001040BA000160EF000000060003
:101CC000330000003220EF00E3E6200000804100F6
:101CD0001040BA000160EF00000006003C53000015
:101CE0003A3000003E0000003220EF0003E8200000
:101CF000008041001040BA000160EF0000000600C3
:101D00003C5300003A3100003E0000003220EF005A
:101D100023E92000008041001040BA000160EF007C
:101D2000000006003C5300003A3200003E00000074
:101D30003220EF0043EA2000008041001040BA004A
:101D40000160EF00000006003C5300003A33000041
:101D50003E0000003220EF0063EB200000804100D5
:101D60001040BA000160EF00000006003C45000092
:101D7000525200004F5200003E000000851F7800C4
:101D8000861F780010002000FC09B4009042780003
:101D900000002000FC09B400000278001440780024
:101DA000002CE10004003A001550800010C0B30080
:101DB000804A78002400370010002000FC09B4009D
:101DC00080027800954AE80040002000FC09B40039
:101DD0009002780020002000FC09B4000002780086
:101DE000144078000160EF004200DD000503400070
:101DF000E49F2000341B7800341B78002000200072
:101E0000FC09B40080027800954AE8002000200018
:101E1000FC09B4009042780000002000FC09B400E6
:101E20000002780014407800002CE10004003A0021
:101E300020002000FC09B40080027800804AEB00FA
:101E400015508000804AEB004F037800CF027800E5
:101E5000000006004200F8003600F8003200F800EA
:101E6000801F7800200020000C000900B01F7800BF
:101E700044902000E44F88003608F800FE09F9007D
:101E80003808F800000AF900A49E200014508800C9
:101E9000BE0E020000000000544F80006124E100EB
:101EA00001003A000828EC008500A900A0012000EC
:101EB0000C0009004F1078004F0078003200F90044
:101EC0003600F9004200F900004006004200F80028
:101ED0003600F8003200F800801F78002000200053
:101EE0000C000900B01F780044902000E44F8800E7
:101EF0003208F800FE09F9003408F800000AF90079
:101F0000A49E200014508800BE0E020000000000B5
:101F1000544F80006124E10001003A000828EC00E1
:101F20008460A900A00120000C0009004F10780077
:101F30004F0078003200F9003600F9004200F90045
:101F400000400600851F780000002000F609B4005C
:101F500080027800F889BF008042980020002000AD
:101F6000F609B40080027800D44F80008402980003
:101F7000CF02780000000600851F780000002000D6
:101F8000280AB4008002780054518000840298002E
:101F9000CF02780000000600851F78000608F800D0
:101FA0002E0AF900200020002E0AB40090027800CA
:101FB000645180000520E10005003200200020006F
:101FC0002E0AB400901F78002E0AF900F5FF3700A2
:101FD000200020002E0AB40080027800200020009B
:101FE0002C0AB400900A78002C2AEF00CF02780067
:101FF00000000600851F7800861F78000608F8009C
:10200000100AF900100AE200360032000000200039
:10201000100AB4009002780005F0A7002C003700E9
:1020200000002000100AB400901F7800140AF90084
:1020300020002000100AB400901F7800120AF90056
:1020400000002000120AB4009002780005F0A700FA
:102050001A003700108ABF00140AB4000003780089
:102060006403430006007800120AE30013003A00FC
:1020700000002000120AB400901F7800160AF90030
:10208000B45080006402420004007800142AB400B6
:10209000120AF8002C0AF900CC0F02000000000020
:1020A000100AF800280AF900140AF8002A0AF900B0
:1020B000BC0F0200000000000400370020002000D8
:1020C000100AB400901F7800100AF90004003700CD
:1020D00020002000100AB400901F7800100AF900B8
:1020E000C8FF37004F037800CF02780000000600D9
:1020F000851F7800F409E20002003A001B00370057
:1021000018003700A44F800064005200F6A9B70001
:1021100000002000F609B4009002780005F0A60047
:102120000E00370000002000F609B400900278008D
:102130000400280004805200F8A9B700F609F8004E
:10214000280AF900F809F8002A0AF900BC0F020071
:1021500000000000F429EF0002003700F429EF002E
:1021600002003700FA0F020000000000CF027800E2
:1021700000000600851F7800220AF800240AF900F2
:1021800000002000240AB40080027800045180007E
:102190008402980020002000240AB4008002780005
:1021A000804AEB0000C0B30090429800240AF80077
:1021B0000000F900CF02780000000600851F7800BB
:1021C00020002000160AB400900278000500E0000C
:1021D00007003A0020002000180AB40080027800AE
:1021E000804AEB0000C0B300904298000600370020
:1021F00020002000180AB40080027800200020008F
:10220000160AB400900A780020002000160AB400D4
:1022100080027800C450800084029800CF027800C9
:1022200000000600851F7800861F7800048ABF0022
:10223000610060000000E00001003200042AEC00B0
:102240000608F800060AF900060AE200410032001A
:1022500000002000060AB4009002780005F0A700F4
:102260003700370000002000060AB4001003780091
:10227000245080000620E10031003E0000002000D4
:10228000060AB400901F78000A0AF9002450800062
:102290006402420004007800545080000020E100F5
:1022A0001E003600545080002350800083025200EC
:1022B000E48252003450800064024200040378003B
:1022C00006007800040AB400000378000551880075
:1022D00016518800BA1002000000000008AAB700DA
:1022E000060AF800160AF900080AF800180AF900A8
:1022F000DE100200000000000400280023508000CF
:1023000084824100060AF800280AF9005551880025
:10231000BC0F020000000000080037000400280085
:102320005350800084824100060AF800280AF90010
:1023300055518800BC0F0200000000000500370066
:1023400020002000060AB400901F7800060AF90059
:10235000BDFF3700060AE20003003A000020EF004C
:102360000600370005003700345080006402420048
:102370000400780000A0B700000037004F03780089
:10238000CF027800000006004200F8003600F80096
:102390003200F800801F7800200020000C000900A7
:1023A000B01F78002202AE00FEFF3700301180001F
:1023B000EAE9B700AA28EC000000EB005128AF00C2
:1023C0000000E8000160EF000080B200030032006E
:1023D0001080B2000C00320060003700544F8000C3
:1023E000C4C3B20007003A003289BF004608B400F7
:1023F00080027800EA89BF00804298003229EC0010
:102400005128A80056003700544F8000C4C3B200C2
:1024100008003A003229EF003289BF004608B400B4
:1024200080027800EA89BF00804298003229EC00DF
:1024300049003700944980006E20E10006003A0010
:10244000544F8000E4C3B200030032003229EF0091
:102450005128A90040003700544F8000E4C3B20067
:1024600037003A003289BF004608B4008002780085
:10247000EA89BF00804298003229EC003289BF000F
:102480004608B40080027800804AEB003229EF0051
:10249000A828EC00E0C0B300F8E9B700E48320000E
:1024A000B44F88004608F800FA09F900A20F0200AC
:1024B0000000000044902000E44F88003E08F8002F
:1024C000FE09F9004008F800000AF900C49E200047
:1024D00014508800BE0E020000000000644F80000F
:1024E0006120E10007003A004608F800F409F9000D
:1024F0007810020000000000B028ED000828EC0071
:10250000B228EC005128A9000401200024508800C2
:10251000121102000000000046A8B7004608E200C1
:1025200004003A009560A900AE28EC00B228EC0047
:1025300002003700B028EC00B228EC00060037009B
:102540003289BF004608B40080027800EA89BF00E3
:10255000804298003229EC0001003700000037006B
:102560008560A900A00120000C0009004F10780030
:102570004F0078003200F9003600F9004200F900FF
:1025800000400600851F7800861F7800871F7800AE
:1025900020002000EC09B400900278000500E00063
:1025A00004003A00854F800020C0B300804A7800C4
:1025B0002200370020002000EC09B40080027800DF
:1025C000950AE900754F800080002000EC09B400F6
:1025D0001003780060002000EC09B400900378003C
:1025E00007004300904A780060002000EC09B40026
:1025F00080027800950AE80060002000EC09B40031
:102600009002780000002000EC09B400000278007D
:10261000140078000028E10006003A006000200065
:10262000EC09B40080027800804AEB0000C0B300DF
:1026300090429800854F8000804AEB00CF037800DD
:102640004F037800CF027800000006008580A900C3
:102650004200F8003600F8003200F800801F7800D1
:10266000200020000C000900B01F7800B228EC0008
:1026700064852000644F8800A49E2000744F880069
:10268000B49E2000844F8800C212020000000000A7
:10269000EB49E20006003A00EAC9BF002322AF007E
:1026A000FEFF370024E2B7002562EF00020037008A
:1026B0009580A9005108A800A00120000C00090085
:1026C0004F1078004F0078003200F9003600F90012
:1026D0004200F9000040060081E0A900040E20003D
:1026E0001402880081E0A800000006002F68EF00B7
:1026F0003068EF003168EF000828EF005108A800AB
:10270000A228EF00A428EF00A628EF00A828EF00D9
:10271000AC28EF00AE28EF00B028EF00B228EF00A1
:1027200000000600851F7800000020003A09B40070
:1027300080027800E4498000840298002000200094
:102740003A09B40080027800F449800084029800BD
:10275000400020003A09B40080027800044A80005A
:1027600084029800CF027800000006004200F800C2
:1027700081E0A90042E0EF0081E0A8000401200010
:1027800024508800121102000000000081E0A9001E
:102790004200F90081E0A80046A8B7004608E20020
:1027A00007003200B028EC00B228EC00030009005A
:1027B0002682BF008560A9009560A800010037004F
:1027C000AE28EC0000000600851F78002CA3EF0067
:1027D00005168000B0FE2F008502600005168800F7
:1027E0004516800030FF2F008502600045168800E6
:1027F000C442A800C482A800CC42A800CC62A800B1
:102800008500A9009500A8000A21EF001221EF0021
:102810009486210074088800040328009408880026
:102820008460A9009460A8000021EF000421EF005B
:1028300044C32000140888000403280024088800EA
:10284000CF02780000000600851F780000002000FD
:102850003A09B400800278003E89BF0080429800A7
:10286000100020003A09B40080027800804AEB0092
:10287000200020003A09B40080027800804AEB0072
:10288000300020003A09B40080027800804AEB0052
:10289000400020003A09B40080027800E44980003A
:1028A00084029800CF02780000000600851F78009F
:1028B000000020003A09B40080027800F44980004A
:1028C00084029800200020003A09B40080027800B9
:1028D000804AEB0000C0B300904298004000200006
:1028E0003A09B40080027800804AEB0000C0B300CF
:1028F00090429800600020003A09B40080027800FD
:10290000804AEB0000C0B300904298008000200095
:102910003A09B40080027800E449800084029800FB
:10292000CF0278000000060080C0B3003EE9B70087
:1029300044902000D4498800A4902000E4498800F5
:10294000241402000000000064852000D44988009F
:1029500004862000E449880004042000F44988002B
:102960005614020000000000000006004200F800BB
:1029700081E0A90042E0EF0081E0A80010C0B300B0
:10298000F8E9B70024832000B44F8800FA29EF004B
:10299000A20F02000000000081E0A9004200F9003F
:1029A00081E0A8004200F80081E0A90042E0EF00C9
:1029B00081E0A80030C0B300F8E9B70064832000CC
:1029C000B44F8800FA29EF00A20F020000000000B7
:1029D00081E0A9004200F90081E0A8004200F8006F
:1029E00081E0A90042E0EF0081E0A80090C0B300C0
:1029F000F8E9B700A4802000B44F8800FA29EF005E
:102A0000A20F02000000000081E0A9004200F900CE
:102A100081E0A8004200F80081E0A90042E0EF0058
:102A200081E0A800A0C0B300F8E9B700E48020006E
:102A3000B44F8800FA29EF00A20F02000000000046
:102A400081E0A9004200F90081E0A8004200F800FE
:102A500081E0A90042E0EF0081E0A800B0C0B3002F
:102A6000F8E9B70024812000B44F8800FA29EF006C
:102A7000A20F02000000000081E0A9004200F9005E
:102A800081E0A8004200F80081E0A90042E0EF00E8
:102A900081E0A800C0C0B300F8E9B700648120005D
:102AA000B44F8800FA29EF00A20F020000000000D6
:102AB00081E0A9004200F90081E0A8004200F8008E
:102AC00081E0A90042E0EF0081E0A80000C1B3006E
:102AD000F8E9B700A4832000B44F8800FA29EF007A
:102AE000A20F02000000000081E0A9004200F900EE
:102AF00081E0A80000000600851F7800861F78008E
:102B00003D69EF003DC9BF00E44980000024E100B9
:102B1000130036003DC9BF000160EF00C402DD00B4
:102B2000050078003A09B40000037800004BEB0080
:102B30003DC9BF000160EF00C402DD00EA8242002F
:102B400005007800D449800084024000804AEB00F0
:102B500000C0B300904298003D69EC00E9FF3700E7
:102B60004F037800CF02780000000600851F780030
:102B7000861F78003CC9BF000160EF00C402DD0081
:102B8000050078003A09B40000037800004BEB0020
:102B90003CC9BF000160EF00C402DD00E1824200D9
:102BA00005007800D4498000840240003DC9BF0080
:102BB000804A78003CC9BF000160EF00C402DD001C
:102BC000E282420005007800D4498000840240007F
:102BD000E4932000B41A7800B41A78003CC9BF000E
:102BE0000160EF00C402DD00E682420005007800CB
:102BF000D449800084024000E4932000B41A780095
:102C0000B41A78003CC9BF000160EF00C402DD00C7
:102C1000EA82420005007800D44980008402400026
:102C2000344A8000840298003CC9BF000160EF0074
:102C3000C402DD00EC82420005007800D449800027
:102C4000840240004200F80081E0A90042E0EF0069
:102C500081E0A800801F780042C9BF00F8E9B700F2
:102C60004F007800B54F88004409F800FA09F900D0
:102C7000A20F02000000000081E0A9004200F9005C
:102C800081E0A8004F037800CF0278000000060022
:102C9000851F7800861F7800871F78003CC9BF0019
:102CA0000160EF00C402DD00050078003A09B400BD
:102CB0001004E0003C003A003CC9BF000160EF0096
:102CC000C402DD00E682420005007800D44980009D
:102CD00004004000A4002000301A7800301A780068
:102CE0000500E00002003A000600E00009003200A2
:102CF0003CC9BF000160EF00C402DD0005007800A0
:102D00003A09B4000003780010C0B300004B78000B
:102D1000250037003CC9BF000160EF00C402DD00A0
:102D2000EA82420005007800D44980000400400097
:102D3000900278003CC9BF000160EF004403DD0051
:102D40006C03430006007800D44980000400400072
:102D5000C4002000301A7800301A78004200F800D1
:102D600081E0A90042E0EF0081E0A800E54F880083
:102D7000F64F880007508800D49320001450880034
:102D8000BE0E02000000000081E0A9004200F90030
:102D900081E0A800E44980004822DE006124E100CF
:102DA00001003A000828EC00CF0378004F037800B8
:102DB000CF0278000000060050C0B3003CE9B70025
:102DC000448B2000D44988007C15020000000000DC
:102DD0003C69EF0010C0B3003DE9B70040C0B3004C
:102DE00042E9B700448B2000D4498800A4002000A9
:102DF000F44988004029EF004429EF004490200066
:102E0000344A8800B61502000000000010C0B3006C
:102E10003CE9B7003D69EF0050C0B30042E9B7009C
:102E2000448B2000D4498800840C2000F449880099
:102E30004029EF004429EF0044902000344A8800E4
:102E4000B61502000000000020C0B3003CE9B70046
:102E500010C0B3003DE9B70060C0B30042E9B7005D
:102E6000448B2000D449880054002000F449880095
:102E70004029EF004429EF0044902000344A8800A4
:102E8000B61502000000000030C0B3003CE9B700F6
:102E90003D69EF0070C0B30042E9B700448B2000E9
:102EA000D4498800840C2000F44988004029EF00B0
:102EB0004429EF0044902000344A8800B6150200EF
:102EC0000000000040C0B3003CE9B70010C0B300F0
:102ED0003DE9B70080C0B30042E9B700448B200051
:102EE000D449880054002000F44988004029EF00AC
:102EF0004429EF0044902000344A8800B6150200AF
:102F0000000000003C69EF00448B2000D449880099
:102F100048160200000000000000060081E0A90041
:102F20004220EF0081E0A80000000600851F780025
:102F3000861F7800100020003A09B4001004E00059
:102F400004003A00F549800020C0B300804A7800B0
:102F50002B003700100020003A09B40080027800EE
:102F6000954AE900400020003A09B4009002780038
:102F7000300020003A09B4000002780014407800C4
:102F80000160EF004200DD00050040000002780013
:102F900003002000B4197800B419780040A9B700E4
:102FA000114A8800E549800004942000B41A780092
:102FB000B41A7800300020003A09B400800278008A
:102FC000954AE800300020003A09B40090427800A9
:102FD000000020003A09B400000278001440780094
:102FE000002CE10004003A00300020003A09B4004F
:102FF00080027800804AEB00F5498000804AEB00AF
:103000004F037800CF02780000000600851F78008B
:103010005516800005007800000FB20000427800CD
:103020000960EF000960EF004422DE003C09F8006F
:10303000E4FF9F003C09F9003CC9BF0000E0B70075
:10304000CF02780000000600851F78002A68EF0094
:1030500010C0B30043E9B70000CFB30045E9B700A3
:1030600042C9BF004549B70000C0EA0044E9B700C3
:103070004449E2000E0032004669EF00344A800005
:103080006424E1000A00310044C9BF004349B6008E
:103090000004E000030032002A68EC0046C9BF00CB
:1030A0002CE8B7004369D4004669EC00F3FF370011
:1030B000CF027800000006002DC8BF000160EF00BD
:1030C0000080B2000F0032001080B20023003200F6
:1030D0003080B200370032001080B2004B00320066
:1030E0007080B2005F0032001080B20073003200C6
:1030F0003080B200870032001080B2009B003200A6
:10310000B00037004200F80081E0A90042E0EF0083
:1031100081E0A8004209F800FC09F9000A08F8005B
:10312000FE09F9000C08F800000AF9004494200098
:1031300014508800BE0E02000000000081E0A900CB
:103140004200F90081E0A800244A80006124E100E7
:1031500001003A000828EC009B0037004200F8000C
:1031600081E0A90042E0EF0081E0A8004209F800F8
:10317000FC09F9000E08F800FE09F9001008F80033
:10318000000AF9004494200014508800BE0E02008A
:103190000000000081E0A9004200F90081E0A800E1
:1031A000244A80006124E10001003A000828EC0074
:1031B000850037004200F80081E0A90042E0EF00FE
:1031C00081E0A8004209F800FC09F9001208F800A3
:1031D000FE09F9001408F800000AF90044942000E0
:1031E00014508800BE0E02000000000081E0A9001B
:1031F0004200F90081E0A800244A80006124E10037
:1032000001003A000828EC006F0037004200F80087
:1032100081E0A90042E0EF0081E0A8004209F80047
:10322000FC09F9001608F800FE09F9001808F80072
:10323000000AF9004494200014508800BE0E0200D9
:103240000000000081E0A9004200F90081E0A80030
:10325000244A80006124E10001003A000828EC00C3
:10326000590037004200F80081E0A90042E0EF0079
:1032700081E0A8004209F800FC09F9001A08F800EA
:10328000FE09F9001C08F800000AF9004494200027
:1032900014508800BE0E02000000000081E0A9006A
:1032A0004200F90081E0A800244A80006124E10086
:1032B00001003A000828EC00430037004200F80003
:1032C00081E0A90042E0EF0081E0A8004209F80097
:1032D000FC09F9001E08F800FE09F9002008F800B2
:1032E000000AF9004494200014508800BE0E020029
:1032F0000000000081E0A9004200F90081E0A80080
:10330000244A80006124E10001003A000828EC0012
:103310002D0037004200F80081E0A90042E0EF00F4
:1033200081E0A8004209F800FC09F9002208F80031
:10333000FE09F9002408F800000AF900449420006E
:1033400014508800BE0E02000000000081E0A900B9
:103350004200F90081E0A800244A80006124E100D5
:1033600001003A000828EC00170037004200F8007E
:1033700081E0A90042E0EF0081E0A8004209F800E6
:10338000FC09F9002608F800FE09F9002808F800F1
:10339000000AF9004494200014508800BE0E020078
:1033A0000000000081E0A9004200F90081E0A800CF
:1033B000244A80006124E10001003A000828EC0062
:1033C0000100370000003700000006003CC9BF00C4
:1033D00042E9B70024180200000000002EC8BF0018
:1033E0000160EF000080B200050032001080B200E2
:1033F0000B0032003080B2001A0032001D0037008E
:10340000544180006124E10004003A002CC8BF0050
:103410002BE8B70010C0B3002EE8B7001600370045
:10342000544180006124E1000C003A002CC8BF0028
:103430002B48E30009003A002BC8BF002DE8B70075
:103440003E09F8004209F9005C1802000000000083
:1034500020C0B3002EE8B700010037002E68EF004F
:10346000050037002A48E20001003A002E68EF000C
:1034700001003700000037000000060006180200B7
:10348000000000003AE9B7006C13020000000000E1
:103490003AC9BF003CE9B70044902000F4498800D5
:1034A000E6190200000000008E1702000000000074
:1034B00000000600851F7800861F7800871F7800AF
:1034C0003D69EF003DC9BF00E44980000024E100F0
:1034D000660036003DC9BF000160EF00C402DD0098
:1034E000050078003A09B400104278006124E10038
:1034F0005C003A003DC9BF000160EF00C402DD007E
:10350000E682420005007800D44980008402400031
:10351000951AE9004200AE00951AE9003DC9BF00C6
:103520000160EF00C402DD00E68242000500780081
:10353000D449800004004000A4002000301A780024
:10354000301A78000500E00046003A000600E0006E
:1035500044003A003DC9BF000160EF00C402DD0035
:10356000EA82420005007800D4498000040040004F
:10357000900278003DC9BF000160EF004403DD0008
:103580006C03430006007800D4498000040040002A
:10359000C4002000301A7800301A78004200F80089
:1035A00081E0A90042E0EF0081E0A800E54F88003B
:1035B000F64F880007508800E493200014508800DC
:1035C000BE0E02000000000081E0A9004200F900E8
:1035D00081E0A800F44980006124E10001003A0084
:1035E0000828EC003DC9BF000160EF00C402DD0007
:1035F000E682420005007800D44980008402400041
:103600003DC9BF000160EF004403DD0062034300D9
:1036100006007800D449800004004000B01A780009
:10362000B01A78003DC9BF000160EF00C402DD00A0
:10363000E182420005007800D44980000400400087
:103640001004E00007003A003DC9BF000160EF0030
:10365000C402DD00050078003A09B40000037800D8
:10366000004BEB003D69EC0096FF3700CF0378007C
:103670004F037800CF027800000006006C130200B0
:103680000000000050C0B3003CE9B700448B2000AC
:10369000D44988005A1A0200000000008E17020068
:1036A0000000000000000600851F7800861F7800DB
:1036B0003CC9BF000160EF00C402DD0005007800D6
:1036C0003A09B40000037800004BEB003CC9BF008E
:1036D0000160EF00C402DD00E682420005007800D0
:1036E000D4498000840240003CC9BF000160EF0063
:1036F0004403DD006203430006007800D4498000E3
:1037000004004000B01A7800B01A78004F03780027
:10371000CF027800000006002FC8BF000160EF0054
:103720000080B200070032001080B20015003200A5
:103730003080B200220032001080B2002F00320030
:103740003100370010C0B3003CE9B700448B2000C3
:10375000D4498800481602000000000020C0B300D1
:103760003CE9B700448B2000D44988004816020089
:1037700000000000C442A90010C0B3002FE8B70049
:103780002200370010C0B3003CE9B700448B200092
:10379000D4498800541B02000000000020C0B30080
:1037A0003CE9B700448B2000D4498800541B020038
:1037B00000000000C442A8002F68EF00130037008B
:1037C00010C0B3003CE9B700448B2000D449880006
:1037D000541B02000000000020C0B3003CE9B70009
:1037E000448B2000D4498800541B020000000000D4
:1037F000C442A8002F68EF0004003700C482A8006C
:103800002F68EF00010037000000370000000600BD
:10381000851F7800861F78003CC9BF004400DD008A
:103820000080FB000160EF00D4498000840240006A
:10383000E082420005037800004BEB004F03780064
:10384000CF027800000006002FC8BF000160EF0023
:103850000080B200070032001080B2000600320083
:103860003080B200140032001080B200210032001B
:10387000210037002100370010C0B3003CE9B70039
:10388000448B2000D4498800081C0200000000007E
:1038900020C0B3003CE9B700448B2000D449880025
:1038A000541B020000000000C442A90020C0B30065
:1038B0002FE8B7001100370010C0B3003CE9B70093
:1038C000448B2000D4498800481602000000000004
:1038D00020C0B3003CE9B700448B2000D4498800E5
:1038E000481602000000000010C0B3002FE8B70027
:1038F000020037000100370000003700000006001A
:1039000030C8BF000160EF000080B2000700320045
:103910001080B200150032003080B2002200320068
:103920001080B2002F0032003100370030C0B300E9
:103930003CE9B700448B2000D449880048160200B7
:103940000000000040C0B3003CE9B700448B2000F9
:10395000D44988004816020000000000CC42A900AB
:1039600010C0B30030E8B7002200370030C0B30009
:103970003CE9B700448B2000D4498800541B020066
:103980000000000040C0B3003CE9B700448B2000B9
:10399000D4498800541B020000000000CC42A8005B
:1039A0003068EF001300370030C0B3003CE9B700C7
:1039B000448B2000D4498800541B02000000000002
:1039C00040C0B3003CE9B700448B2000D4498800D4
:1039D000541B020000000000CC42A8003068EF0039
:1039E00004003700CC62A8003068EF000100370007
:1039F000000037000000060030C8BF000160EF0083
:103A00000080B200070032001080B20006003200D1
:103A10003080B200140032001080B2002100320069
:103A2000210037002100370030C0B3003CE9B70067
:103A3000448B2000D4498800081C020000000000CC
:103A400040C0B3003CE9B700448B2000D449880053
:103A5000541B020000000000CC42A90020C0B300AB
:103A600030E8B7001100370030C0B3003CE9B700C0
:103A7000448B2000D4498800481602000000000052
:103A800040C0B3003CE9B700448B2000D449880013
:103A9000481602000000000010C0B30030E8B70074
:103AA0000200370001003700000037000000060068
:103AB000851F7800400020005C09B4008002780077
:103AC000950AE800400020005C09B40090027800EC
:103AD000C40320000520E10025003A00400020003A
:103AE0005C09B40080027800804AEB0000C0B3009B
:103AF00090429800200020005C09B4008002780009
:103B0000950AE800200020005C09B40090027800CB
:103B1000C40320000520E10015003A002000200029
:103B20005C09B40080027800804AEB0000C0B3005A
:103B300090429800000020005C09B40080027800E8
:103B4000950AE800000020005C09B40090027800AB
:103B50007828E10006003A00000020005C09B4006B
:103B600080027800804AEB0000C0B30090429800C9
:103B7000CF02780000000600811F78008149800094
:103B8000805878008048EB00CF0078003029EC00A6
:103B900000000600851F7800C50020000300090012
:103BA000B51F7800800378008404780004F0A10039
:103BB0000400E00006003A0009F0A7000200370008
:103BC0000500200014003700050020001200370017
:103BD000E64252000F0039000003200009F0A60061
:103BE00000022000811F7800829FBE00801F7800A5
:103BF0004F007800BC1D0200000000004F01BE0015
:103C0000CF0078008502E900F6FF3B005500200058
:103C100001003700840278006400200005E0A00065
:103C200009F0A70005F0A0000871220011000900AA
:103C30008883D800581E020000000000810378002D
:103C4000883E2000110009008883D800581E020019
:103C500000000000810378004806200011000900E0
:103C60008883D800581E02000000000081037800FD
:103C7000A8002000110009008883D800581E020007
:103C8000000000000003200000C04000811F7800F9
:103C9000829FBE00801F78004F007800BC1D02008C
:103CA000000000004F01BE00CF0078001A0037006E
:103CB000060320000000E0000E003A0005E0A60028
:103CC0000D0037000402E9000524E1000200320083
:103CD0004200AF00000006000000E00005003A00CE
:103CE00005E0A6000400370005F0A600060220004B
:103CF0000100370005E0A10000404300811F78006B
:103D0000801F78004F007800BC1D020000000000FA
:103D1000CF00780000000600250120000300090004
:103D2000CF127800CF02780000000600851F7800CF
:103D3000861F78006A09F8006C09F9006C89BF00D9
:103D4000904278008502FB000500E000020032008E
:103D50006C29EC00F9FF3700644B8000534B800066
:103D6000030052004F037800CF02780000000600E5
:103D7000851F7800200020006A09B40080027800C6
:103D8000951F78000000F900CF02780000000600BF
:103D9000851F7800861F7800871F7800200020008C
:103DA0006C09B40090027800000020006C09B40097
:103DB00000027800140078000028E10004003A00B6
:103DC000854B800010C0B300804A78002200370085
:103DD000200020006C09B40080027800950AE800F9
:103DE000800020006C09B4009002780040002000A0
:103DF0006C09B40010037800868342006E89BF000E
:103E000080439800400020006C09B40080027800D4
:103E1000950AE800400020006C09B4009002780088
:103E2000000020006C09B400000278001400780043
:103E30000028E10006003A00400020006C09B400B0
:103E400080027800804AEB0000C0B30090429800E6
:103E5000854B8000804AEB00CF0378004F03780049
:103E6000CF02780000000600851F78006769EF0028
:103E70006009F8006A09F900961E020000000000BF
:103E800062E9B7006249E200270032006485200041
:103E9000544B8800B81E02000000000004042000FB
:103EA0000000520064A9B70062C9BF000160EF00C2
:103EB000244B80000020E1001B0039006369EF0003
:103EC00063C9BF00144B80000024E10011003600DC
:103ED000144B80004822DE00040078006009B40022
:103EE000904278006E09F800E5FF9F006E09F90026
:103EF00064852000644B880064962000844B880011
:103F0000C81E0200000000006769EC006369EC0055
:103F1000EBFF37005108AE00030037005108A9003D
:103F20008580A8009580A80067C9BF00CF027800EF
:103F300000000600A4922000E44A8800581D0200F8
:103F400000000000A49320008449880001002000A4
:103F5000010078000160EF00FC0D0200000000008D
:103F60008100E800811F7800801F78004F007800F2
:103F7000BC1D020000000000CF00780050002000AF
:103F80000008E600F2FF37002A89BF000400200085
:103F9000CA1D020000000000A0C3B300BC1D020047
:103FA0000000000000C2B300BC1D020000000000C1
:103FB0002C89BF0004002000CA1D02000000000080
:103FC000A0C3B300BC1D02000000000000C2B3008B
:103FD000BC1D0200000000002E89BF00040020006C
:103FE000CA1D020000000000D0C0B300BC1D0200CA
:103FF00000000000A0C0B300BC1D020000000000D3
:104000006C13020000000000A4932000044B880001
:10401000341F0200000000005AE9B7008E170200AA
:10402000000000005A49E20000003A0000000600CB
:104030002FC8BF000160EF000080B200070032000F
:104040001080B200060032003080B2000F00320053
:104050001080B2000E0032000E0037000E00370054
:1040600020C0B3003CE9B700448B2000D44988004D
:10407000541B020000000000C442A800C482A90032
:1040800030C0B3002FE8B70003003700020037004C
:104090000100370000003700000006002FC8BF00F5
:1040A0000160EF000080B200070032001080B20013
:1040B000060032003080B200080032001080B200EA
:1040C000070032000700370007003700C442AA008B
:1040D00010C0B3002FE8B70003003700020037001C
:1040E00001003700000037000000060030C8BF00A4
:1040F0000160EF000080B200070032001080B200C3
:10410000060032003080B2000F0032001080B20092
:104110000E0032000E0037000E00370040C0B30022
:104120003CE9B700448B2000D4498800541B0200AE
:1041300000000000CC42A800CC62A90030C0B3004F
:1041400030E8B700030037000200370001003700F5
:10415000000037000000060030C8BF000160EF001B
:104160000080B200070032001080B200060032006A
:104170003080B200080032001080B2000700320028
:104180000700370007003700CC42AA0010C0B30078
:1041900030E8B700030037000200370001003700A5
:1041A0000000370000000600851F7800861F780099
:1041B0006C09F8007009F9007089BF00904278001E
:1041C0008502FB000500E000160032006E09F800D1
:1041D0007209F9007289BF001004E00005003A007E
:1041E000844B8000634B80000300520010003700B6
:1041F000080037007089BF00904278007289BF00C4
:104200000002780014407800002CE10001003A0020
:10421000020037007229EC00EEFF37007029EC0035
:10422000E5FF3700844B8000634B800003005200A1
:104230004F037800CF02780000000600851F780049
:10424000861F78006C09F8007009F9007089BF00BA
:10425000904278008502FB000500E0001500320066
:104260006E09F8007209F9007289BF009042780067
:104270008502FB000500E0000C0032007089BF00E1
:10428000904278007289BF000002780014407800E4
:10429000002CE10003003A007009F8000000F9006A
:1042A000050037007229EC00EFFF37007029EC00A1
:1042B000E6FF37000020EF004F037800CF027800C0
:1042C00000000600851F78006009E200020032004D
:1042D0006089BF00010037000088BF0064A9B700F3
:1042E0006409F8006C09F9006209F8006E09F90028
:1042F000D420020000000000804278008582FB008C
:104300000B60EF00054078006429B4006489BF00A9
:104310001004E00005003A000540800000C2B30030
:10432000804A78000020EF00110037006409F8008F
:104330006C09F9006209F8006E09F9001E210200FB
:104340000000000066A9B7006689BF001004E00005
:1043500003003200354B8000804AEB006629EC00F8
:104360006609F8000008F9006409F8000000F90087
:10437000CF02780000000600851F78006089BF002A
:10438000904278006289BF000002780014407800F3
:10439000002CE10009003A006089BF001004E00031
:1043A00002003A000060EF000E0037006089BF0095
:1043B0006029EC006229EC00F0FF37006089BF0043
:1043C000904278006289BF000002780014407800B3
:1043D000002CE10002003D0000C0EB0001003700AE
:1043E00010C0B300CF02780000000600851F7800DF
:1043F000861F78004E69EF003A09F8006009F9005D
:104400004808F8006209F90062210200000000007B
:104410003CA9B7003C09E200BA003200744A8000AF
:104420006324E100B70032004EC9BF000160EF0015
:104430000080B200050032001080B200250032007A
:104440003080B200AA003200AC0037002300200008
:104450000200200021952000831F780002007800D0
:104460001C0E020000000000CF0178008058780088
:104470000201E8008301E9004220AE00F6FF3700A8
:104480003C09F8006009F90024952000144B8800CD
:10449000BC210200000000008002FB000500E000DB
:1044A00009003A006029EF004A08F8006209F900A3
:1044B00062210200000000003CA9B70010C0B30058
:1044C0004EE9B7000200370030C0B3004EE9B70034
:1044D0008B003700230020000200200021952000DF
:1044E000831F7800020078002A0E020000000000FE
:1044F000CF017800805878000201E8008301E900CC
:104500004220AE00F6FF37003C09F8006009F900D0
:1045100024952000144B8800BC21020000000000FC
:104520008002FB000500E0000B003A0090C0B300E1
:104530004FE9B7006029EF004C08F8006209F90064
:1045400062210200000000003CA9B70020C0B300B7
:104550004EE9B7006500370023002000020020006C
:1045600021952000831F780002007800380E020099
:1045700000000000CF017800805878000201E800B8
:104580008301E9004220AE00F6FF37003C09F80045
:104590006009F90024952000144B8800BC2102001A
:1045A000000000008002FB000500E0000B003A0064
:1045B000A0C0B3004FE9B7006029EF004C08F80035
:1045C0006209F90062210200000000003CA9B70066
:1045D00020C0B3004EE9B70044003700230020009C
:1045E0000200200021952000831F7800020078003F
:1045F000460E020000000000CF01780080587800CD
:104600000201E8008301E9004220AE00F6FF370016
:104610003C09F8006009F90024952000144B88003B
:10462000BC210200000000008002FB000500E00049
:104630000B003A00B0C0B3004FE9B7006029EF00AB
:104640004C08F8006209F900622102000000000035
:104650003CA9B70020C0B3004EE9B70023003700E3
:10466000230020000200200021952000831F7800F5
:1046700002007800540E020000000000CF01780014
:10468000805878000201E8008301E9004220AE0072
:10469000F6FF37003C09F8006009F9002495200076
:1046A000144B8800BC210200000000008002FB00C7
:1046B0000500E0000B003A00C0C0B3004FE9B700AE
:1046C0006029EF004C08F8006209F900622102003D
:1046D000000000003CA9B70020C0B3004EE9B700BD
:1046E0000200370030C0B3004EE9B70004003700C5
:1046F00030C0B3004EE9B7000100370000003700BA
:1047000044FF37006C130200000000004200F80074
:1047100081E0A90042E0EF0081E0A8003A09F8003A
:10472000F409F900781002000000000081E0A900FF
:104730004200F90081E0A800744A80006224E10090
:10474000A9003A004FC9BF000160EF009080B2009D
:10475000070032003080B2002C0032001080B2001E
:10476000510032007080B200760032009C003700A9
:104770004200F80081E0A90042E0EF0081E0A800DB
:1047800044902000E44F88000A08F800FE09F90070
:104790000C08F800000AF900049520001450880065
:1047A000BE0E02000000000081E0A9004200F900F6
:1047B00081E0A800844A80006124E10001003A0001
:1047C0000828EC00E49320008449880001002000C0
:1047D000010078000160EF00620E0200000000009E
:1047E0008100E800811F7800801F78004F0078006A
:1047F000BC1D020000000000CF0078004000200037
:104800000008E600F2FF3700760037004200F800AB
:1048100081E0A90042E0EF0081E0A8004490200080
:10482000E44F88000E08F800FE09F9001008F800AF
:10483000000AF9000495200014508800BE0E020002
:104840000000000081E0A9004200F90081E0A8001A
:10485000844A80006124E10001003A000828EC004D
:10486000E4932000844988000100200001007800C2
:104870000160EF00740E0200000000008100E800FB
:10488000811F7800801F78004F007800BC1D020057
:1048900000000000CF007800400020000008E60083
:1048A000F2FF37004F0037004200F80081E0A90016
:1048B00042E0EF0081E0A80044902000E44F88002F
:1048C0001208F800FE09F9001408F800000AF900BF
:1048D0000495200014508800BE0E02000000000065
:1048E00081E0A9004200F90081E0A800844A80002C
:1048F0006124E10001003A000828EC00E493200064
:104900008449880001002000010078000160EF0068
:10491000860E0200000000008100E800811F780080
:10492000801F78004F007800BC1D020000000000CE
:10493000CF007800400020000008E600F2FF3700BA
:10494000280037004200F80081E0A90042E0EF00B3
:1049500081E0A80044902000E44F88001608F80089
:10496000FE09F9001808F800000AF9000495200073
:1049700014508800BE0E02000000000081E0A90073
:104980004200F90081E0A800844A80006124E1002F
:1049900001003A000828EC00E493200084498800D4
:1049A00001002000010078000160EF00980E020075
:1049B000000000008100E800811F7800801F78005F
:1049C0004F007800BC1D020000000000CF007800FE
:1049D000400020000008E600F2FF37000100370029
:1049E0000000370011003700E4932000844988005C
:1049F00001002000010078000160EF00AA0E020013
:104A0000000000008100E800811F7800801F78000E
:104A10004F007800BC1D020000000000CF007800AD
:104A2000600020000008E600F2FF3700E493200059
:104A3000044B8800341F02000000000051E9B70059
:104A40008E170200000000005149E20000003A0009
:104A50004F037800CF027800000006000000060037
:104A600000000600000006000F782200F07F220000
:104A700020A0B7000000000040442400200588006A
:104A8000404424004005880081E0A8006004200024
:104A900042E7B7007005200042E7B70042C7A9000F
:104AA000C0F02300A4A6B70000302000CCA6B700B9
:104AB0006004200042E7B7007005200042E7B7001D
:104AC00042C7A8004427EF00040028000411880012
:104AD00004402000141188002062A8002402200055
:104AE000441188000828EF002600370080020300E8
:104AF0002CFFFF0080020700440000008002070036
:104B0000440000008002080000000000800208004D
:104B1000000000008002080000000000C01E080025
:104B20002A0000000A4E080052085400083C3A00CF
:104B30000000800004085100003E00003E40DB0001
:104B40000080020009320000000000000201E800BD
:104B50006110E10004003A009101BA003182BA000C
:104B600006C0BF00000006006210E10002003A002B
:104B700007C0BF000000060008C0BF000001EB0036
:104B800000000600060020000000200090018800C0
:104B900060572200800078000001EB00A62502008B
:104BA000000000000BE0B700A62502000000000096
:104BB0000AE0B7000500E0001900320005F0A60089
:104BC00007003700A6250200000000000DE0B70036
:104BD000A6250200000000000CE0B70005F0A100CF
:104BE00005E0A6000800370005E0A1008502E90005
:104BF000A62502000000000080437800058009001F
:104C0000075B7800E5FF3700A625020000000000E2
:104C1000005B78008502E900FBFF3A00DFFF370008
:104C200004A3200034408800C4D4210084518800AB
:104C3000322AEF006C13020000000000761302001D
:104C400000000000A4922000D44988003C29EF0015
:104C50003E29EF004029EF009213020000000000FF
:104C6000B613020000000000E41302000000000080
:104C70009414020000000000B614020000000000BE
:104C8000DC160200000000008E1702000000000089
:104C90006C1302000000000044902000D4498800FA
:104CA00044932000E449880084932000F44988005C
:104CB00096170200000000008E170200000000009E
:104CC0003849E20055003A00A44980006124E1001F
:104CD00003003A003E1A0200000000004E003700B8
:104CE000A44980006324E10003003A003E1B020057
:104CF0000000000048003700A44980006924E1005A
:104D000003003A008C1B0200000000004200370044
:104D1000A44980006A24E10003003A00241C020038
:104D2000000000003C003700A44980006B24E10033
:104D300003003A00801C020000000000360037002B
:104D4000A44980006C24E10003003A00FC1C02002E
:104D50000000000030003700A44980006424E10016
:104D600003003A009A1F0200000000002A003700EA
:104D7000A44980006524E10003003A0018200200E5
:104D80000000000024003700A44980006624E100F0
:104D900003003A004E200200000000001E00370011
:104DA000A44980006724E10003003A007620020055
:104DB0000000000018003700A44980006824E100CA
:104DC00003003A00AC20020000000000120037008F
:104DD000A44980006E24E10005003A003609F8007D
:104DE0003A09F900F6210200000000000A0037002D
:104DF000A44980006D24E10005003A003609F8005E
:104E00003A09F9002E2502000000000002003700D8
:104E100030250200000000000200370032250200A9
:104E2000000000000808E20000003200AE08E200C6
:0C4E30000000320096FF37000040FE003A
:020000040001F9
:0807F800C7F900FF7F3F00FF7D
:00000001FF
;PIC24FJ48GA002
;CRC=A5DE  CREATED="27-µ.¤.-17 14:15"
