:081800000011040000000000CB
:08188800A60F0400000000009F
:08192000C60E040000000000E7
:081BF8003220EF00E3012000A0
:101C0000830150000500310083E120000080410085
:101C10001040BA000160EF000000060080E12000E3
:101C200083814100808141001380BA0000000600DA
:101C3000456E2000636F41006465580072203100DA
:101C4000507520006C73700065736900204D6E0044
:101C50006561730073752E0072650D00206F0A00B8
:101C60006E200D0041580A00302C00003220EF0099
:101C700023E42000008041001040BA000160EF0022
:101C8000000006004C450000442000003020000009
:101C90003A20000043430000572000005B41000051
:101CA00058310000206C0000656100006473000082
:101CB00020410000583000005D2E00000D0A000099
:101CC000000000003220EF00E3E620000080410029
:101CD0001040BA000160EF00000006004C45000013
:101CE00044200000312000003A200000435700004B
:101CF000205B000041580000302000006C650000AF
:101D0000616400007320000041580000315D000054
:101D10002E0D00000A0D00000A0000003220EF0026
:101D2000A3E92000008041001040BA000160EF00EC
:101D30000000060025750000204800007A20000001
:101D4000200000003220EF00E3EA20000080410084
:101D50001040BA000160EF00000006004357000089
:101D60000D0A0000000000003220EF0003EC20000C
:101D7000008041001040BA000160EF000000060042
:101D800043430000570D00000A0000004200F80025
:101D90003600F8003200F800801F78002000200094
:101DA0000C000900B01F78001516800063806200E7
:101DB0000EA8B7000888BF004100DD008481200024
:101DC000840240000E88BF0061006000800A780035
:101DD0001888BF001A08E3001F003A001A88BF00E5
:101DE0001C08E3001C003A000888BF004100DD0029
:101DF0008481200004004000901F78001408F9003E
:101E00001488BF001008E300130032002E28EC00F5
:101E10001408F8001008F90014002000344188006C
:101E20001088BF001288B600800278000500E0002C
:101E300005003A0010C0B30024E8B700C442A9006E
:101E4000C482A8000400370020C0B30024E8B70013
:101E5000C482A900C442A8000828EC0044408000C5
:101E60006320E10001003A000828EF000A88BF0063
:101E70004100DD00E4812000840240000E88BF00A4
:101E8000620360004130DE00800A78001E88BF00D7
:101E90002008E3001F003A002088BF002208E3006A
:101EA0001C003A000A88BF004100DD00E4812000E8
:101EB00004004000901F78001608F9001688BF0043
:101EC0001208E300130032002E28EC001608F80078
:101ED0001208F90014002000344188001088BF0067
:101EE0001288B600800278000500E00005003A0084
:101EF00020C0B30024E8B700C482A900C442A800EF
:101F00000400370010C0B30024E8B700C442A900A1
:101F1000C482A8000A28EC00544080006320E1003D
:101F200001003A000A28EF008760A900A001200004
:101F30000C0009004F1078004F0078003200F900C3
:101F40003600F9004200F900004006004200F800A7
:101F50003600F8003200F800801F780020002000D2
:101F60000C000900B01F78000C28EC002E08F800C7
:101F70002A08F900544180004341800003005200C8
:101F80002CA8B7002A08F8002808F9008500A90045
:101F9000A00120000C0009004F1078004F007800CD
:101FA0003200F9003600F9004200F9000040060056
:101FB00081E0A900040E20001402880081E0A8003E
:101FC000000006000828EF000A28EF002468EF0050
:101FD0002628EF002E28EF002828EF000C28EF001D
:101FE00000000600851F78002CA3EF000516800076
:101FF000B0FE2F008502600005168800451680009F
:1020000030FF2F008502600045168800C442A800FA
:10201000C482A800CC42A800CC62A800151680009B
:10202000638062000EA8B7000E88BF0061006000E8
:1020300010A8B7000E88BF00E2026000954088003B
:102040001228D5001421EF001E21EF00F4632000B8
:10205000D408880004002800F40888008760A900DC
:102060009760A8000A21EF001221EF0034422F00F0
:102070007408880004032800940888008500A900DB
:102080009500A800CF0278000000060081E0A900BA
:102090004220EF0081E0A80000000600851F7800C4
:1020A000C500200003000900B51F780080037800F8
:1020B0008404780004F0A1000400E00006003A0067
:1020C00009F0A70002003700050020000F003700CC
:1020D000050020000D003700E64252000A003900DA
:1020E0000003200009F0A600000220002322AF0018
:1020F000FEFF370024A2B7008502E900FBFF3B008A
:1021000055002000010037008402780064002000A0
:1021100005E0A00009F0A70005F0A000087122006A
:10212000110009008883D800C810020000000000D8
:1021300081037800883E2000110009008883D800C0
:10214000C81002000000000081037800480620004B
:10215000110009008883D800C810020000000000A8
:1021600081037800A8002000110009008883D800AE
:10217000C8100200000000000003200000C0400062
:102180002322AF00FEFF370024A2B700170037005C
:10219000060320000000E0000E003A0005E0A60063
:1021A0000D0037000402E9000524E10002003200BE
:1021B0004200AF00000006000000E00005003A0009
:1021C00005E0A6000400370005F0A6000602200086
:1021D0000100370005E0A100004043002322AF00CA
:1021E000FEFF370024A2B7000000060025012000F2
:1021F00003000900CF127800CF027800000006002B
:102200000F782200F07F220020A0B700000000001D
:10221000404424008005880081E0A800600420007C
:1022200042E7B7007005200042E7B70042C7A900A7
:10223000C0F02300A4A6B70020312100C0A6B7003B
:1022400000302000CCA6B7006004200042E7B700B1
:102250007005200042E7B70042C7A8004427EF00FE
:102260000400280004118800044020001411880094
:102270002062A80024022000441188002CA3EF0053
:102280000483200034408800C4F421008441880085
:102290003228EF000028EF000828EF000A28EF009E
:1022A0000C28EF000E28EF001028EF001228EF0096
:1022B0001428EF001628EF001828EF001A28EF0066
:1022C0001C28EF001E28EF002028EF002228EF0036
:1022D0002468EF002628EF002828EF002A28EF00C6
:1022E0002C28EF002E28EF000100200001007800CC
:1022F0000160EF00FC0D0200000000008100E8001A
:102300002322AF00FEFF370024A2B700B002200056
:102310000008E600F5FF370001002000010078000A
:102320000160EF00360E0200000000008100E800AE
:102330002322AF00FEFF370024A2B700D001200007
:102340000008E600F5FF37000100200001007800DA
:102350000160EF00620E0200000000008100E80052
:102360002322AF00FEFF370024A2B700E0012000C7
:102370000008E600F5FF3700D80F0200000000005B
:10238000E20F020000000000F20F02000000000057
:1023900046100200000000000C08E200330032008A
:1023A0000C28ED00344180006120E1002D003A004E
:1023B0002628EF002C88BF00040020004E100200E9
:1023C0000000000021002000010078000160EF0003
:1023D0008E0E0200000000008100E8002322AF0002
:1023E000FEFF370024A2B700600020000008E600CE
:1023F000F5FF3700244180006224E1000D003A001F
:1024000001002000010078000160EF00A20E020030
:10241000000000008100E8002322AF00FEFF37002B
:1024200024A2B700300020000008E600F5FF3700C6
:102430000C00370001002000010078000160EF006F
:10244000B40E0200000000008100E8002322AF006B
:10245000FEFF370024A2B700400020000008E6007D
:10246000F5FF3700C442A800C482A800CAFF3700A5
:042470000040FE002A
:020000040001F9
:0807F800C7F900FF7F3F00FF7D
:00000001FF
;PIC24FJ48GA002
;CRC=507C  CREATED="29-¡.Â.-17 23:31"
