:08180000481204000000000082
:08188800C6100400000000007E
:08192000C60E040000000000E7
:081BF8003220EF00E3012000A0
:101C0000830150000500310083E120000080410085
:101C10001040BA000160EF000000060080E12000E3
:101C200083814100808141001380BA0000000600DA
:101C3000456E2000636F41006465580072203100DA
:101C4000507520006C73700065736900204D6E0044
:101C50006561730073752E0072650D00206F0A00B8
:101C60006E200D0041580A00302C00003220EF0099
:101C700023E42000008041001040BA000160EF0022
:101C8000000006004C450000442000003020000009
:101C90003A20000043430000572000005B41000051
:101CA00058310000206C0000656100006473000082
:101CB00020410000583000005D2E00000D0A000099
:101CC000000000003220EF00E3E620000080410029
:101CD0001040BA000160EF00000006004C45000013
:101CE00044200000312000003A200000435700004B
:101CF000205B000041580000302000006C650000AF
:101D0000616400007320000041580000315D000054
:101D10002E0D00000A0D00000A0000003220EF0026
:101D2000A3E92000008041001040BA000160EF00EC
:101D30000000060025750000204800007A20000001
:101D4000200000003220EF00E3EA20000080410084
:101D50001040BA000160EF00000006004357000089
:101D60000D0A0000000000003220EF0003EC20000C
:101D7000008041001040BA000160EF000000060042
:101D800043430000570D00000A0000004200F80025
:101D90003600F8003200F800801F78002000200094
:101DA0000C000900B01F78001516800063806200E7
:101DB00010A8B7001088BF006100600012A8B7002B
:101DC0001208E20036003A001BC8BF000160EF00B5
:101DD0000080B2000B0032001080B2000C00320014
:101DE0003080B200230032001080B20024003200A4
:101DF0007080B200240032001080B2002400320053
:101E00002500370010C0B3001BE8B70023003700DF
:101E100020C0B3001BE8B7001288BF001408E3001D
:101E2000130032002628EC001208F8001408F9000C
:101E300014002000F44088001488BF001888B60001
:101E4000800278000500E00005003A0010C0B300F1
:101E50001AE8B700C442A900C482A80004003700F1
:101E600020C0B3001AE8B700C482A900C442A80089
:101E70000A00370020C0B3001BE8B7000700370096
:101E80001B68EF00050037001B68EF0003003700F8
:101E90001B68EF0001003700000037003B003700EF
:101EA000944080006120E10038003A001BC8BF0068
:101EB0000160EF000080B2000B0032001080B20021
:101EC0000C0032003080B2000D0032001080B200F1
:101ED0000E0032007080B2000F0032001080B2009D
:101EE000260032002800370030C0B3001BE8B700DE
:101EF0002600370030C0B3001BE8B70023003700CE
:101F000030C0B3001BE8B7002000370040C0B3006A
:101F10001BE8B7001D00370050C0B3001BE8B70036
:101F20001288BF001408E300130032002628EC00DA
:101F30001208F8001408F90014002000F44088008A
:101F40001488BF001888B600800278000500E00001
:101F500005003A0010C0B3001AE8B700C442A90057
:101F6000C482A8000400370020C0B3001AE8B700FC
:101F7000C482A900C442A8000400370050C0B300C6
:101F80001BE8B70001003700000037001088BF00D1
:101F9000E2026000B54088001628D5001608E2006D
:101FA00036003A0028C8BF000160EF000080B20090
:101FB0000B0032001080B2000C0032003080B20002
:101FC000230032001080B200240032007080B20082
:101FD000240032001080B2002400320025003700B7
:101FE00010C0B30028E8B7002300370020C0B300BA
:101FF00028E8B7001688BF001808E3001300320075
:102000002628EC001608F8001808F9001400200033
:10201000F44088001888BF001488B6008002780059
:102020000500E00005003A0020C0B3001AE8B70040
:10203000C482A900C442A8000400370010C0B30045
:102040001AE8B700C442A900C482A8000A003700F9
:1020500020C0B30028E8B700070037002868EF0069
:10206000050037002868EF00030037002868EF00FC
:1020700001003700000037003B003700B44080000B
:102080006120E10038003A0028C8BF000160EF007D
:102090000080B2000B0032001080B2000C00320051
:1020A0003080B2000D0032001080B2000E0032000D
:1020B0007080B2000F0032001080B20026003200A3
:1020C0002800370030C0B30028E8B70026003700EA
:1020D00030C0B30028E8B7002300370030C0B30099
:1020E00028E8B7002000370040C0B30028E8B70058
:1020F0001D00370050C0B30028E8B7001688BF00A5
:102100001808E300130032002628EC001608F80037
:102110001808F90014002000F44088001888BF0057
:102120001488B600800278000500E00005003A003F
:1021300020C0B3001AE8B700C482A900C442A800B6
:102140000400370010C0B3001AE8B700C442A90069
:10215000C482A8000400370050C0B30028E8B700CC
:1021600001003700000037008760A900A0012000AF
:102170000C0009004F1078004F0078003200F90081
:102180003600F9004200F900004006004200F80065
:102190003600F8003200F800801F78002000200090
:1021A0000C000900B01F78001C28EC002608F8007D
:1021B0002208F9001441800003418000030052000E
:1021C00024A8B7002208F8002008F9008500A9001B
:1021D000A00120000C0009004F1078004F0078008B
:1021E0003200F9003600F9004200F9000040060014
:1021F00081E0A900040E20001402880081E0A800FC
:10220000000006000828EF000A28EF000C28EF0065
:102210000E28EF001A68EF001E28EF002628EF00B6
:102220002028EF001C28EF0000000600851F780022
:102230002CA3EF0005168000B0FE2F008502600081
:10224000051688004516800030FF2F0085026000CB
:1022500045168800C442A800C482A800CC42A80049
:10226000CC62A800151680006380620010A8B70039
:102270001088BF006100600014A8B7001088BF007C
:10228000E2026000C54088001828D5001408E2006A
:1022900002003A001B68EF0005003700A4408000F0
:1022A0006120E10002003A0030C0B3001BE8B70033
:1022B0001808E20002003A002868EF000500370025
:1022C000A44080006120E10002003A0030C0B30069
:1022D00028E8B7001421EF001E21EF00F46320006E
:1022E000D408880004002800F40888008760A9004A
:1022F0009760A8000A21EF001221EF0034422F005E
:102300007408880004032800940888008500A90048
:102310009500A800CF0278000000060081E0A90027
:102320004220EF0081E0A80000000600851F780031
:10233000C500200003000900B51F78008003780065
:102340008404780004F0A1000400E00006003A00D4
:1023500009F0A70002003700050020000F00370039
:10236000050020000D003700E64252000A00390047
:102370000003200009F0A600000220002322AF0085
:10238000FEFF370024A2B7008502E900FBFF3B00F7
:10239000550020000100370084027800640020000E
:1023A00005E0A00009F0A70005F0A00008712200D8
:1023B000110009008883D8001012020000000000FC
:1023C00081037800883E2000110009008883D8002E
:1023D000101202000000000081037800480620006F
:1023E000110009008883D8001012020000000000CC
:1023F00081037800A8002000110009008883D8001C
:1024000010120200000000000003200000C0400085
:102410002322AF00FEFF370024A2B70017003700C9
:10242000060320000000E0000E003A0005E0A600D0
:102430000D0037000402E9000524E100020032002B
:102440004200AF00000006000000E00005003A0076
:1024500005E0A6000400370005F0A60006022000F3
:102460000100370005E0A100004043002322AF0037
:10247000FEFF370024A2B70000000600250120005F
:1024800003000900CF127800CF0278000000060098
:102490000F782200F07F220020A0B700000000008B
:1024A000404424008005880081E0A80060042000EA
:1024B00042E7B7007005200042E7B70042C7A90015
:1024C000001020008EA6B700C0F02300A4A6B7001D
:1024D00000302000CCA6B7006004200042E7B7001F
:1024E0007005200042E7B70042C7A8004427EF006C
:1024F0000400280004118800044020001411880002
:102500002062A80024022000441188002CA3EF00C0
:102510000483200034408800C4F4210084418800F2
:102520003228EF000028EF000828EF000A28EF000B
:102530000C28EF000E28EF001028EF001228EF0003
:102540001428EF001628EF001828EF001A68EF0093
:102550001C28EF001E28EF002028EF002228EF00A3
:102560002428EF002628EF001B68EF002868EF0002
:1025700001002000010078000160EF00FC0D020066
:10258000000000008100E8002322AF00FEFF3700BA
:1025900024A2B700B00220000008E600F5FF3700D3
:1025A00001002000010078000160EF00360E0200FB
:1025B000000000008100E8002322AF00FEFF37008A
:1025C00024A2B700D00120000008E600F5FF370084
:1025D00001002000010078000160EF00620E02009F
:1025E000000000008100E8002322AF00FEFF37005A
:1025F00024A2B700E00120000008E600F5FF370044
:10260000F8100200000000000211020000000000AB
:1026100016110200000000008E11020000000000F0
:102620001C08E200330032001C28ED00F44080005A
:102630006120E1002D003A001E28EF002488BF0031
:10264000040020009611020000000000210020007C
:10265000010078000160EF008E0E02000000000013
:102660008100E8002322AF00FEFF370024A2B7005C
:10267000600020000008E600F5FF3700D44080002D
:102680006224E1000D003A00010020000100780002
:102690000160EF00A20E0200000000008100E800CF
:1026A0002322AF00FEFF370024A2B7003000200035
:1026B0000008E600F5FF37000C003700010020009D
:1026C000010078000160EF00B40E0200000000007D
:1026D0008100E8002322AF00FEFF370024A2B700EC
:1026E000400020000008E600F5FF3700C442A800C3
:0C26F000C482A800CAFF37000040FE00B2
:020000040001F9
:0807F800C7F900FF7F3F00FF7D
:00000001FF
;PIC24FJ48GA002
;CRC=D226  CREATED="29-¡.Â.-17 23:34"
